{
  "_format": "hh-sol-artifact-1",
  "contractName": "CryptoBet",
  "sourceName": "contracts/CryptoBet.sol",
  "abi": [
    {
      "inputs": [
        {
          "internalType": "address",
          "name": "_oracleAddress",
          "type": "address"
        }
      ],
      "stateMutability": "nonpayable",
      "type": "constructor"
    },
    {
      "anonymous": false,
      "inputs": [
        {
          "indexed": true,
          "internalType": "address",
          "name": "owner",
          "type": "address"
        },
        {
          "indexed": true,
          "internalType": "address",
          "name": "spender",
          "type": "address"
        },
        {
          "indexed": false,
          "internalType": "uint256",
          "name": "value",
          "type": "uint256"
        }
      ],
      "name": "Approval",
      "type": "event"
    },
    {
      "anonymous": false,
      "inputs": [
        {
          "indexed": true,
          "internalType": "address",
          "name": "previousOwner",
          "type": "address"
        },
        {
          "indexed": true,
          "internalType": "address",
          "name": "newOwner",
          "type": "address"
        }
      ],
      "name": "OwnershipTransferred",
      "type": "event"
    },
    {
      "anonymous": false,
      "inputs": [
        {
          "indexed": true,
          "internalType": "address",
          "name": "from",
          "type": "address"
        },
        {
          "indexed": true,
          "internalType": "address",
          "name": "to",
          "type": "address"
        },
        {
          "indexed": false,
          "internalType": "uint256",
          "name": "value",
          "type": "uint256"
        }
      ],
      "name": "Transfer",
      "type": "event"
    },
    {
      "anonymous": false,
      "inputs": [
        {
          "indexed": false,
          "internalType": "address",
          "name": "userAddr",
          "type": "address"
        },
        {
          "indexed": false,
          "internalType": "bool",
          "name": "result",
          "type": "bool"
        }
      ],
      "name": "evt_betFinish",
      "type": "event"
    },
    {
      "anonymous": false,
      "inputs": [
        {
          "indexed": false,
          "internalType": "address",
          "name": "userAddr",
          "type": "address"
        },
        {
          "indexed": false,
          "internalType": "uint256",
          "name": "totalBet",
          "type": "uint256"
        },
        {
          "indexed": false,
          "internalType": "uint256",
          "name": "betBalance",
          "type": "uint256"
        },
        {
          "indexed": false,
          "internalType": "bool",
          "name": "token",
          "type": "bool"
        }
      ],
      "name": "evt_newBet",
      "type": "event"
    },
    {
      "anonymous": false,
      "inputs": [
        {
          "indexed": false,
          "internalType": "uint256",
          "name": "winners",
          "type": "uint256"
        },
        {
          "indexed": false,
          "internalType": "uint256",
          "name": "winnersErc20",
          "type": "uint256"
        },
        {
          "indexed": false,
          "internalType": "uint256",
          "name": "loosers",
          "type": "uint256"
        },
        {
          "indexed": false,
          "internalType": "uint256",
          "name": "loosersErc20",
          "type": "uint256"
        },
        {
          "indexed": false,
          "internalType": "int256",
          "name": "newPriceFeed",
          "type": "int256"
        }
      ],
      "name": "evt_nextRound",
      "type": "event"
    },
    {
      "stateMutability": "payable",
      "type": "fallback"
    },
    {
      "inputs": [
        {
          "internalType": "address",
          "name": "owner",
          "type": "address"
        },
        {
          "internalType": "address",
          "name": "spender",
          "type": "address"
        }
      ],
      "name": "allowance",
      "outputs": [
        {
          "internalType": "uint256",
          "name": "",
          "type": "uint256"
        }
      ],
      "stateMutability": "view",
      "type": "function"
    },
    {
      "inputs": [
        {
          "internalType": "address",
          "name": "spender",
          "type": "address"
        },
        {
          "internalType": "uint256",
          "name": "amount",
          "type": "uint256"
        }
      ],
      "name": "approve",
      "outputs": [
        {
          "internalType": "bool",
          "name": "",
          "type": "bool"
        }
      ],
      "stateMutability": "nonpayable",
      "type": "function"
    },
    {
      "inputs": [
        {
          "internalType": "address",
          "name": "account",
          "type": "address"
        }
      ],
      "name": "balanceOf",
      "outputs": [
        {
          "internalType": "uint256",
          "name": "",
          "type": "uint256"
        }
      ],
      "stateMutability": "view",
      "type": "function"
    },
    {
      "inputs": [],
      "name": "claimBet",
      "outputs": [],
      "stateMutability": "nonpayable",
      "type": "function"
    },
    {
      "inputs": [],
      "name": "currentBetBalance",
      "outputs": [
        {
          "internalType": "uint256",
          "name": "",
          "type": "uint256"
        }
      ],
      "stateMutability": "view",
      "type": "function"
    },
    {
      "inputs": [],
      "name": "currentBetBalanceErc20",
      "outputs": [
        {
          "internalType": "uint256",
          "name": "",
          "type": "uint256"
        }
      ],
      "stateMutability": "view",
      "type": "function"
    },
    {
      "inputs": [],
      "name": "currentPriceFeed",
      "outputs": [
        {
          "internalType": "int256",
          "name": "",
          "type": "int256"
        }
      ],
      "stateMutability": "view",
      "type": "function"
    },
    {
      "inputs": [],
      "name": "decimals",
      "outputs": [
        {
          "internalType": "uint8",
          "name": "",
          "type": "uint8"
        }
      ],
      "stateMutability": "view",
      "type": "function"
    },
    {
      "inputs": [
        {
          "internalType": "address",
          "name": "spender",
          "type": "address"
        },
        {
          "internalType": "uint256",
          "name": "subtractedValue",
          "type": "uint256"
        }
      ],
      "name": "decreaseAllowance",
      "outputs": [
        {
          "internalType": "bool",
          "name": "",
          "type": "bool"
        }
      ],
      "stateMutability": "nonpayable",
      "type": "function"
    },
    {
      "inputs": [
        {
          "internalType": "uint256",
          "name": "_value",
          "type": "uint256"
        }
      ],
      "name": "drainTheFund",
      "outputs": [],
      "stateMutability": "nonpayable",
      "type": "function"
    },
    {
      "inputs": [],
      "name": "getBetters",
      "outputs": [
        {
          "internalType": "address[]",
          "name": "",
          "type": "address[]"
        }
      ],
      "stateMutability": "view",
      "type": "function"
    },
    {
      "inputs": [],
      "name": "getLatestPrice",
      "outputs": [
        {
          "internalType": "int256",
          "name": "",
          "type": "int256"
        }
      ],
      "stateMutability": "view",
      "type": "function"
    },
    {
      "inputs": [
        {
          "internalType": "address",
          "name": "_addr",
          "type": "address"
        }
      ],
      "name": "getOneBetter",
      "outputs": [
        {
          "components": [
            {
              "internalType": "uint256",
              "name": "betValue",
              "type": "uint256"
            },
            {
              "internalType": "uint256",
              "name": "balance",
              "type": "uint256"
            },
            {
              "internalType": "enum CryptoBet.Expectations",
              "name": "expectStatus",
              "type": "uint8"
            },
            {
              "internalType": "enum CryptoBet.BetStatus",
              "name": "betStatus",
              "type": "uint8"
            },
            {
              "internalType": "bool",
              "name": "token",
              "type": "bool"
            }
          ],
          "internalType": "struct CryptoBet.UserBet",
          "name": "",
          "type": "tuple"
        }
      ],
      "stateMutability": "view",
      "type": "function"
    },
    {
      "inputs": [
        {
          "internalType": "address",
          "name": "spender",
          "type": "address"
        },
        {
          "internalType": "uint256",
          "name": "addedValue",
          "type": "uint256"
        }
      ],
      "name": "increaseAllowance",
      "outputs": [
        {
          "internalType": "bool",
          "name": "",
          "type": "bool"
        }
      ],
      "stateMutability": "nonpayable",
      "type": "function"
    },
    {
      "inputs": [],
      "name": "mintEDFT",
      "outputs": [],
      "stateMutability": "nonpayable",
      "type": "function"
    },
    {
      "inputs": [],
      "name": "name",
      "outputs": [
        {
          "internalType": "string",
          "name": "",
          "type": "string"
        }
      ],
      "stateMutability": "view",
      "type": "function"
    },
    {
      "inputs": [],
      "name": "nextRound",
      "outputs": [],
      "stateMutability": "nonpayable",
      "type": "function"
    },
    {
      "inputs": [],
      "name": "owner",
      "outputs": [
        {
          "internalType": "address",
          "name": "",
          "type": "address"
        }
      ],
      "stateMutability": "view",
      "type": "function"
    },
    {
      "inputs": [
        {
          "internalType": "uint256",
          "name": "_expectation",
          "type": "uint256"
        }
      ],
      "name": "registerBet",
      "outputs": [],
      "stateMutability": "payable",
      "type": "function"
    },
    {
      "inputs": [
        {
          "internalType": "uint256",
          "name": "_expectation",
          "type": "uint256"
        }
      ],
      "name": "registerBetErc20",
      "outputs": [],
      "stateMutability": "nonpayable",
      "type": "function"
    },
    {
      "inputs": [],
      "name": "renounceOwnership",
      "outputs": [],
      "stateMutability": "nonpayable",
      "type": "function"
    },
    {
      "inputs": [],
      "name": "symbol",
      "outputs": [
        {
          "internalType": "string",
          "name": "",
          "type": "string"
        }
      ],
      "stateMutability": "view",
      "type": "function"
    },
    {
      "inputs": [],
      "name": "totalSupply",
      "outputs": [
        {
          "internalType": "uint256",
          "name": "",
          "type": "uint256"
        }
      ],
      "stateMutability": "view",
      "type": "function"
    },
    {
      "inputs": [
        {
          "internalType": "address",
          "name": "recipient",
          "type": "address"
        },
        {
          "internalType": "uint256",
          "name": "amount",
          "type": "uint256"
        }
      ],
      "name": "transfer",
      "outputs": [
        {
          "internalType": "bool",
          "name": "",
          "type": "bool"
        }
      ],
      "stateMutability": "nonpayable",
      "type": "function"
    },
    {
      "inputs": [
        {
          "internalType": "address",
          "name": "sender",
          "type": "address"
        },
        {
          "internalType": "address",
          "name": "recipient",
          "type": "address"
        },
        {
          "internalType": "uint256",
          "name": "amount",
          "type": "uint256"
        }
      ],
      "name": "transferFrom",
      "outputs": [
        {
          "internalType": "bool",
          "name": "",
          "type": "bool"
        }
      ],
      "stateMutability": "nonpayable",
      "type": "function"
    },
    {
      "inputs": [
        {
          "internalType": "address",
          "name": "newOwner",
          "type": "address"
        }
      ],
      "name": "transferOwnership",
      "outputs": [],
      "stateMutability": "nonpayable",
      "type": "function"
    },
    {
      "stateMutability": "payable",
      "type": "receive"
    }
  ],
  "bytecode": "0x60806040523480156200001157600080fd5b5060405162004a6e38038062004a6e833981810160405281019062000037919062000405565b6040518060400160405280601181526020017f456173794461707046726565546f6b656e0000000000000000000000000000008152506040518060400160405280600481526020017f4544465400000000000000000000000000000000000000000000000000000000815250620000c3620000b76200014c60201b60201c565b6200015460201b60201c565b8160049081620000d49190620006b1565b508060059081620000e69190620006b1565b50505080600b60016101000a81548173ffffffffffffffffffffffffffffffffffffffff021916908373ffffffffffffffffffffffffffffffffffffffff1602179055506200014533683635c9adc5dea000006200021860201b60201c565b50620008b3565b600033905090565b60008060009054906101000a900473ffffffffffffffffffffffffffffffffffffffff169050816000806101000a81548173ffffffffffffffffffffffffffffffffffffffff021916908373ffffffffffffffffffffffffffffffffffffffff1602179055508173ffffffffffffffffffffffffffffffffffffffff168173ffffffffffffffffffffffffffffffffffffffff167f8be0079c531659141344cd1fd0a4f28419497f9722a3daafe3b4186f6b6457e060405160405180910390a35050565b600073ffffffffffffffffffffffffffffffffffffffff168273ffffffffffffffffffffffffffffffffffffffff16036200028a576040517f08c379a00000000000000000000000000000000000000000000000000000000081526004016200028190620007f9565b60405180910390fd5b6200029e600083836200039160201b60201c565b8060036000828254620002b291906200084a565b9250508190555080600160008473ffffffffffffffffffffffffffffffffffffffff1673ffffffffffffffffffffffffffffffffffffffff16815260200190815260200160002060008282546200030a91906200084a565b925050819055508173ffffffffffffffffffffffffffffffffffffffff16600073ffffffffffffffffffffffffffffffffffffffff167fddf252ad1be2c89b69c2b068fc378daa952ba7f163c4a11628f55a4df523b3ef8360405162000371919062000896565b60405180910390a36200038d600083836200039660201b60201c565b5050565b505050565b505050565b600080fd5b600073ffffffffffffffffffffffffffffffffffffffff82169050919050565b6000620003cd82620003a0565b9050919050565b620003df81620003c0565b8114620003eb57600080fd5b50565b600081519050620003ff81620003d4565b92915050565b6000602082840312156200041e576200041d6200039b565b5b60006200042e84828501620003ee565b91505092915050565b600081519050919050565b7f4e487b7100000000000000000000000000000000000000000000000000000000600052604160045260246000fd5b7f4e487b7100000000000000000000000000000000000000000000000000000000600052602260045260246000fd5b60006002820490506001821680620004b957607f821691505b602082108103620004cf57620004ce62000471565b5b50919050565b60008190508160005260206000209050919050565b60006020601f8301049050919050565b600082821b905092915050565b600060088302620005397fffffffffffffffffffffffffffffffffffffffffffffffffffffffffffffffff82620004fa565b620005458683620004fa565b95508019841693508086168417925050509392505050565b6000819050919050565b6000819050919050565b6000620005926200058c62000586846200055d565b62000567565b6200055d565b9050919050565b6000819050919050565b620005ae8362000571565b620005c6620005bd8262000599565b84845462000507565b825550505050565b600090565b620005dd620005ce565b620005ea818484620005a3565b505050565b5b81811015620006125762000606600082620005d3565b600181019050620005f0565b5050565b601f82111562000661576200062b81620004d5565b6200063684620004ea565b8101602085101562000646578190505b6200065e6200065585620004ea565b830182620005ef565b50505b505050565b600082821c905092915050565b6000620006866000198460080262000666565b1980831691505092915050565b6000620006a1838362000673565b9150826002028217905092915050565b620006bc8262000437565b67ffffffffffffffff811115620006d857620006d762000442565b5b620006e48254620004a0565b620006f182828562000616565b600060209050601f83116001811462000729576000841562000714578287015190505b62000720858262000693565b86555062000790565b601f1984166200073986620004d5565b60005b8281101562000763578489015182556001820191506020850194506020810190506200073c565b868310156200078357848901516200077f601f89168262000673565b8355505b6001600288020188555050505b505050505050565b600082825260208201905092915050565b7f45524332303a206d696e7420746f20746865207a65726f206164647265737300600082015250565b6000620007e1601f8362000798565b9150620007ee82620007a9565b602082019050919050565b600060208201905081810360008301526200081481620007d2565b9050919050565b7f4e487b7100000000000000000000000000000000000000000000000000000000600052601160045260246000fd5b600062000857826200055d565b915062000864836200055d565b92508282019050808211156200087f576200087e6200081b565b5b92915050565b62000890816200055d565b82525050565b6000602082019050620008ad600083018462000885565b92915050565b6141ab80620008c36000396000f3fe6080604052600436106101855760003560e01c806370a08231116100d1578063a9059cbb1161008a578063dd62ed3e11610064578063dd62ed3e1461055b578063f2fde38b14610598578063fbf9dab7146105c1578063febfba3e146105ec5761018c565b8063a9059cbb146104d7578063ab259f2914610514578063cc24b7dc146105305761018c565b806370a08231146103c5578063715018a6146104025780638da5cb5b146104195780638e15f4731461044457806395d89b411461046f578063a457c2d71461049a5761018c565b806323b872dd1161013e5780633950935111610118578063395093511461030b5780633e1bba5b1461034857806347e40553146103855780636a25a8ef1461039c5761018c565b806323b872dd146102785780632fa950aa146102b5578063313ce567146102e05761018c565b806301d386bc1461018e57806306fdde03146101a5578063095ea7b3146101d05780630e02dcd61461020d57806318160ddd146102245780632086fde21461024f5761018c565b3661018c57005b005b34801561019a57600080fd5b506101a3610617565b005b3480156101b157600080fd5b506101ba61067f565b6040516101c79190612e3b565b60405180910390f35b3480156101dc57600080fd5b506101f760048036038101906101f29190612ef6565b610711565b6040516102049190612f51565b60405180910390f35b34801561021957600080fd5b5061022261072f565b005b34801561023057600080fd5b50610239610b77565b6040516102469190612f7b565b60405180910390f35b34801561025b57600080fd5b5061027660048036038101906102719190612f96565b610b81565b005b34801561028457600080fd5b5061029f600480360381019061029a9190612fc3565b610cad565b6040516102ac9190612f51565b60405180910390f35b3480156102c157600080fd5b506102ca610da5565b6040516102d7919061302f565b60405180910390f35b3480156102ec57600080fd5b506102f5610dab565b6040516103029190613066565b60405180910390f35b34801561031757600080fd5b50610332600480360381019061032d9190612ef6565b610db4565b60405161033f9190612f51565b60405180910390f35b34801561035457600080fd5b5061036f600480360381019061036a9190613081565b610e60565b60405161037c91906131f3565b60405180910390f35b34801561039157600080fd5b5061039a610f5e565b005b3480156103a857600080fd5b506103c360048036038101906103be9190612f96565b61152f565b005b3480156103d157600080fd5b506103ec60048036038101906103e79190613081565b611961565b6040516103f99190612f7b565b60405180910390f35b34801561040e57600080fd5b506104176119aa565b005b34801561042557600080fd5b5061042e611a32565b60405161043b919061321d565b60405180910390f35b34801561045057600080fd5b50610459611a5b565b604051610466919061302f565b60405180910390f35b34801561047b57600080fd5b50610484611afc565b6040516104919190612e3b565b60405180910390f35b3480156104a657600080fd5b506104c160048036038101906104bc9190612ef6565b611b8e565b6040516104ce9190612f51565b60405180910390f35b3480156104e357600080fd5b506104fe60048036038101906104f99190612ef6565b611c79565b60405161050b9190612f51565b60405180910390f35b61052e60048036038101906105299190612f96565b611c97565b005b34801561053c57600080fd5b50610545612001565b6040516105529190612f7b565b60405180910390f35b34801561056757600080fd5b50610582600480360381019061057d9190613238565b612007565b60405161058f9190612f7b565b60405180910390f35b3480156105a457600080fd5b506105bf60048036038101906105ba9190613081565b61208e565b005b3480156105cd57600080fd5b506105d6612185565b6040516105e39190613336565b60405180910390f35b3480156105f857600080fd5b50610601612213565b60405161060e9190612f7b565b60405180910390f35b6801a055690d9db8000061062a33611961565b1061066a576040517f08c379a0000000000000000000000000000000000000000000000000000000008152600401610661906133a4565b60405180910390fd5b61067d336801a055690d9db80000612219565b565b60606004805461068e906133f3565b80601f01602080910402602001604051908101604052809291908181526020018280546106ba906133f3565b80156107075780601f106106dc57610100808354040283529160200191610707565b820191906000526020600020905b8154815290600101906020018083116106ea57829003601f168201915b5050505050905090565b600061072561071e612379565b8484612381565b6001905092915050565b60026003811115610743576107426130bd565b5b6003811115610755576107546130bd565b5b600660003373ffffffffffffffffffffffffffffffffffffffff1673ffffffffffffffffffffffffffffffffffffffff16815260200190815260200160002060020160019054906101000a900460ff1660038111156107b7576107b66130bd565b5b148061084757506003808111156107d1576107d06130bd565b5b60038111156107e3576107e26130bd565b5b600660003373ffffffffffffffffffffffffffffffffffffffff1673ffffffffffffffffffffffffffffffffffffffff16815260200190815260200160002060020160019054906101000a900460ff166003811115610845576108446130bd565b5b145b610886576040517f08c379a000000000000000000000000000000000000000000000000000000000815260040161087d90613470565b60405180910390fd5b60001515600b60009054906101000a900460ff161515146108dc576040517f08c379a00000000000000000000000000000000000000000000000000000000081526004016108d390613502565b60405180910390fd5b6003808111156108ef576108ee6130bd565b5b6003811115610901576109006130bd565b5b600660003373ffffffffffffffffffffffffffffffffffffffff1673ffffffffffffffffffffffffffffffffffffffff16815260200190815260200160002060020160019054906101000a900460ff166003811115610963576109626130bd565b5b03610b6c5760011515600660003373ffffffffffffffffffffffffffffffffffffffff1673ffffffffffffffffffffffffffffffffffffffff16815260200190815260200160002060020160029054906101000a900460ff16151503610a2757610a2233670de0b6b3a7640000600660003373ffffffffffffffffffffffffffffffffffffffff1673ffffffffffffffffffffffffffffffffffffffff16815260200190815260200160002060010154610a1d9190613551565b612219565b610b6b565b60006064605a600660003373ffffffffffffffffffffffffffffffffffffffff1673ffffffffffffffffffffffffffffffffffffffff16815260200190815260200160002060010154610a7a9190613551565b610a8491906135c2565b90506001600b60006101000a81548160ff02191690831515021790555060003373ffffffffffffffffffffffffffffffffffffffff1682604051610ac790613624565b60006040518083038185875af1925050503d8060008114610b04576040519150601f19603f3d011682016040523d82523d6000602084013e610b09565b606091505b505090506000600b60006101000a81548160ff02191690831515021790555080610b68576040517f08c379a0000000000000000000000000000000000000000000000000000000008152600401610b5f906136ab565b60405180910390fd5b50505b5b610b753361254a565b565b6000600354905090565b610b89612379565b73ffffffffffffffffffffffffffffffffffffffff16610ba7611a32565b73ffffffffffffffffffffffffffffffffffffffff1614610bfd576040517f08c379a0000000000000000000000000000000000000000000000000000000008152600401610bf490613717565b60405180910390fd5b60003373ffffffffffffffffffffffffffffffffffffffff1682604051610c2390613624565b60006040518083038185875af1925050503d8060008114610c60576040519150601f19603f3d011682016040523d82523d6000602084013e610c65565b606091505b5050905080610ca9576040517f08c379a0000000000000000000000000000000000000000000000000000000008152600401610ca0906137a9565b60405180910390fd5b5050565b6000610cba8484846126cf565b6000600260008673ffffffffffffffffffffffffffffffffffffffff1673ffffffffffffffffffffffffffffffffffffffff1681526020019081526020016000206000610d05612379565b73ffffffffffffffffffffffffffffffffffffffff1673ffffffffffffffffffffffffffffffffffffffff16815260200190815260200160002054905082811015610d85576040517f08c379a0000000000000000000000000000000000000000000000000000000008152600401610d7c9061383b565b60405180910390fd5b610d9985610d91612379565b858403612381565b60019150509392505050565b600a5481565b60006012905090565b6000610e56610dc1612379565b848460026000610dcf612379565b73ffffffffffffffffffffffffffffffffffffffff1673ffffffffffffffffffffffffffffffffffffffff16815260200190815260200160002060008873ffffffffffffffffffffffffffffffffffffffff1673ffffffffffffffffffffffffffffffffffffffff16815260200190815260200160002054610e51919061385b565b612381565b6001905092915050565b610e68612d18565b600660008373ffffffffffffffffffffffffffffffffffffffff1673ffffffffffffffffffffffffffffffffffffffff1681526020019081526020016000206040518060a001604052908160008201548152602001600182015481526020016002820160009054906101000a900460ff166002811115610eeb57610eea6130bd565b5b6002811115610efd57610efc6130bd565b5b81526020016002820160019054906101000a900460ff166003811115610f2657610f256130bd565b5b6003811115610f3857610f376130bd565b5b81526020016002820160029054906101000a900460ff1615151515815250509050919050565b610f66612379565b73ffffffffffffffffffffffffffffffffffffffff16610f84611a32565b73ffffffffffffffffffffffffffffffffffffffff1614610fda576040517f08c379a0000000000000000000000000000000000000000000000000000000008152600401610fd190613717565b60405180910390fd5b6000610fe4611a5b565b90506000806000806000610ff786612951565b905085600a8190555060005b6007805490508110156114c157816002811115611023576110226130bd565b5b600660006007848154811061103b5761103a61388f565b5b9060005260206000200160009054906101000a900473ffffffffffffffffffffffffffffffffffffffff1673ffffffffffffffffffffffffffffffffffffffff1673ffffffffffffffffffffffffffffffffffffffff16815260200190815260200160002060020160009054906101000a900460ff1660028111156110c3576110c26130bd565b5b036112bc576003808111156110db576110da6130bd565b5b60066000600784815481106110f3576110f261388f565b5b9060005260206000200160009054906101000a900473ffffffffffffffffffffffffffffffffffffffff1673ffffffffffffffffffffffffffffffffffffffff1673ffffffffffffffffffffffffffffffffffffffff16815260200190815260200160002060020160016101000a81548160ff0219169083600381111561117d5761117c6130bd565b5b021790555060011515600660006007848154811061119e5761119d61388f565b5b9060005260206000200160009054906101000a900473ffffffffffffffffffffffffffffffffffffffff1673ffffffffffffffffffffffffffffffffffffffff1673ffffffffffffffffffffffffffffffffffffffff16815260200190815260200160002060020160029054906101000a900460ff1615150361122f57600185611228919061385b565b945061123f565b60018661123c919061385b565b95505b7fd07d7f6a78697c9d8a61e2607cfcbc8ea25155827e936a90fc54504e0208526e600782815481106112745761127361388f565b5b9060005260206000200160009054906101000a900473ffffffffffffffffffffffffffffffffffffffff1660016040516112af9291906138be565b60405180910390a16114ad565b600260038111156112d0576112cf6130bd565b5b60066000600784815481106112e8576112e761388f565b5b9060005260206000200160009054906101000a900473ffffffffffffffffffffffffffffffffffffffff1673ffffffffffffffffffffffffffffffffffffffff1673ffffffffffffffffffffffffffffffffffffffff16815260200190815260200160002060020160016101000a81548160ff02191690836003811115611372576113716130bd565b5b02179055506001151560066000600784815481106113935761139261388f565b5b9060005260206000200160009054906101000a900473ffffffffffffffffffffffffffffffffffffffff1673ffffffffffffffffffffffffffffffffffffffff1673ffffffffffffffffffffffffffffffffffffffff16815260200190815260200160002060020160029054906101000a900460ff161515036114245760018361141d919061385b565b9250611434565b600184611431919061385b565b93505b7fd07d7f6a78697c9d8a61e2607cfcbc8ea25155827e936a90fc54504e0208526e600782815481106114695761146861388f565b5b9060005260206000200160009054906101000a900473ffffffffffffffffffffffffffffffffffffffff1660006040516114a49291906138be565b60405180910390a15b6001816114ba919061385b565b9050611003565b506114cc8585612993565b7fa1351cd2eb21c920d63e56d59a0f565fbe4888fc7766ea27a1285eb589c4030b85858585600a546040516115059594939291906138e7565b60405180910390a16007600061151b9190612d6d565b600860009055600960009055505050505050565b60006003811115611543576115426130bd565b5b6003811115611555576115546130bd565b5b600660003373ffffffffffffffffffffffffffffffffffffffff1673ffffffffffffffffffffffffffffffffffffffff16815260200190815260200160002060020160019054906101000a900460ff1660038111156115b7576115b66130bd565b5b146115f7576040517f08c379a00000000000000000000000000000000000000000000000000000000081526004016115ee906139ac565b60405180910390fd5b600a61160233611961565b1015611643576040517f08c379a000000000000000000000000000000000000000000000000000000000815260040161163a90613a18565b60405180910390fd5b6127106007805490501061168c576040517f08c379a000000000000000000000000000000000000000000000000000000000815260040161168390613a84565b60405180910390fd5b61169e33678ac7230489e80000610db4565b5060006116bb336116ad611a32565b678ac7230489e80000610cad565b90506001151581151514611704576040517f08c379a00000000000000000000000000000000000000000000000000000000081526004016116fb90613b16565b60405180910390fd5b6007339080600181540180825580915050600190039060005260206000200160009091909190916101000a81548173ffffffffffffffffffffffffffffffffffffffff021916908373ffffffffffffffffffffffffffffffffffffffff160217905550600a600660003373ffffffffffffffffffffffffffffffffffffffff1673ffffffffffffffffffffffffffffffffffffffff168152602001908152602001600020600001819055508160028111156117c2576117c16130bd565b5b600660003373ffffffffffffffffffffffffffffffffffffffff1673ffffffffffffffffffffffffffffffffffffffff16815260200190815260200160002060020160006101000a81548160ff02191690836002811115611826576118256130bd565b5b02179055506001600381111561183f5761183e6130bd565b5b600660003373ffffffffffffffffffffffffffffffffffffffff1673ffffffffffffffffffffffffffffffffffffffff16815260200190815260200160002060020160016101000a81548160ff021916908360038111156118a3576118a26130bd565b5b02179055506001600660003373ffffffffffffffffffffffffffffffffffffffff1673ffffffffffffffffffffffffffffffffffffffff16815260200190815260200160002060020160026101000a81548160ff021916908315150217905550600a600954611912919061385b565b6009819055507f53a2d159a5c443ff6dcbefb0ff3d6bf55ad19ba8ed20c64052f01b85460f0acc3360078054905060095460016040516119559493929190613b36565b60405180910390a15050565b6000600160008373ffffffffffffffffffffffffffffffffffffffff1673ffffffffffffffffffffffffffffffffffffffff168152602001908152602001600020549050919050565b6119b2612379565b73ffffffffffffffffffffffffffffffffffffffff166119d0611a32565b73ffffffffffffffffffffffffffffffffffffffff1614611a26576040517f08c379a0000000000000000000000000000000000000000000000000000000008152600401611a1d90613717565b60405180910390fd5b611a306000612c4a565b565b60008060009054906101000a900473ffffffffffffffffffffffffffffffffffffffff16905090565b600080600b60019054906101000a900473ffffffffffffffffffffffffffffffffffffffff1673ffffffffffffffffffffffffffffffffffffffff1663feaf968c6040518163ffffffff1660e01b815260040160a060405180830381865afa158015611acb573d6000803e3d6000fd5b505050506040513d601f19601f82011682018060405250810190611aef9190613bfe565b5050509150508091505090565b606060058054611b0b906133f3565b80601f0160208091040260200160405190810160405280929190818152602001828054611b37906133f3565b8015611b845780601f10611b5957610100808354040283529160200191611b84565b820191906000526020600020905b815481529060010190602001808311611b6757829003601f168201915b5050505050905090565b60008060026000611b9d612379565b73ffffffffffffffffffffffffffffffffffffffff1673ffffffffffffffffffffffffffffffffffffffff16815260200190815260200160002060008573ffffffffffffffffffffffffffffffffffffffff1673ffffffffffffffffffffffffffffffffffffffff16815260200190815260200160002054905082811015611c5a576040517f08c379a0000000000000000000000000000000000000000000000000000000008152600401611c5190613ceb565b60405180910390fd5b611c6e611c65612379565b85858403612381565b600191505092915050565b6000611c8d611c86612379565b84846126cf565b6001905092915050565b60006003811115611cab57611caa6130bd565b5b6003811115611cbd57611cbc6130bd565b5b600660003373ffffffffffffffffffffffffffffffffffffffff1673ffffffffffffffffffffffffffffffffffffffff16815260200190815260200160002060020160019054906101000a900460ff166003811115611d1f57611d1e6130bd565b5b14611d5f576040517f08c379a0000000000000000000000000000000000000000000000000000000008152600401611d56906139ac565b60405180910390fd5b670de0b6b3a76400003414611da9576040517f08c379a0000000000000000000000000000000000000000000000000000000008152600401611da090613d7d565b60405180910390fd5b61271060078054905010611df2576040517f08c379a0000000000000000000000000000000000000000000000000000000008152600401611de990613a84565b60405180910390fd5b6007339080600181540180825580915050600190039060005260206000200160009091909190916101000a81548173ffffffffffffffffffffffffffffffffffffffff021916908373ffffffffffffffffffffffffffffffffffffffff160217905550670de0b6b3a7640000600660003373ffffffffffffffffffffffffffffffffffffffff1673ffffffffffffffffffffffffffffffffffffffff16815260200190815260200160002060000181905550806002811115611eb757611eb66130bd565b5b600660003373ffffffffffffffffffffffffffffffffffffffff1673ffffffffffffffffffffffffffffffffffffffff16815260200190815260200160002060020160006101000a81548160ff02191690836002811115611f1b57611f1a6130bd565b5b021790555060016003811115611f3457611f336130bd565b5b600660003373ffffffffffffffffffffffffffffffffffffffff1673ffffffffffffffffffffffffffffffffffffffff16815260200190815260200160002060020160016101000a81548160ff02191690836003811115611f9857611f976130bd565b5b0217905550670de0b6b3a7640000600854611fb3919061385b565b6008819055507f53a2d159a5c443ff6dcbefb0ff3d6bf55ad19ba8ed20c64052f01b85460f0acc336007805490506008546000604051611ff69493929190613b36565b60405180910390a150565b60085481565b6000600260008473ffffffffffffffffffffffffffffffffffffffff1673ffffffffffffffffffffffffffffffffffffffff16815260200190815260200160002060008373ffffffffffffffffffffffffffffffffffffffff1673ffffffffffffffffffffffffffffffffffffffff16815260200190815260200160002054905092915050565b612096612379565b73ffffffffffffffffffffffffffffffffffffffff166120b4611a32565b73ffffffffffffffffffffffffffffffffffffffff161461210a576040517f08c379a000000000000000000000000000000000000000000000000000000000815260040161210190613717565b60405180910390fd5b600073ffffffffffffffffffffffffffffffffffffffff168173ffffffffffffffffffffffffffffffffffffffff1603612179576040517f08c379a000000000000000000000000000000000000000000000000000000000815260040161217090613e0f565b60405180910390fd5b61218281612c4a565b50565b6060600780548060200260200160405190810160405280929190818152602001828054801561220957602002820191906000526020600020905b8160009054906101000a900473ffffffffffffffffffffffffffffffffffffffff1673ffffffffffffffffffffffffffffffffffffffff16815260200190600101908083116121bf575b5050505050905090565b60095481565b600073ffffffffffffffffffffffffffffffffffffffff168273ffffffffffffffffffffffffffffffffffffffff1603612288576040517f08c379a000000000000000000000000000000000000000000000000000000000815260040161227f90613e7b565b60405180910390fd5b61229460008383612d0e565b80600360008282546122a6919061385b565b9250508190555080600160008473ffffffffffffffffffffffffffffffffffffffff1673ffffffffffffffffffffffffffffffffffffffff16815260200190815260200160002060008282546122fc919061385b565b925050819055508173ffffffffffffffffffffffffffffffffffffffff16600073ffffffffffffffffffffffffffffffffffffffff167fddf252ad1be2c89b69c2b068fc378daa952ba7f163c4a11628f55a4df523b3ef836040516123619190612f7b565b60405180910390a361237560008383612d13565b5050565b600033905090565b600073ffffffffffffffffffffffffffffffffffffffff168373ffffffffffffffffffffffffffffffffffffffff16036123f0576040517f08c379a00000000000000000000000000000000000000000000000000000000081526004016123e790613f0d565b60405180910390fd5b600073ffffffffffffffffffffffffffffffffffffffff168273ffffffffffffffffffffffffffffffffffffffff160361245f576040517f08c379a000000000000000000000000000000000000000000000000000000000815260040161245690613f9f565b60405180910390fd5b80600260008573ffffffffffffffffffffffffffffffffffffffff1673ffffffffffffffffffffffffffffffffffffffff16815260200190815260200160002060008473ffffffffffffffffffffffffffffffffffffffff1673ffffffffffffffffffffffffffffffffffffffff168152602001908152602001600020819055508173ffffffffffffffffffffffffffffffffffffffff168373ffffffffffffffffffffffffffffffffffffffff167f8c5be1e5ebec7d5bd14f71427d1e84f3dd0314c0f7b2291e5b200ac8c7c3b9258360405161253d9190612f7b565b60405180910390a3505050565b600660008273ffffffffffffffffffffffffffffffffffffffff1673ffffffffffffffffffffffffffffffffffffffff16815260200190815260200160002060000160009055600660008273ffffffffffffffffffffffffffffffffffffffff1673ffffffffffffffffffffffffffffffffffffffff16815260200190815260200160002060020160006101000a81549060ff0219169055600660008273ffffffffffffffffffffffffffffffffffffffff1673ffffffffffffffffffffffffffffffffffffffff16815260200190815260200160002060010160009055600660008273ffffffffffffffffffffffffffffffffffffffff1673ffffffffffffffffffffffffffffffffffffffff16815260200190815260200160002060020160016101000a81549060ff0219169055600660008273ffffffffffffffffffffffffffffffffffffffff1673ffffffffffffffffffffffffffffffffffffffff16815260200190815260200160002060020160026101000a81549060ff021916905550565b600073ffffffffffffffffffffffffffffffffffffffff168373ffffffffffffffffffffffffffffffffffffffff160361273e576040517f08c379a000000000000000000000000000000000000000000000000000000000815260040161273590614031565b60405180910390fd5b600073ffffffffffffffffffffffffffffffffffffffff168273ffffffffffffffffffffffffffffffffffffffff16036127ad576040517f08c379a00000000000000000000000000000000000000000000000000000000081526004016127a4906140c3565b60405180910390fd5b6127b8838383612d0e565b6000600160008573ffffffffffffffffffffffffffffffffffffffff1673ffffffffffffffffffffffffffffffffffffffff1681526020019081526020016000205490508181101561283f576040517f08c379a000000000000000000000000000000000000000000000000000000000815260040161283690614155565b60405180910390fd5b818103600160008673ffffffffffffffffffffffffffffffffffffffff1673ffffffffffffffffffffffffffffffffffffffff1681526020019081526020016000208190555081600160008573ffffffffffffffffffffffffffffffffffffffff1673ffffffffffffffffffffffffffffffffffffffff16815260200190815260200160002060008282546128d4919061385b565b925050819055508273ffffffffffffffffffffffffffffffffffffffff168473ffffffffffffffffffffffffffffffffffffffff167fddf252ad1be2c89b69c2b068fc378daa952ba7f163c4a11628f55a4df523b3ef846040516129389190612f7b565b60405180910390a361294b848484612d13565b50505050565b6000600a54821315612977576002808111156129705761296f6130bd565b5b905061298e565b6001600281111561298b5761298a6130bd565b5b90505b919050565b60005b600780549050811015612c45576003808111156129b6576129b56130bd565b5b60038111156129c8576129c76130bd565b5b60066000600784815481106129e0576129df61388f565b5b9060005260206000200160009054906101000a900473ffffffffffffffffffffffffffffffffffffffff1673ffffffffffffffffffffffffffffffffffffffff1673ffffffffffffffffffffffffffffffffffffffff16815260200190815260200160002060020160019054906101000a900460ff166003811115612a6857612a676130bd565b5b03612c3157600115156006600060078481548110612a8957612a8861388f565b5b9060005260206000200160009054906101000a900473ffffffffffffffffffffffffffffffffffffffff1673ffffffffffffffffffffffffffffffffffffffff1673ffffffffffffffffffffffffffffffffffffffff16815260200190815260200160002060020160029054906101000a900460ff16151503612b9d5781600954612b1491906135c2565b6006600060078481548110612b2c57612b2b61388f565b5b9060005260206000200160009054906101000a900473ffffffffffffffffffffffffffffffffffffffff1673ffffffffffffffffffffffffffffffffffffffff1673ffffffffffffffffffffffffffffffffffffffff16815260200190815260200160002060010181905550612c30565b82600854612bab91906135c2565b6006600060078481548110612bc357612bc261388f565b5b9060005260206000200160009054906101000a900473ffffffffffffffffffffffffffffffffffffffff1673ffffffffffffffffffffffffffffffffffffffff1673ffffffffffffffffffffffffffffffffffffffff168152602001908152602001600020600101819055505b5b600181612c3e919061385b565b9050612996565b505050565b60008060009054906101000a900473ffffffffffffffffffffffffffffffffffffffff169050816000806101000a81548173ffffffffffffffffffffffffffffffffffffffff021916908373ffffffffffffffffffffffffffffffffffffffff1602179055508173ffffffffffffffffffffffffffffffffffffffff168173ffffffffffffffffffffffffffffffffffffffff167f8be0079c531659141344cd1fd0a4f28419497f9722a3daafe3b4186f6b6457e060405160405180910390a35050565b505050565b505050565b6040518060a00160405280600081526020016000815260200160006002811115612d4557612d446130bd565b5b815260200160006003811115612d5e57612d5d6130bd565b5b81526020016000151581525090565b5080546000825590600052602060002090810190612d8b9190612d8e565b50565b5b80821115612da7576000816000905550600101612d8f565b5090565b600081519050919050565b600082825260208201905092915050565b60005b83811015612de5578082015181840152602081019050612dca565b60008484015250505050565b6000601f19601f8301169050919050565b6000612e0d82612dab565b612e178185612db6565b9350612e27818560208601612dc7565b612e3081612df1565b840191505092915050565b60006020820190508181036000830152612e558184612e02565b905092915050565b600080fd5b600073ffffffffffffffffffffffffffffffffffffffff82169050919050565b6000612e8d82612e62565b9050919050565b612e9d81612e82565b8114612ea857600080fd5b50565b600081359050612eba81612e94565b92915050565b6000819050919050565b612ed381612ec0565b8114612ede57600080fd5b50565b600081359050612ef081612eca565b92915050565b60008060408385031215612f0d57612f0c612e5d565b5b6000612f1b85828601612eab565b9250506020612f2c85828601612ee1565b9150509250929050565b60008115159050919050565b612f4b81612f36565b82525050565b6000602082019050612f666000830184612f42565b92915050565b612f7581612ec0565b82525050565b6000602082019050612f906000830184612f6c565b92915050565b600060208284031215612fac57612fab612e5d565b5b6000612fba84828501612ee1565b91505092915050565b600080600060608486031215612fdc57612fdb612e5d565b5b6000612fea86828701612eab565b9350506020612ffb86828701612eab565b925050604061300c86828701612ee1565b9150509250925092565b6000819050919050565b61302981613016565b82525050565b60006020820190506130446000830184613020565b92915050565b600060ff82169050919050565b6130608161304a565b82525050565b600060208201905061307b6000830184613057565b92915050565b60006020828403121561309757613096612e5d565b5b60006130a584828501612eab565b91505092915050565b6130b781612ec0565b82525050565b7f4e487b7100000000000000000000000000000000000000000000000000000000600052602160045260246000fd5b600381106130fd576130fc6130bd565b5b50565b600081905061310e826130ec565b919050565b600061311e82613100565b9050919050565b61312e81613113565b82525050565b60048110613145576131446130bd565b5b50565b600081905061315682613134565b919050565b600061316682613148565b9050919050565b6131768161315b565b82525050565b61318581612f36565b82525050565b60a0820160008201516131a160008501826130ae565b5060208201516131b460208501826130ae565b5060408201516131c76040850182613125565b5060608201516131da606085018261316d565b5060808201516131ed608085018261317c565b50505050565b600060a082019050613208600083018461318b565b92915050565b61321781612e82565b82525050565b6000602082019050613232600083018461320e565b92915050565b6000806040838503121561324f5761324e612e5d565b5b600061325d85828601612eab565b925050602061326e85828601612eab565b9150509250929050565b600081519050919050565b600082825260208201905092915050565b6000819050602082019050919050565b6132ad81612e82565b82525050565b60006132bf83836132a4565b60208301905092915050565b6000602082019050919050565b60006132e382613278565b6132ed8185613283565b93506132f883613294565b8060005b8381101561332957815161331088826132b3565b975061331b836132cb565b9250506001810190506132fc565b5085935050505092915050565b6000602082019050818103600083015261335081846132d8565b905092915050565b7f796f75206861766520746f6f206d756368204544465400000000000000000000600082015250565b600061338e601683612db6565b915061339982613358565b602082019050919050565b600060208201905081810360008301526133bd81613381565b9050919050565b7f4e487b7100000000000000000000000000000000000000000000000000000000600052602260045260246000fd5b6000600282049050600182168061340b57607f821691505b60208210810361341e5761341d6133c4565b5b50919050565b7f776169742074696c6c20796f757220626574206861732066696e697368656400600082015250565b600061345a601f83612db6565b915061346582613424565b602082019050919050565b600060208201905081810360008301526134898161344d565b9050919050565b7f61207472616e6665722069732070656e64696e672c207265747279206c61746560008201527f7200000000000000000000000000000000000000000000000000000000000000602082015250565b60006134ec602183612db6565b91506134f782613490565b604082019050919050565b6000602082019050818103600083015261351b816134df565b9050919050565b7f4e487b7100000000000000000000000000000000000000000000000000000000600052601160045260246000fd5b600061355c82612ec0565b915061356783612ec0565b925082820261357581612ec0565b9150828204841483151761358c5761358b613522565b5b5092915050565b7f4e487b7100000000000000000000000000000000000000000000000000000000600052601260045260246000fd5b60006135cd82612ec0565b91506135d883612ec0565b9250826135e8576135e7613593565b5b828204905092915050565b600081905092915050565b50565b600061360e6000836135f3565b9150613619826135fe565b600082019050919050565b600061362f82613601565b9150819050919050565b7f526577617264207472616e73666572206661696c65642c20706c65617365207260008201527f6574727900000000000000000000000000000000000000000000000000000000602082015250565b6000613695602483612db6565b91506136a082613639565b604082019050919050565b600060208201905081810360008301526136c481613688565b9050919050565b7f4f776e61626c653a2063616c6c6572206973206e6f7420746865206f776e6572600082015250565b6000613701602083612db6565b915061370c826136cb565b602082019050919050565b60006020820190508181036000830152613730816136f4565b9050919050565b7f647261696e207472616e73666572206661696c65642c20706c6561736520726560008201527f7472790000000000000000000000000000000000000000000000000000000000602082015250565b6000613793602383612db6565b915061379e82613737565b604082019050919050565b600060208201905081810360008301526137c281613786565b9050919050565b7f45524332303a207472616e7366657220616d6f756e742065786365656473206160008201527f6c6c6f77616e6365000000000000000000000000000000000000000000000000602082015250565b6000613825602883612db6565b9150613830826137c9565b604082019050919050565b6000602082019050818103600083015261385481613818565b9050919050565b600061386682612ec0565b915061387183612ec0565b925082820190508082111561388957613888613522565b5b92915050565b7f4e487b7100000000000000000000000000000000000000000000000000000000600052603260045260246000fd5b60006040820190506138d3600083018561320e565b6138e06020830184612f42565b9392505050565b600060a0820190506138fc6000830188612f6c565b6139096020830187612f6c565b6139166040830186612f6c565b6139236060830185612f6c565b6139306080830184613020565b9695505050505050565b7f6d757374206e6f742062657474696e6720746f2065786563757465207468697360008201527f2066756e6374696f6e0000000000000000000000000000000000000000000000602082015250565b6000613996602983612db6565b91506139a18261393a565b604082019050919050565b600060208201905081810360008301526139c581613989565b9050919050565b7f6e6f7420656e6f75676820454446540000000000000000000000000000000000600082015250565b6000613a02600f83612db6565b9150613a0d826139cc565b602082019050919050565b60006020820190508181036000830152613a31816139f5565b9050919050565b7f62657420706f6f6c2069732066756c6c00000000000000000000000000000000600082015250565b6000613a6e601083612db6565b9150613a7982613a38565b602082019050919050565b60006020820190508181036000830152613a9d81613a61565b9050919050565b7f7472616e73666572206572633230206661696c65642c20706c6561736520726560008201527f7472790000000000000000000000000000000000000000000000000000000000602082015250565b6000613b00602383612db6565b9150613b0b82613aa4565b604082019050919050565b60006020820190508181036000830152613b2f81613af3565b9050919050565b6000608082019050613b4b600083018761320e565b613b586020830186612f6c565b613b656040830185612f6c565b613b726060830184612f42565b95945050505050565b600069ffffffffffffffffffff82169050919050565b613b9a81613b7b565b8114613ba557600080fd5b50565b600081519050613bb781613b91565b92915050565b613bc681613016565b8114613bd157600080fd5b50565b600081519050613be381613bbd565b92915050565b600081519050613bf881612eca565b92915050565b600080600080600060a08688031215613c1a57613c19612e5d565b5b6000613c2888828901613ba8565b9550506020613c3988828901613bd4565b9450506040613c4a88828901613be9565b9350506060613c5b88828901613be9565b9250506080613c6c88828901613ba8565b9150509295509295909350565b7f45524332303a2064656372656173656420616c6c6f77616e63652062656c6f7760008201527f207a65726f000000000000000000000000000000000000000000000000000000602082015250565b6000613cd5602583612db6565b9150613ce082613c79565b604082019050919050565b60006020820190508181036000830152613d0481613cc8565b9050919050565b7f796f75206d7573742073656e642065786163746c79207468652062657420766160008201527f6c75650000000000000000000000000000000000000000000000000000000000602082015250565b6000613d67602383612db6565b9150613d7282613d0b565b604082019050919050565b60006020820190508181036000830152613d9681613d5a565b9050919050565b7f4f776e61626c653a206e6577206f776e657220697320746865207a65726f206160008201527f6464726573730000000000000000000000000000000000000000000000000000602082015250565b6000613df9602683612db6565b9150613e0482613d9d565b604082019050919050565b60006020820190508181036000830152613e2881613dec565b9050919050565b7f45524332303a206d696e7420746f20746865207a65726f206164647265737300600082015250565b6000613e65601f83612db6565b9150613e7082613e2f565b602082019050919050565b60006020820190508181036000830152613e9481613e58565b9050919050565b7f45524332303a20617070726f76652066726f6d20746865207a65726f2061646460008201527f7265737300000000000000000000000000000000000000000000000000000000602082015250565b6000613ef7602483612db6565b9150613f0282613e9b565b604082019050919050565b60006020820190508181036000830152613f2681613eea565b9050919050565b7f45524332303a20617070726f766520746f20746865207a65726f20616464726560008201527f7373000000000000000000000000000000000000000000000000000000000000602082015250565b6000613f89602283612db6565b9150613f9482613f2d565b604082019050919050565b60006020820190508181036000830152613fb881613f7c565b9050919050565b7f45524332303a207472616e736665722066726f6d20746865207a65726f20616460008201527f6472657373000000000000000000000000000000000000000000000000000000602082015250565b600061401b602583612db6565b915061402682613fbf565b604082019050919050565b6000602082019050818103600083015261404a8161400e565b9050919050565b7f45524332303a207472616e7366657220746f20746865207a65726f206164647260008201527f6573730000000000000000000000000000000000000000000000000000000000602082015250565b60006140ad602383612db6565b91506140b882614051565b604082019050919050565b600060208201905081810360008301526140dc816140a0565b9050919050565b7f45524332303a207472616e7366657220616d6f756e742065786365656473206260008201527f616c616e63650000000000000000000000000000000000000000000000000000602082015250565b600061413f602683612db6565b915061414a826140e3565b604082019050919050565b6000602082019050818103600083015261416e81614132565b905091905056fea26469706673582212206875f84443985b39d176ecd767887948864203c8dce7d77f16bc2f0ea867706c64736f6c63430008120033",
  "linkReferences": {},
  "deployedLinkReferences": {}
}