{
  "_format": "hh-sol-artifact-1",
  "contractName": "CryptoBet",
  "sourceName": "contracts/CryptoBet.sol",
  "abi": [
    {
      "inputs": [
        {
          "internalType": "address",
          "name": "_oracleAddress",
          "type": "address"
        }
      ],
      "stateMutability": "nonpayable",
      "type": "constructor"
    },
    {
      "anonymous": false,
      "inputs": [
        {
          "indexed": true,
          "internalType": "address",
          "name": "previousOwner",
          "type": "address"
        },
        {
          "indexed": true,
          "internalType": "address",
          "name": "newOwner",
          "type": "address"
        }
      ],
      "name": "OwnershipTransferred",
      "type": "event"
    },
    {
      "anonymous": false,
      "inputs": [
        {
          "indexed": false,
          "internalType": "address",
          "name": "userAddr",
          "type": "address"
        },
        {
          "indexed": false,
          "internalType": "bool",
          "name": "result",
          "type": "bool"
        }
      ],
      "name": "evt_betFinish",
      "type": "event"
    },
    {
      "anonymous": false,
      "inputs": [
        {
          "indexed": false,
          "internalType": "uint256",
          "name": "totalBet",
          "type": "uint256"
        },
        {
          "indexed": false,
          "internalType": "uint256",
          "name": "betBalance",
          "type": "uint256"
        }
      ],
      "name": "evt_newBet",
      "type": "event"
    },
    {
      "anonymous": false,
      "inputs": [
        {
          "indexed": false,
          "internalType": "uint256",
          "name": "winners",
          "type": "uint256"
        },
        {
          "indexed": false,
          "internalType": "uint256",
          "name": "totalBet",
          "type": "uint256"
        },
        {
          "indexed": false,
          "internalType": "int256",
          "name": "newPriceFeed",
          "type": "int256"
        }
      ],
      "name": "evt_nextRound",
      "type": "event"
    },
    {
      "stateMutability": "payable",
      "type": "fallback"
    },
    {
      "inputs": [],
      "name": "betValue",
      "outputs": [
        {
          "internalType": "uint256",
          "name": "",
          "type": "uint256"
        }
      ],
      "stateMutability": "view",
      "type": "function"
    },
    {
      "inputs": [],
      "name": "claimBet",
      "outputs": [],
      "stateMutability": "nonpayable",
      "type": "function"
    },
    {
      "inputs": [],
      "name": "currentBetBalance",
      "outputs": [
        {
          "internalType": "uint256",
          "name": "",
          "type": "uint256"
        }
      ],
      "stateMutability": "view",
      "type": "function"
    },
    {
      "inputs": [],
      "name": "currentPriceFeed",
      "outputs": [
        {
          "internalType": "int256",
          "name": "",
          "type": "int256"
        }
      ],
      "stateMutability": "view",
      "type": "function"
    },
    {
      "inputs": [],
      "name": "getBetters",
      "outputs": [
        {
          "internalType": "address[]",
          "name": "",
          "type": "address[]"
        }
      ],
      "stateMutability": "view",
      "type": "function"
    },
    {
      "inputs": [],
      "name": "getLatestPrice",
      "outputs": [
        {
          "internalType": "int256",
          "name": "",
          "type": "int256"
        }
      ],
      "stateMutability": "view",
      "type": "function"
    },
    {
      "inputs": [
        {
          "internalType": "address",
          "name": "_addr",
          "type": "address"
        }
      ],
      "name": "getOneBetter",
      "outputs": [
        {
          "components": [
            {
              "internalType": "uint256",
              "name": "betValue",
              "type": "uint256"
            },
            {
              "internalType": "uint256",
              "name": "balance",
              "type": "uint256"
            },
            {
              "internalType": "enum CryptoBet.Expectations",
              "name": "expectStatus",
              "type": "uint8"
            },
            {
              "internalType": "enum CryptoBet.BetStatus",
              "name": "betStatus",
              "type": "uint8"
            }
          ],
          "internalType": "struct CryptoBet.UserBet",
          "name": "",
          "type": "tuple"
        }
      ],
      "stateMutability": "view",
      "type": "function"
    },
    {
      "inputs": [],
      "name": "nextRound",
      "outputs": [],
      "stateMutability": "nonpayable",
      "type": "function"
    },
    {
      "inputs": [],
      "name": "owner",
      "outputs": [
        {
          "internalType": "address",
          "name": "",
          "type": "address"
        }
      ],
      "stateMutability": "view",
      "type": "function"
    },
    {
      "inputs": [
        {
          "internalType": "uint256",
          "name": "_expectation",
          "type": "uint256"
        }
      ],
      "name": "registerBet",
      "outputs": [],
      "stateMutability": "payable",
      "type": "function"
    },
    {
      "inputs": [],
      "name": "renounceOwnership",
      "outputs": [],
      "stateMutability": "nonpayable",
      "type": "function"
    },
    {
      "inputs": [
        {
          "internalType": "address",
          "name": "newOwner",
          "type": "address"
        }
      ],
      "name": "transferOwnership",
      "outputs": [],
      "stateMutability": "nonpayable",
      "type": "function"
    },
    {
      "stateMutability": "payable",
      "type": "receive"
    }
  ],
  "bytecode": "0x6080604052600a600555605a6006553480156200001b57600080fd5b5060405162002135380380620021358339818101604052810190620000419190620001df565b6200006162000055620000a960201b60201c565b620000b160201b60201c565b80600760006101000a81548173ffffffffffffffffffffffffffffffffffffffff021916908373ffffffffffffffffffffffffffffffffffffffff1602179055505062000211565b600033905090565b60008060009054906101000a900473ffffffffffffffffffffffffffffffffffffffff169050816000806101000a81548173ffffffffffffffffffffffffffffffffffffffff021916908373ffffffffffffffffffffffffffffffffffffffff1602179055508173ffffffffffffffffffffffffffffffffffffffff168173ffffffffffffffffffffffffffffffffffffffff167f8be0079c531659141344cd1fd0a4f28419497f9722a3daafe3b4186f6b6457e060405160405180910390a35050565b600080fd5b600073ffffffffffffffffffffffffffffffffffffffff82169050919050565b6000620001a7826200017a565b9050919050565b620001b9816200019a565b8114620001c557600080fd5b50565b600081519050620001d981620001ae565b92915050565b600060208284031215620001f857620001f762000175565b5b60006200020884828501620001c8565b91505092915050565b611f1480620002216000396000f3fe6080604052600436106100ab5760003560e01c80638e15f473116100645780638e15f4731461018c578063ab259f29146101b7578063af3fac40146101d3578063cc24b7dc146101fe578063f2fde38b14610229578063fbf9dab714610252576100b2565b80630e02dcd6146100b45780632fa950aa146100cb5780633e1bba5b146100f657806347e4055314610133578063715018a61461014a5780638da5cb5b14610161576100b2565b366100b257005b005b3480156100c057600080fd5b506100c961027d565b005b3480156100d757600080fd5b506100e061057a565b6040516100ed9190611511565b60405180910390f35b34801561010257600080fd5b5061011d6004803603810190610118919061158f565b610580565b60405161012a91906116e9565b60405180910390f35b34801561013f57600080fd5b50610148610663565b005b34801561015657600080fd5b5061015f610abb565b005b34801561016d57600080fd5b50610176610b43565b6040516101839190611713565b60405180910390f35b34801561019857600080fd5b506101a1610b6c565b6040516101ae9190611511565b60405180910390f35b6101d160048036038101906101cc919061175a565b610c0d565b005b3480156101df57600080fd5b506101e8610f17565b6040516101f59190611796565b60405180910390f35b34801561020a57600080fd5b50610213610f1d565b6040516102209190611796565b60405180910390f35b34801561023557600080fd5b50610250600480360381019061024b919061158f565b610f23565b005b34801561025e57600080fd5b5061026761101a565b604051610274919061186f565b60405180910390f35b60026003811115610291576102906115d5565b5b60038111156102a3576102a26115d5565b5b600160003373ffffffffffffffffffffffffffffffffffffffff1673ffffffffffffffffffffffffffffffffffffffff16815260200190815260200160002060020160019054906101000a900460ff166003811115610305576103046115d5565b5b1480610395575060038081111561031f5761031e6115d5565b5b6003811115610331576103306115d5565b5b600160003373ffffffffffffffffffffffffffffffffffffffff1673ffffffffffffffffffffffffffffffffffffffff16815260200190815260200160002060020160019054906101000a900460ff166003811115610393576103926115d5565b5b145b6103d4576040517f08c379a00000000000000000000000000000000000000000000000000000000081526004016103cb906118ee565b60405180910390fd5b6003808111156103e7576103e66115d5565b5b60038111156103f9576103f86115d5565b5b600160003373ffffffffffffffffffffffffffffffffffffffff1673ffffffffffffffffffffffffffffffffffffffff16815260200190815260200160002060020160019054906101000a900460ff16600381111561045b5761045a6115d5565b5b0361056f5760006064600654600160003373ffffffffffffffffffffffffffffffffffffffff1673ffffffffffffffffffffffffffffffffffffffff168152602001908152602001600020600101546104b4919061193d565b6104be91906119ae565b905060003373ffffffffffffffffffffffffffffffffffffffff16826040516104e690611a10565b60006040518083038185875af1925050503d8060008114610523576040519150601f19603f3d011682016040523d82523d6000602084013e610528565b606091505b505090508061056c576040517f08c379a000000000000000000000000000000000000000000000000000000000815260040161056390611a97565b60405180910390fd5b50505b610578336110a8565b565b60045481565b61058861146e565b600160008373ffffffffffffffffffffffffffffffffffffffff1673ffffffffffffffffffffffffffffffffffffffff16815260200190815260200160002060405180608001604052908160008201548152602001600182015481526020016002820160009054906101000a900460ff16600281111561060b5761060a6115d5565b5b600281111561061d5761061c6115d5565b5b81526020016002820160019054906101000a900460ff166003811115610646576106456115d5565b5b6003811115610658576106576115d5565b5b815250509050919050565b61066b6111db565b73ffffffffffffffffffffffffffffffffffffffff16610689610b43565b73ffffffffffffffffffffffffffffffffffffffff16146106df576040517f08c379a00000000000000000000000000000000000000000000000000000000081526004016106d690611b03565b60405180910390fd5b60006106e9610b6c565b90506000806106f7836111e3565b90508260048190555060005b600280549050811015610a5657816002811115610723576107226115d5565b5b600160006002848154811061073b5761073a611b23565b5b9060005260206000200160009054906101000a900473ffffffffffffffffffffffffffffffffffffffff1673ffffffffffffffffffffffffffffffffffffffff1673ffffffffffffffffffffffffffffffffffffffff16815260200190815260200160002060020160009054906101000a900460ff1660028111156107c3576107c26115d5565b5b0361090e576003808111156107db576107da6115d5565b5b60016000600284815481106107f3576107f2611b23565b5b9060005260206000200160009054906101000a900473ffffffffffffffffffffffffffffffffffffffff1673ffffffffffffffffffffffffffffffffffffffff1673ffffffffffffffffffffffffffffffffffffffff16815260200190815260200160002060020160016101000a81548160ff0219169083600381111561087d5761087c6115d5565b5b021790555060018361088f9190611b52565b92507fd07d7f6a78697c9d8a61e2607cfcbc8ea25155827e936a90fc54504e0208526e600282815481106108c6576108c5611b23565b5b9060005260206000200160009054906101000a900473ffffffffffffffffffffffffffffffffffffffff166001604051610901929190611ba1565b60405180910390a1610a42565b60026003811115610922576109216115d5565b5b600160006002848154811061093a57610939611b23565b5b9060005260206000200160009054906101000a900473ffffffffffffffffffffffffffffffffffffffff1673ffffffffffffffffffffffffffffffffffffffff1673ffffffffffffffffffffffffffffffffffffffff16815260200190815260200160002060020160016101000a81548160ff021916908360038111156109c4576109c36115d5565b5b02179055507fd07d7f6a78697c9d8a61e2607cfcbc8ea25155827e936a90fc54504e0208526e600282815481106109fe576109fd611b23565b5b9060005260206000200160009054906101000a900473ffffffffffffffffffffffffffffffffffffffff166000604051610a39929190611ba1565b60405180910390a15b600181610a4f9190611b52565b9050610703565b50610a6082611225565b7fb3b7405f06bcb481a4f08e8f208085ac12441ecab3ec34a4c3b5dc3a28d49b9c82600280549050600454604051610a9a93929190611bca565b60405180910390a160026000610ab091906114ba565b600360009055505050565b610ac36111db565b73ffffffffffffffffffffffffffffffffffffffff16610ae1610b43565b73ffffffffffffffffffffffffffffffffffffffff1614610b37576040517f08c379a0000000000000000000000000000000000000000000000000000000008152600401610b2e90611b03565b60405180910390fd5b610b4160006113aa565b565b60008060009054906101000a900473ffffffffffffffffffffffffffffffffffffffff16905090565b600080600760009054906101000a900473ffffffffffffffffffffffffffffffffffffffff1673ffffffffffffffffffffffffffffffffffffffff1663feaf968c6040518163ffffffff1660e01b815260040160a060405180830381865afa158015610bdc573d6000803e3d6000fd5b505050506040513d601f19601f82011682018060405250810190610c009190611c84565b5050509150508091505090565b60006003811115610c2157610c206115d5565b5b6003811115610c3357610c326115d5565b5b600160003373ffffffffffffffffffffffffffffffffffffffff1673ffffffffffffffffffffffffffffffffffffffff16815260200190815260200160002060020160019054906101000a900460ff166003811115610c9557610c946115d5565b5b14610cd5576040517f08c379a0000000000000000000000000000000000000000000000000000000008152600401610ccc90611d71565b60405180910390fd5b6005543414610d19576040517f08c379a0000000000000000000000000000000000000000000000000000000008152600401610d1090611e03565b60405180910390fd5b6002339080600181540180825580915050600190039060005260206000200160009091909190916101000a81548173ffffffffffffffffffffffffffffffffffffffff021916908373ffffffffffffffffffffffffffffffffffffffff160217905550600554600160003373ffffffffffffffffffffffffffffffffffffffff1673ffffffffffffffffffffffffffffffffffffffff16815260200190815260200160002060000181905550806002811115610dd857610dd76115d5565b5b600160003373ffffffffffffffffffffffffffffffffffffffff1673ffffffffffffffffffffffffffffffffffffffff16815260200190815260200160002060020160006101000a81548160ff02191690836002811115610e3c57610e3b6115d5565b5b021790555060016003811115610e5557610e546115d5565b5b600160003373ffffffffffffffffffffffffffffffffffffffff1673ffffffffffffffffffffffffffffffffffffffff16815260200190815260200160002060020160016101000a81548160ff02191690836003811115610eb957610eb86115d5565b5b0217905550600554600354610ece9190611b52565b6003819055507ff132a02a7e848622067d2d3a11139f2eeddecbec60fc732edc42595ba1572be6600280549050600354604051610f0c929190611e23565b60405180910390a150565b60055481565b60035481565b610f2b6111db565b73ffffffffffffffffffffffffffffffffffffffff16610f49610b43565b73ffffffffffffffffffffffffffffffffffffffff1614610f9f576040517f08c379a0000000000000000000000000000000000000000000000000000000008152600401610f9690611b03565b60405180910390fd5b600073ffffffffffffffffffffffffffffffffffffffff168173ffffffffffffffffffffffffffffffffffffffff160361100e576040517f08c379a000000000000000000000000000000000000000000000000000000000815260040161100590611ebe565b60405180910390fd5b611017816113aa565b50565b6060600280548060200260200160405190810160405280929190818152602001828054801561109e57602002820191906000526020600020905b8160009054906101000a900473ffffffffffffffffffffffffffffffffffffffff1673ffffffffffffffffffffffffffffffffffffffff1681526020019060010190808311611054575b5050505050905090565b600160008273ffffffffffffffffffffffffffffffffffffffff1673ffffffffffffffffffffffffffffffffffffffff16815260200190815260200160002060000160009055600160008273ffffffffffffffffffffffffffffffffffffffff1673ffffffffffffffffffffffffffffffffffffffff16815260200190815260200160002060020160006101000a81549060ff0219169055600160008273ffffffffffffffffffffffffffffffffffffffff1673ffffffffffffffffffffffffffffffffffffffff16815260200190815260200160002060010160009055600160003373ffffffffffffffffffffffffffffffffffffffff1673ffffffffffffffffffffffffffffffffffffffff16815260200190815260200160002060020160016101000a81549060ff021916905550565b600033905090565b600060045482131561120957600280811115611202576112016115d5565b5b9050611220565b6001600281111561121d5761121c6115d5565b5b90505b919050565b60005b6002805490508110156113a657600380811115611248576112476115d5565b5b600381111561125a576112596115d5565b5b600160006002848154811061127257611271611b23565b5b9060005260206000200160009054906101000a900473ffffffffffffffffffffffffffffffffffffffff1673ffffffffffffffffffffffffffffffffffffffff1673ffffffffffffffffffffffffffffffffffffffff16815260200190815260200160002060020160019054906101000a900460ff1660038111156112fa576112f96115d5565b5b03611392578160035461130d91906119ae565b600160006002848154811061132557611324611b23565b5b9060005260206000200160009054906101000a900473ffffffffffffffffffffffffffffffffffffffff1673ffffffffffffffffffffffffffffffffffffffff1673ffffffffffffffffffffffffffffffffffffffff168152602001908152602001600020600101819055505b60018161139f9190611b52565b9050611228565b5050565b60008060009054906101000a900473ffffffffffffffffffffffffffffffffffffffff169050816000806101000a81548173ffffffffffffffffffffffffffffffffffffffff021916908373ffffffffffffffffffffffffffffffffffffffff1602179055508173ffffffffffffffffffffffffffffffffffffffff168173ffffffffffffffffffffffffffffffffffffffff167f8be0079c531659141344cd1fd0a4f28419497f9722a3daafe3b4186f6b6457e060405160405180910390a35050565b604051806080016040528060008152602001600081526020016000600281111561149b5761149a6115d5565b5b8152602001600060038111156114b4576114b36115d5565b5b81525090565b50805460008255906000526020600020908101906114d891906114db565b50565b5b808211156114f45760008160009055506001016114dc565b5090565b6000819050919050565b61150b816114f8565b82525050565b60006020820190506115266000830184611502565b92915050565b600080fd5b600073ffffffffffffffffffffffffffffffffffffffff82169050919050565b600061155c82611531565b9050919050565b61156c81611551565b811461157757600080fd5b50565b60008135905061158981611563565b92915050565b6000602082840312156115a5576115a461152c565b5b60006115b38482850161157a565b91505092915050565b6000819050919050565b6115cf816115bc565b82525050565b7f4e487b7100000000000000000000000000000000000000000000000000000000600052602160045260246000fd5b60038110611615576116146115d5565b5b50565b600081905061162682611604565b919050565b600061163682611618565b9050919050565b6116468161162b565b82525050565b6004811061165d5761165c6115d5565b5b50565b600081905061166e8261164c565b919050565b600061167e82611660565b9050919050565b61168e81611673565b82525050565b6080820160008201516116aa60008501826115c6565b5060208201516116bd60208501826115c6565b5060408201516116d0604085018261163d565b5060608201516116e36060850182611685565b50505050565b60006080820190506116fe6000830184611694565b92915050565b61170d81611551565b82525050565b60006020820190506117286000830184611704565b92915050565b611737816115bc565b811461174257600080fd5b50565b6000813590506117548161172e565b92915050565b6000602082840312156117705761176f61152c565b5b600061177e84828501611745565b91505092915050565b611790816115bc565b82525050565b60006020820190506117ab6000830184611787565b92915050565b600081519050919050565b600082825260208201905092915050565b6000819050602082019050919050565b6117e681611551565b82525050565b60006117f883836117dd565b60208301905092915050565b6000602082019050919050565b600061181c826117b1565b61182681856117bc565b9350611831836117cd565b8060005b8381101561186257815161184988826117ec565b975061185483611804565b925050600181019050611835565b5085935050505092915050565b600060208201905081810360008301526118898184611811565b905092915050565b600082825260208201905092915050565b7f776169742074696c6c20796f757220626574206861732066696e697368656400600082015250565b60006118d8601f83611891565b91506118e3826118a2565b602082019050919050565b60006020820190508181036000830152611907816118cb565b9050919050565b7f4e487b7100000000000000000000000000000000000000000000000000000000600052601160045260246000fd5b6000611948826115bc565b9150611953836115bc565b9250828202611961816115bc565b915082820484148315176119785761197761190e565b5b5092915050565b7f4e487b7100000000000000000000000000000000000000000000000000000000600052601260045260246000fd5b60006119b9826115bc565b91506119c4836115bc565b9250826119d4576119d361197f565b5b828204905092915050565b600081905092915050565b50565b60006119fa6000836119df565b9150611a05826119ea565b600082019050919050565b6000611a1b826119ed565b9150819050919050565b7f526577617264207472616e73666572206661696c65642c20706c65617365207260008201527f6574727900000000000000000000000000000000000000000000000000000000602082015250565b6000611a81602483611891565b9150611a8c82611a25565b604082019050919050565b60006020820190508181036000830152611ab081611a74565b9050919050565b7f4f776e61626c653a2063616c6c6572206973206e6f7420746865206f776e6572600082015250565b6000611aed602083611891565b9150611af882611ab7565b602082019050919050565b60006020820190508181036000830152611b1c81611ae0565b9050919050565b7f4e487b7100000000000000000000000000000000000000000000000000000000600052603260045260246000fd5b6000611b5d826115bc565b9150611b68836115bc565b9250828201905080821115611b8057611b7f61190e565b5b92915050565b60008115159050919050565b611b9b81611b86565b82525050565b6000604082019050611bb66000830185611704565b611bc36020830184611b92565b9392505050565b6000606082019050611bdf6000830186611787565b611bec6020830185611787565b611bf96040830184611502565b949350505050565b600069ffffffffffffffffffff82169050919050565b611c2081611c01565b8114611c2b57600080fd5b50565b600081519050611c3d81611c17565b92915050565b611c4c816114f8565b8114611c5757600080fd5b50565b600081519050611c6981611c43565b92915050565b600081519050611c7e8161172e565b92915050565b600080600080600060a08688031215611ca057611c9f61152c565b5b6000611cae88828901611c2e565b9550506020611cbf88828901611c5a565b9450506040611cd088828901611c6f565b9350506060611ce188828901611c6f565b9250506080611cf288828901611c2e565b9150509295509295909350565b7f6d757374206e6f742062657474696e6720746f2065786563757465207468697360008201527f2066756e6374696f6e0000000000000000000000000000000000000000000000602082015250565b6000611d5b602983611891565b9150611d6682611cff565b604082019050919050565b60006020820190508181036000830152611d8a81611d4e565b9050919050565b7f796f75206d7573742073656e642065786163746c79207468652062657420766160008201527f6c75650000000000000000000000000000000000000000000000000000000000602082015250565b6000611ded602383611891565b9150611df882611d91565b604082019050919050565b60006020820190508181036000830152611e1c81611de0565b9050919050565b6000604082019050611e386000830185611787565b611e456020830184611787565b9392505050565b7f4f776e61626c653a206e6577206f776e657220697320746865207a65726f206160008201527f6464726573730000000000000000000000000000000000000000000000000000602082015250565b6000611ea8602683611891565b9150611eb382611e4c565b604082019050919050565b60006020820190508181036000830152611ed781611e9b565b905091905056fea264697066735822122050ebf473289ff95d3f685e779f8b871c5a7326752690a4ab2c141a622b5b5a6064736f6c63430008120033",
  "linkReferences": {},
  "deployedLinkReferences": {}
}