{
  "_format": "hh-sol-artifact-1",
  "contractName": "CryptoBet",
  "sourceName": "contracts/CryptoBet.sol",
  "abi": [
    {
      "inputs": [
        {
          "internalType": "address",
          "name": "_oracleAddress",
          "type": "address"
        }
      ],
      "stateMutability": "nonpayable",
      "type": "constructor"
    },
    {
      "anonymous": false,
      "inputs": [
        {
          "indexed": true,
          "internalType": "address",
          "name": "owner",
          "type": "address"
        },
        {
          "indexed": true,
          "internalType": "address",
          "name": "spender",
          "type": "address"
        },
        {
          "indexed": false,
          "internalType": "uint256",
          "name": "value",
          "type": "uint256"
        }
      ],
      "name": "Approval",
      "type": "event"
    },
    {
      "anonymous": false,
      "inputs": [
        {
          "indexed": true,
          "internalType": "address",
          "name": "previousOwner",
          "type": "address"
        },
        {
          "indexed": true,
          "internalType": "address",
          "name": "newOwner",
          "type": "address"
        }
      ],
      "name": "OwnershipTransferred",
      "type": "event"
    },
    {
      "anonymous": false,
      "inputs": [
        {
          "indexed": true,
          "internalType": "address",
          "name": "from",
          "type": "address"
        },
        {
          "indexed": true,
          "internalType": "address",
          "name": "to",
          "type": "address"
        },
        {
          "indexed": false,
          "internalType": "uint256",
          "name": "value",
          "type": "uint256"
        }
      ],
      "name": "Transfer",
      "type": "event"
    },
    {
      "anonymous": false,
      "inputs": [
        {
          "indexed": false,
          "internalType": "address",
          "name": "userAddr",
          "type": "address"
        },
        {
          "indexed": false,
          "internalType": "bool",
          "name": "result",
          "type": "bool"
        }
      ],
      "name": "evt_betFinish",
      "type": "event"
    },
    {
      "anonymous": false,
      "inputs": [
        {
          "indexed": false,
          "internalType": "address",
          "name": "userAddr",
          "type": "address"
        },
        {
          "indexed": false,
          "internalType": "uint256",
          "name": "totalBet",
          "type": "uint256"
        },
        {
          "indexed": false,
          "internalType": "uint256",
          "name": "betBalance",
          "type": "uint256"
        },
        {
          "indexed": false,
          "internalType": "bool",
          "name": "token",
          "type": "bool"
        }
      ],
      "name": "evt_newBet",
      "type": "event"
    },
    {
      "anonymous": false,
      "inputs": [
        {
          "indexed": false,
          "internalType": "uint256",
          "name": "winners",
          "type": "uint256"
        },
        {
          "indexed": false,
          "internalType": "uint256",
          "name": "winnersErc20",
          "type": "uint256"
        },
        {
          "indexed": false,
          "internalType": "uint256",
          "name": "loosers",
          "type": "uint256"
        },
        {
          "indexed": false,
          "internalType": "uint256",
          "name": "loosersErc20",
          "type": "uint256"
        },
        {
          "indexed": false,
          "internalType": "int256",
          "name": "newPriceFeed",
          "type": "int256"
        }
      ],
      "name": "evt_nextRound",
      "type": "event"
    },
    {
      "stateMutability": "payable",
      "type": "fallback"
    },
    {
      "inputs": [
        {
          "internalType": "address",
          "name": "owner",
          "type": "address"
        },
        {
          "internalType": "address",
          "name": "spender",
          "type": "address"
        }
      ],
      "name": "allowance",
      "outputs": [
        {
          "internalType": "uint256",
          "name": "",
          "type": "uint256"
        }
      ],
      "stateMutability": "view",
      "type": "function"
    },
    {
      "inputs": [
        {
          "internalType": "address",
          "name": "spender",
          "type": "address"
        },
        {
          "internalType": "uint256",
          "name": "amount",
          "type": "uint256"
        }
      ],
      "name": "approve",
      "outputs": [
        {
          "internalType": "bool",
          "name": "",
          "type": "bool"
        }
      ],
      "stateMutability": "nonpayable",
      "type": "function"
    },
    {
      "inputs": [
        {
          "internalType": "address",
          "name": "account",
          "type": "address"
        }
      ],
      "name": "balanceOf",
      "outputs": [
        {
          "internalType": "uint256",
          "name": "",
          "type": "uint256"
        }
      ],
      "stateMutability": "view",
      "type": "function"
    },
    {
      "inputs": [],
      "name": "betValue",
      "outputs": [
        {
          "internalType": "uint256",
          "name": "",
          "type": "uint256"
        }
      ],
      "stateMutability": "view",
      "type": "function"
    },
    {
      "inputs": [],
      "name": "claimBet",
      "outputs": [],
      "stateMutability": "nonpayable",
      "type": "function"
    },
    {
      "inputs": [],
      "name": "currentBetBalance",
      "outputs": [
        {
          "internalType": "uint256",
          "name": "",
          "type": "uint256"
        }
      ],
      "stateMutability": "view",
      "type": "function"
    },
    {
      "inputs": [],
      "name": "currentBetBalanceErc20",
      "outputs": [
        {
          "internalType": "uint256",
          "name": "",
          "type": "uint256"
        }
      ],
      "stateMutability": "view",
      "type": "function"
    },
    {
      "inputs": [],
      "name": "currentPriceFeed",
      "outputs": [
        {
          "internalType": "int256",
          "name": "",
          "type": "int256"
        }
      ],
      "stateMutability": "view",
      "type": "function"
    },
    {
      "inputs": [],
      "name": "decimals",
      "outputs": [
        {
          "internalType": "uint8",
          "name": "",
          "type": "uint8"
        }
      ],
      "stateMutability": "view",
      "type": "function"
    },
    {
      "inputs": [
        {
          "internalType": "address",
          "name": "spender",
          "type": "address"
        },
        {
          "internalType": "uint256",
          "name": "subtractedValue",
          "type": "uint256"
        }
      ],
      "name": "decreaseAllowance",
      "outputs": [
        {
          "internalType": "bool",
          "name": "",
          "type": "bool"
        }
      ],
      "stateMutability": "nonpayable",
      "type": "function"
    },
    {
      "inputs": [
        {
          "internalType": "uint256",
          "name": "_value",
          "type": "uint256"
        }
      ],
      "name": "drainTheFund",
      "outputs": [],
      "stateMutability": "nonpayable",
      "type": "function"
    },
    {
      "inputs": [],
      "name": "getBetters",
      "outputs": [
        {
          "internalType": "address[]",
          "name": "",
          "type": "address[]"
        }
      ],
      "stateMutability": "view",
      "type": "function"
    },
    {
      "inputs": [],
      "name": "getLatestPrice",
      "outputs": [
        {
          "internalType": "int256",
          "name": "",
          "type": "int256"
        }
      ],
      "stateMutability": "view",
      "type": "function"
    },
    {
      "inputs": [
        {
          "internalType": "address",
          "name": "_addr",
          "type": "address"
        }
      ],
      "name": "getOneBetter",
      "outputs": [
        {
          "components": [
            {
              "internalType": "uint256",
              "name": "betValue",
              "type": "uint256"
            },
            {
              "internalType": "uint256",
              "name": "balance",
              "type": "uint256"
            },
            {
              "internalType": "enum CryptoBet.Expectations",
              "name": "expectStatus",
              "type": "uint8"
            },
            {
              "internalType": "enum CryptoBet.BetStatus",
              "name": "betStatus",
              "type": "uint8"
            },
            {
              "internalType": "bool",
              "name": "token",
              "type": "bool"
            }
          ],
          "internalType": "struct CryptoBet.UserBet",
          "name": "",
          "type": "tuple"
        }
      ],
      "stateMutability": "view",
      "type": "function"
    },
    {
      "inputs": [
        {
          "internalType": "address",
          "name": "spender",
          "type": "address"
        },
        {
          "internalType": "uint256",
          "name": "addedValue",
          "type": "uint256"
        }
      ],
      "name": "increaseAllowance",
      "outputs": [
        {
          "internalType": "bool",
          "name": "",
          "type": "bool"
        }
      ],
      "stateMutability": "nonpayable",
      "type": "function"
    },
    {
      "inputs": [],
      "name": "mintEDFT",
      "outputs": [],
      "stateMutability": "nonpayable",
      "type": "function"
    },
    {
      "inputs": [],
      "name": "name",
      "outputs": [
        {
          "internalType": "string",
          "name": "",
          "type": "string"
        }
      ],
      "stateMutability": "view",
      "type": "function"
    },
    {
      "inputs": [],
      "name": "nextRound",
      "outputs": [],
      "stateMutability": "nonpayable",
      "type": "function"
    },
    {
      "inputs": [],
      "name": "owner",
      "outputs": [
        {
          "internalType": "address",
          "name": "",
          "type": "address"
        }
      ],
      "stateMutability": "view",
      "type": "function"
    },
    {
      "inputs": [
        {
          "internalType": "uint256",
          "name": "_expectation",
          "type": "uint256"
        }
      ],
      "name": "registerBet",
      "outputs": [],
      "stateMutability": "payable",
      "type": "function"
    },
    {
      "inputs": [
        {
          "internalType": "uint256",
          "name": "_expectation",
          "type": "uint256"
        }
      ],
      "name": "registerBetErc20",
      "outputs": [],
      "stateMutability": "nonpayable",
      "type": "function"
    },
    {
      "inputs": [],
      "name": "renounceOwnership",
      "outputs": [],
      "stateMutability": "nonpayable",
      "type": "function"
    },
    {
      "inputs": [],
      "name": "symbol",
      "outputs": [
        {
          "internalType": "string",
          "name": "",
          "type": "string"
        }
      ],
      "stateMutability": "view",
      "type": "function"
    },
    {
      "inputs": [],
      "name": "totalSupply",
      "outputs": [
        {
          "internalType": "uint256",
          "name": "",
          "type": "uint256"
        }
      ],
      "stateMutability": "view",
      "type": "function"
    },
    {
      "inputs": [
        {
          "internalType": "address",
          "name": "recipient",
          "type": "address"
        },
        {
          "internalType": "uint256",
          "name": "amount",
          "type": "uint256"
        }
      ],
      "name": "transfer",
      "outputs": [
        {
          "internalType": "bool",
          "name": "",
          "type": "bool"
        }
      ],
      "stateMutability": "nonpayable",
      "type": "function"
    },
    {
      "inputs": [
        {
          "internalType": "address",
          "name": "sender",
          "type": "address"
        },
        {
          "internalType": "address",
          "name": "recipient",
          "type": "address"
        },
        {
          "internalType": "uint256",
          "name": "amount",
          "type": "uint256"
        }
      ],
      "name": "transferFrom",
      "outputs": [
        {
          "internalType": "bool",
          "name": "",
          "type": "bool"
        }
      ],
      "stateMutability": "nonpayable",
      "type": "function"
    },
    {
      "inputs": [
        {
          "internalType": "address",
          "name": "newOwner",
          "type": "address"
        }
      ],
      "name": "transferOwnership",
      "outputs": [],
      "stateMutability": "nonpayable",
      "type": "function"
    },
    {
      "stateMutability": "payable",
      "type": "receive"
    }
  ],
  "bytecode": "0x6080604052600a600b55605a600c553480156200001b57600080fd5b5060405162004a1f38038062004a1f83398181016040528101906200004191906200040f565b6040518060400160405280601181526020017f456173794461707046726565546f6b656e0000000000000000000000000000008152506040518060400160405280600481526020017f4544465400000000000000000000000000000000000000000000000000000000815250620000cd620000c16200015660201b60201c565b6200015e60201b60201c565b8160049081620000de9190620006bb565b508060059081620000f09190620006bb565b50505080600d60016101000a81548173ffffffffffffffffffffffffffffffffffffffff021916908373ffffffffffffffffffffffffffffffffffffffff1602179055506200014f33683635c9adc5dea000006200022260201b60201c565b50620008bd565b600033905090565b60008060009054906101000a900473ffffffffffffffffffffffffffffffffffffffff169050816000806101000a81548173ffffffffffffffffffffffffffffffffffffffff021916908373ffffffffffffffffffffffffffffffffffffffff1602179055508173ffffffffffffffffffffffffffffffffffffffff168173ffffffffffffffffffffffffffffffffffffffff167f8be0079c531659141344cd1fd0a4f28419497f9722a3daafe3b4186f6b6457e060405160405180910390a35050565b600073ffffffffffffffffffffffffffffffffffffffff168273ffffffffffffffffffffffffffffffffffffffff160362000294576040517f08c379a00000000000000000000000000000000000000000000000000000000081526004016200028b9062000803565b60405180910390fd5b620002a8600083836200039b60201b60201c565b8060036000828254620002bc919062000854565b9250508190555080600160008473ffffffffffffffffffffffffffffffffffffffff1673ffffffffffffffffffffffffffffffffffffffff168152602001908152602001600020600082825462000314919062000854565b925050819055508173ffffffffffffffffffffffffffffffffffffffff16600073ffffffffffffffffffffffffffffffffffffffff167fddf252ad1be2c89b69c2b068fc378daa952ba7f163c4a11628f55a4df523b3ef836040516200037b9190620008a0565b60405180910390a36200039760008383620003a060201b60201c565b5050565b505050565b505050565b600080fd5b600073ffffffffffffffffffffffffffffffffffffffff82169050919050565b6000620003d782620003aa565b9050919050565b620003e981620003ca565b8114620003f557600080fd5b50565b6000815190506200040981620003de565b92915050565b600060208284031215620004285762000427620003a5565b5b60006200043884828501620003f8565b91505092915050565b600081519050919050565b7f4e487b7100000000000000000000000000000000000000000000000000000000600052604160045260246000fd5b7f4e487b7100000000000000000000000000000000000000000000000000000000600052602260045260246000fd5b60006002820490506001821680620004c357607f821691505b602082108103620004d957620004d86200047b565b5b50919050565b60008190508160005260206000209050919050565b60006020601f8301049050919050565b600082821b905092915050565b600060088302620005437fffffffffffffffffffffffffffffffffffffffffffffffffffffffffffffffff8262000504565b6200054f868362000504565b95508019841693508086168417925050509392505050565b6000819050919050565b6000819050919050565b60006200059c62000596620005908462000567565b62000571565b62000567565b9050919050565b6000819050919050565b620005b8836200057b565b620005d0620005c782620005a3565b84845462000511565b825550505050565b600090565b620005e7620005d8565b620005f4818484620005ad565b505050565b5b818110156200061c5762000610600082620005dd565b600181019050620005fa565b5050565b601f8211156200066b576200063581620004df565b6200064084620004f4565b8101602085101562000650578190505b620006686200065f85620004f4565b830182620005f9565b50505b505050565b600082821c905092915050565b6000620006906000198460080262000670565b1980831691505092915050565b6000620006ab83836200067d565b9150826002028217905092915050565b620006c68262000441565b67ffffffffffffffff811115620006e257620006e16200044c565b5b620006ee8254620004aa565b620006fb82828562000620565b600060209050601f8311600181146200073357600084156200071e578287015190505b6200072a85826200069d565b8655506200079a565b601f1984166200074386620004df565b60005b828110156200076d5784890151825560018201915060208501945060208101905062000746565b868310156200078d578489015162000789601f8916826200067d565b8355505b6001600288020188555050505b505050505050565b600082825260208201905092915050565b7f45524332303a206d696e7420746f20746865207a65726f206164647265737300600082015250565b6000620007eb601f83620007a2565b9150620007f882620007b3565b602082019050919050565b600060208201905081810360008301526200081e81620007dc565b9050919050565b7f4e487b7100000000000000000000000000000000000000000000000000000000600052601160045260246000fd5b6000620008618262000567565b91506200086e8362000567565b925082820190508082111562000889576200088862000825565b5b92915050565b6200089a8162000567565b82525050565b6000602082019050620008b760008301846200088f565b92915050565b61415280620008cd6000396000f3fe6080604052600436106101a05760003560e01c806370a08231116100ec578063ab259f291161008a578063dd62ed3e11610064578063dd62ed3e146105a1578063f2fde38b146105de578063fbf9dab714610607578063febfba3e14610632576101a7565b8063ab259f291461052f578063af3fac401461054b578063cc24b7dc14610576576101a7565b80638e15f473116100c65780638e15f4731461045f57806395d89b411461048a578063a457c2d7146104b5578063a9059cbb146104f2576101a7565b806370a08231146103e0578063715018a61461041d5780638da5cb5b14610434576101a7565b806323b872dd11610159578063395093511161013357806339509351146103265780633e1bba5b1461036357806347e40553146103a05780636a25a8ef146103b7576101a7565b806323b872dd146102935780632fa950aa146102d0578063313ce567146102fb576101a7565b806301d386bc146101a957806306fdde03146101c0578063095ea7b3146101eb5780630e02dcd61461022857806318160ddd1461023f5780632086fde21461026a576101a7565b366101a757005b005b3480156101b557600080fd5b506101be61065d565b005b3480156101cc57600080fd5b506101d56106ca565b6040516101e29190612e74565b60405180910390f35b3480156101f757600080fd5b50610212600480360381019061020d9190612f2f565b61075c565b60405161021f9190612f8a565b60405180910390f35b34801561023457600080fd5b5061023d61077a565b005b34801561024b57600080fd5b50610254610b8d565b6040516102619190612fb4565b60405180910390f35b34801561027657600080fd5b50610291600480360381019061028c9190612fcf565b610b97565b005b34801561029f57600080fd5b506102ba60048036038101906102b59190612ffc565b610cc3565b6040516102c79190612f8a565b60405180910390f35b3480156102dc57600080fd5b506102e5610dbb565b6040516102f29190613068565b60405180910390f35b34801561030757600080fd5b50610310610dc1565b60405161031d919061309f565b60405180910390f35b34801561033257600080fd5b5061034d60048036038101906103489190612f2f565b610dca565b60405161035a9190612f8a565b60405180910390f35b34801561036f57600080fd5b5061038a600480360381019061038591906130ba565b610e76565b604051610397919061322c565b60405180910390f35b3480156103ac57600080fd5b506103b5610f74565b005b3480156103c357600080fd5b506103de60048036038101906103d99190612fcf565b611545565b005b3480156103ec57600080fd5b50610407600480360381019061040291906130ba565b611994565b6040516104149190612fb4565b60405180910390f35b34801561042957600080fd5b506104326119dd565b005b34801561044057600080fd5b50610449611a65565b6040516104569190613256565b60405180910390f35b34801561046b57600080fd5b50610474611a8e565b6040516104819190613068565b60405180910390f35b34801561049657600080fd5b5061049f611b2f565b6040516104ac9190612e74565b60405180910390f35b3480156104c157600080fd5b506104dc60048036038101906104d79190612f2f565b611bc1565b6040516104e99190612f8a565b60405180910390f35b3480156104fe57600080fd5b5061051960048036038101906105149190612f2f565b611cac565b6040516105269190612f8a565b60405180910390f35b61054960048036038101906105449190612fcf565b611cca565b005b34801561055757600080fd5b50610560612034565b60405161056d9190612fb4565b60405180910390f35b34801561058257600080fd5b5061058b61203a565b6040516105989190612fb4565b60405180910390f35b3480156105ad57600080fd5b506105c860048036038101906105c39190613271565b612040565b6040516105d59190612fb4565b60405180910390f35b3480156105ea57600080fd5b50610605600480360381019061060091906130ba565b6120c7565b005b34801561061357600080fd5b5061061c6121be565b604051610629919061336f565b60405180910390f35b34801561063e57600080fd5b5061064761224c565b6040516106549190612fb4565b60405180910390f35b6003600b5461066c91906133c0565b61067533611994565b106106b5576040517f08c379a00000000000000000000000000000000000000000000000000000000081526004016106ac9061344e565b60405180910390fd5b6106c8336801a055690d9db80000612252565b565b6060600480546106d99061349d565b80601f01602080910402602001604051908101604052809291908181526020018280546107059061349d565b80156107525780601f1061072757610100808354040283529160200191610752565b820191906000526020600020905b81548152906001019060200180831161073557829003601f168201915b5050505050905090565b60006107706107696123b2565b84846123ba565b6001905092915050565b6002600381111561078e5761078d6130f6565b5b60038111156107a05761079f6130f6565b5b600660003373ffffffffffffffffffffffffffffffffffffffff1673ffffffffffffffffffffffffffffffffffffffff16815260200190815260200160002060020160019054906101000a900460ff166003811115610802576108016130f6565b5b1480610892575060038081111561081c5761081b6130f6565b5b600381111561082e5761082d6130f6565b5b600660003373ffffffffffffffffffffffffffffffffffffffff1673ffffffffffffffffffffffffffffffffffffffff16815260200190815260200160002060020160019054906101000a900460ff1660038111156108905761088f6130f6565b5b145b6108d1576040517f08c379a00000000000000000000000000000000000000000000000000000000081526004016108c89061351a565b60405180910390fd5b6003808111156108e4576108e36130f6565b5b60038111156108f6576108f56130f6565b5b600660003373ffffffffffffffffffffffffffffffffffffffff1673ffffffffffffffffffffffffffffffffffffffff16815260200190815260200160002060020160019054906101000a900460ff166003811115610958576109576130f6565b5b148015610978575060001515600d60009054906101000a900460ff161515145b15610b67576001600d60006101000a81548160ff02191690831515021790555060011515600660003373ffffffffffffffffffffffffffffffffffffffff1673ffffffffffffffffffffffffffffffffffffffff16815260200190815260200160002060020160029054906101000a900460ff16151503610a5757610a5233670de0b6b3a7640000600660003373ffffffffffffffffffffffffffffffffffffffff1673ffffffffffffffffffffffffffffffffffffffff16815260200190815260200160002060010154610a4d91906133c0565b612252565b610b66565b60006064600c54600660003373ffffffffffffffffffffffffffffffffffffffff1673ffffffffffffffffffffffffffffffffffffffff16815260200190815260200160002060010154610aab91906133c0565b610ab59190613569565b905060003373ffffffffffffffffffffffffffffffffffffffff1682604051610add906135cb565b60006040518083038185875af1925050503d8060008114610b1a576040519150601f19603f3d011682016040523d82523d6000602084013e610b1f565b606091505b5050905080610b63576040517f08c379a0000000000000000000000000000000000000000000000000000000008152600401610b5a90613652565b60405180910390fd5b50505b5b610b7033612583565b6000600d60006101000a81548160ff021916908315150217905550565b6000600354905090565b610b9f6123b2565b73ffffffffffffffffffffffffffffffffffffffff16610bbd611a65565b73ffffffffffffffffffffffffffffffffffffffff1614610c13576040517f08c379a0000000000000000000000000000000000000000000000000000000008152600401610c0a906136be565b60405180910390fd5b60003373ffffffffffffffffffffffffffffffffffffffff1682604051610c39906135cb565b60006040518083038185875af1925050503d8060008114610c76576040519150601f19603f3d011682016040523d82523d6000602084013e610c7b565b606091505b5050905080610cbf576040517f08c379a0000000000000000000000000000000000000000000000000000000008152600401610cb690613750565b60405180910390fd5b5050565b6000610cd0848484612708565b6000600260008673ffffffffffffffffffffffffffffffffffffffff1673ffffffffffffffffffffffffffffffffffffffff1681526020019081526020016000206000610d1b6123b2565b73ffffffffffffffffffffffffffffffffffffffff1673ffffffffffffffffffffffffffffffffffffffff16815260200190815260200160002054905082811015610d9b576040517f08c379a0000000000000000000000000000000000000000000000000000000008152600401610d92906137e2565b60405180910390fd5b610daf85610da76123b2565b8584036123ba565b60019150509392505050565b600a5481565b60006012905090565b6000610e6c610dd76123b2565b848460026000610de56123b2565b73ffffffffffffffffffffffffffffffffffffffff1673ffffffffffffffffffffffffffffffffffffffff16815260200190815260200160002060008873ffffffffffffffffffffffffffffffffffffffff1673ffffffffffffffffffffffffffffffffffffffff16815260200190815260200160002054610e679190613802565b6123ba565b6001905092915050565b610e7e612d51565b600660008373ffffffffffffffffffffffffffffffffffffffff1673ffffffffffffffffffffffffffffffffffffffff1681526020019081526020016000206040518060a001604052908160008201548152602001600182015481526020016002820160009054906101000a900460ff166002811115610f0157610f006130f6565b5b6002811115610f1357610f126130f6565b5b81526020016002820160019054906101000a900460ff166003811115610f3c57610f3b6130f6565b5b6003811115610f4e57610f4d6130f6565b5b81526020016002820160029054906101000a900460ff1615151515815250509050919050565b610f7c6123b2565b73ffffffffffffffffffffffffffffffffffffffff16610f9a611a65565b73ffffffffffffffffffffffffffffffffffffffff1614610ff0576040517f08c379a0000000000000000000000000000000000000000000000000000000008152600401610fe7906136be565b60405180910390fd5b6000610ffa611a8e565b9050600080600080600061100d8661298a565b905085600a8190555060005b6007805490508110156114d757816002811115611039576110386130f6565b5b600660006007848154811061105157611050613836565b5b9060005260206000200160009054906101000a900473ffffffffffffffffffffffffffffffffffffffff1673ffffffffffffffffffffffffffffffffffffffff1673ffffffffffffffffffffffffffffffffffffffff16815260200190815260200160002060020160009054906101000a900460ff1660028111156110d9576110d86130f6565b5b036112d2576003808111156110f1576110f06130f6565b5b600660006007848154811061110957611108613836565b5b9060005260206000200160009054906101000a900473ffffffffffffffffffffffffffffffffffffffff1673ffffffffffffffffffffffffffffffffffffffff1673ffffffffffffffffffffffffffffffffffffffff16815260200190815260200160002060020160016101000a81548160ff02191690836003811115611193576111926130f6565b5b02179055506001151560066000600784815481106111b4576111b3613836565b5b9060005260206000200160009054906101000a900473ffffffffffffffffffffffffffffffffffffffff1673ffffffffffffffffffffffffffffffffffffffff1673ffffffffffffffffffffffffffffffffffffffff16815260200190815260200160002060020160029054906101000a900460ff161515036112455760018561123e9190613802565b9450611255565b6001866112529190613802565b95505b7fd07d7f6a78697c9d8a61e2607cfcbc8ea25155827e936a90fc54504e0208526e6007828154811061128a57611289613836565b5b9060005260206000200160009054906101000a900473ffffffffffffffffffffffffffffffffffffffff1660016040516112c5929190613865565b60405180910390a16114c3565b600260038111156112e6576112e56130f6565b5b60066000600784815481106112fe576112fd613836565b5b9060005260206000200160009054906101000a900473ffffffffffffffffffffffffffffffffffffffff1673ffffffffffffffffffffffffffffffffffffffff1673ffffffffffffffffffffffffffffffffffffffff16815260200190815260200160002060020160016101000a81548160ff02191690836003811115611388576113876130f6565b5b02179055506001151560066000600784815481106113a9576113a8613836565b5b9060005260206000200160009054906101000a900473ffffffffffffffffffffffffffffffffffffffff1673ffffffffffffffffffffffffffffffffffffffff1673ffffffffffffffffffffffffffffffffffffffff16815260200190815260200160002060020160029054906101000a900460ff1615150361143a576001836114339190613802565b925061144a565b6001846114479190613802565b93505b7fd07d7f6a78697c9d8a61e2607cfcbc8ea25155827e936a90fc54504e0208526e6007828154811061147f5761147e613836565b5b9060005260206000200160009054906101000a900473ffffffffffffffffffffffffffffffffffffffff1660006040516114ba929190613865565b60405180910390a15b6001816114d09190613802565b9050611019565b506114e285856129cc565b7fa1351cd2eb21c920d63e56d59a0f565fbe4888fc7766ea27a1285eb589c4030b85858585600a5460405161151b95949392919061388e565b60405180910390a1600760006115319190612da6565b600860009055600960009055505050505050565b60006003811115611559576115586130f6565b5b600381111561156b5761156a6130f6565b5b600660003373ffffffffffffffffffffffffffffffffffffffff1673ffffffffffffffffffffffffffffffffffffffff16815260200190815260200160002060020160019054906101000a900460ff1660038111156115cd576115cc6130f6565b5b1461160d576040517f08c379a000000000000000000000000000000000000000000000000000000000815260040161160490613953565b60405180910390fd5b600b5461161933611994565b101561165a576040517f08c379a0000000000000000000000000000000000000000000000000000000008152600401611651906139bf565b60405180910390fd5b612710600780549050106116a3576040517f08c379a000000000000000000000000000000000000000000000000000000000815260040161169a90613a2b565b60405180910390fd5b6116c233670de0b6b3a7640000600b546116bd91906133c0565b610dca565b5060006116ec336116d1611a65565b670de0b6b3a7640000600b546116e791906133c0565b610cc3565b90506001151581151514611735576040517f08c379a000000000000000000000000000000000000000000000000000000000815260040161172c90613abd565b60405180910390fd5b6007339080600181540180825580915050600190039060005260206000200160009091909190916101000a81548173ffffffffffffffffffffffffffffffffffffffff021916908373ffffffffffffffffffffffffffffffffffffffff160217905550600b54600660003373ffffffffffffffffffffffffffffffffffffffff1673ffffffffffffffffffffffffffffffffffffffff168152602001908152602001600020600001819055508160028111156117f4576117f36130f6565b5b600660003373ffffffffffffffffffffffffffffffffffffffff1673ffffffffffffffffffffffffffffffffffffffff16815260200190815260200160002060020160006101000a81548160ff02191690836002811115611858576118576130f6565b5b021790555060016003811115611871576118706130f6565b5b600660003373ffffffffffffffffffffffffffffffffffffffff1673ffffffffffffffffffffffffffffffffffffffff16815260200190815260200160002060020160016101000a81548160ff021916908360038111156118d5576118d46130f6565b5b02179055506001600660003373ffffffffffffffffffffffffffffffffffffffff1673ffffffffffffffffffffffffffffffffffffffff16815260200190815260200160002060020160026101000a81548160ff021916908315150217905550600b546009546119459190613802565b6009819055507f53a2d159a5c443ff6dcbefb0ff3d6bf55ad19ba8ed20c64052f01b85460f0acc3360078054905060095460016040516119889493929190613add565b60405180910390a15050565b6000600160008373ffffffffffffffffffffffffffffffffffffffff1673ffffffffffffffffffffffffffffffffffffffff168152602001908152602001600020549050919050565b6119e56123b2565b73ffffffffffffffffffffffffffffffffffffffff16611a03611a65565b73ffffffffffffffffffffffffffffffffffffffff1614611a59576040517f08c379a0000000000000000000000000000000000000000000000000000000008152600401611a50906136be565b60405180910390fd5b611a636000612c83565b565b60008060009054906101000a900473ffffffffffffffffffffffffffffffffffffffff16905090565b600080600d60019054906101000a900473ffffffffffffffffffffffffffffffffffffffff1673ffffffffffffffffffffffffffffffffffffffff1663feaf968c6040518163ffffffff1660e01b815260040160a060405180830381865afa158015611afe573d6000803e3d6000fd5b505050506040513d601f19601f82011682018060405250810190611b229190613ba5565b5050509150508091505090565b606060058054611b3e9061349d565b80601f0160208091040260200160405190810160405280929190818152602001828054611b6a9061349d565b8015611bb75780601f10611b8c57610100808354040283529160200191611bb7565b820191906000526020600020905b815481529060010190602001808311611b9a57829003601f168201915b5050505050905090565b60008060026000611bd06123b2565b73ffffffffffffffffffffffffffffffffffffffff1673ffffffffffffffffffffffffffffffffffffffff16815260200190815260200160002060008573ffffffffffffffffffffffffffffffffffffffff1673ffffffffffffffffffffffffffffffffffffffff16815260200190815260200160002054905082811015611c8d576040517f08c379a0000000000000000000000000000000000000000000000000000000008152600401611c8490613c92565b60405180910390fd5b611ca1611c986123b2565b858584036123ba565b600191505092915050565b6000611cc0611cb96123b2565b8484612708565b6001905092915050565b60006003811115611cde57611cdd6130f6565b5b6003811115611cf057611cef6130f6565b5b600660003373ffffffffffffffffffffffffffffffffffffffff1673ffffffffffffffffffffffffffffffffffffffff16815260200190815260200160002060020160019054906101000a900460ff166003811115611d5257611d516130f6565b5b14611d92576040517f08c379a0000000000000000000000000000000000000000000000000000000008152600401611d8990613953565b60405180910390fd5b670de0b6b3a76400003414611ddc576040517f08c379a0000000000000000000000000000000000000000000000000000000008152600401611dd390613d24565b60405180910390fd5b61271060078054905010611e25576040517f08c379a0000000000000000000000000000000000000000000000000000000008152600401611e1c90613a2b565b60405180910390fd5b6007339080600181540180825580915050600190039060005260206000200160009091909190916101000a81548173ffffffffffffffffffffffffffffffffffffffff021916908373ffffffffffffffffffffffffffffffffffffffff160217905550670de0b6b3a7640000600660003373ffffffffffffffffffffffffffffffffffffffff1673ffffffffffffffffffffffffffffffffffffffff16815260200190815260200160002060000181905550806002811115611eea57611ee96130f6565b5b600660003373ffffffffffffffffffffffffffffffffffffffff1673ffffffffffffffffffffffffffffffffffffffff16815260200190815260200160002060020160006101000a81548160ff02191690836002811115611f4e57611f4d6130f6565b5b021790555060016003811115611f6757611f666130f6565b5b600660003373ffffffffffffffffffffffffffffffffffffffff1673ffffffffffffffffffffffffffffffffffffffff16815260200190815260200160002060020160016101000a81548160ff02191690836003811115611fcb57611fca6130f6565b5b0217905550670de0b6b3a7640000600854611fe69190613802565b6008819055507f53a2d159a5c443ff6dcbefb0ff3d6bf55ad19ba8ed20c64052f01b85460f0acc3360078054905060085460006040516120299493929190613add565b60405180910390a150565b600b5481565b60085481565b6000600260008473ffffffffffffffffffffffffffffffffffffffff1673ffffffffffffffffffffffffffffffffffffffff16815260200190815260200160002060008373ffffffffffffffffffffffffffffffffffffffff1673ffffffffffffffffffffffffffffffffffffffff16815260200190815260200160002054905092915050565b6120cf6123b2565b73ffffffffffffffffffffffffffffffffffffffff166120ed611a65565b73ffffffffffffffffffffffffffffffffffffffff1614612143576040517f08c379a000000000000000000000000000000000000000000000000000000000815260040161213a906136be565b60405180910390fd5b600073ffffffffffffffffffffffffffffffffffffffff168173ffffffffffffffffffffffffffffffffffffffff16036121b2576040517f08c379a00000000000000000000000000000000000000000000000000000000081526004016121a990613db6565b60405180910390fd5b6121bb81612c83565b50565b6060600780548060200260200160405190810160405280929190818152602001828054801561224257602002820191906000526020600020905b8160009054906101000a900473ffffffffffffffffffffffffffffffffffffffff1673ffffffffffffffffffffffffffffffffffffffff16815260200190600101908083116121f8575b5050505050905090565b60095481565b600073ffffffffffffffffffffffffffffffffffffffff168273ffffffffffffffffffffffffffffffffffffffff16036122c1576040517f08c379a00000000000000000000000000000000000000000000000000000000081526004016122b890613e22565b60405180910390fd5b6122cd60008383612d47565b80600360008282546122df9190613802565b9250508190555080600160008473ffffffffffffffffffffffffffffffffffffffff1673ffffffffffffffffffffffffffffffffffffffff16815260200190815260200160002060008282546123359190613802565b925050819055508173ffffffffffffffffffffffffffffffffffffffff16600073ffffffffffffffffffffffffffffffffffffffff167fddf252ad1be2c89b69c2b068fc378daa952ba7f163c4a11628f55a4df523b3ef8360405161239a9190612fb4565b60405180910390a36123ae60008383612d4c565b5050565b600033905090565b600073ffffffffffffffffffffffffffffffffffffffff168373ffffffffffffffffffffffffffffffffffffffff1603612429576040517f08c379a000000000000000000000000000000000000000000000000000000000815260040161242090613eb4565b60405180910390fd5b600073ffffffffffffffffffffffffffffffffffffffff168273ffffffffffffffffffffffffffffffffffffffff1603612498576040517f08c379a000000000000000000000000000000000000000000000000000000000815260040161248f90613f46565b60405180910390fd5b80600260008573ffffffffffffffffffffffffffffffffffffffff1673ffffffffffffffffffffffffffffffffffffffff16815260200190815260200160002060008473ffffffffffffffffffffffffffffffffffffffff1673ffffffffffffffffffffffffffffffffffffffff168152602001908152602001600020819055508173ffffffffffffffffffffffffffffffffffffffff168373ffffffffffffffffffffffffffffffffffffffff167f8c5be1e5ebec7d5bd14f71427d1e84f3dd0314c0f7b2291e5b200ac8c7c3b925836040516125769190612fb4565b60405180910390a3505050565b600660008273ffffffffffffffffffffffffffffffffffffffff1673ffffffffffffffffffffffffffffffffffffffff16815260200190815260200160002060000160009055600660008273ffffffffffffffffffffffffffffffffffffffff1673ffffffffffffffffffffffffffffffffffffffff16815260200190815260200160002060020160006101000a81549060ff0219169055600660008273ffffffffffffffffffffffffffffffffffffffff1673ffffffffffffffffffffffffffffffffffffffff16815260200190815260200160002060010160009055600660008273ffffffffffffffffffffffffffffffffffffffff1673ffffffffffffffffffffffffffffffffffffffff16815260200190815260200160002060020160016101000a81549060ff0219169055600660008273ffffffffffffffffffffffffffffffffffffffff1673ffffffffffffffffffffffffffffffffffffffff16815260200190815260200160002060020160026101000a81549060ff021916905550565b600073ffffffffffffffffffffffffffffffffffffffff168373ffffffffffffffffffffffffffffffffffffffff1603612777576040517f08c379a000000000000000000000000000000000000000000000000000000000815260040161276e90613fd8565b60405180910390fd5b600073ffffffffffffffffffffffffffffffffffffffff168273ffffffffffffffffffffffffffffffffffffffff16036127e6576040517f08c379a00000000000000000000000000000000000000000000000000000000081526004016127dd9061406a565b60405180910390fd5b6127f1838383612d47565b6000600160008573ffffffffffffffffffffffffffffffffffffffff1673ffffffffffffffffffffffffffffffffffffffff16815260200190815260200160002054905081811015612878576040517f08c379a000000000000000000000000000000000000000000000000000000000815260040161286f906140fc565b60405180910390fd5b818103600160008673ffffffffffffffffffffffffffffffffffffffff1673ffffffffffffffffffffffffffffffffffffffff1681526020019081526020016000208190555081600160008573ffffffffffffffffffffffffffffffffffffffff1673ffffffffffffffffffffffffffffffffffffffff168152602001908152602001600020600082825461290d9190613802565b925050819055508273ffffffffffffffffffffffffffffffffffffffff168473ffffffffffffffffffffffffffffffffffffffff167fddf252ad1be2c89b69c2b068fc378daa952ba7f163c4a11628f55a4df523b3ef846040516129719190612fb4565b60405180910390a3612984848484612d4c565b50505050565b6000600a548213156129b0576002808111156129a9576129a86130f6565b5b90506129c7565b600160028111156129c4576129c36130f6565b5b90505b919050565b60005b600780549050811015612c7e576003808111156129ef576129ee6130f6565b5b6003811115612a0157612a006130f6565b5b6006600060078481548110612a1957612a18613836565b5b9060005260206000200160009054906101000a900473ffffffffffffffffffffffffffffffffffffffff1673ffffffffffffffffffffffffffffffffffffffff1673ffffffffffffffffffffffffffffffffffffffff16815260200190815260200160002060020160019054906101000a900460ff166003811115612aa157612aa06130f6565b5b03612c6a57600115156006600060078481548110612ac257612ac1613836565b5b9060005260206000200160009054906101000a900473ffffffffffffffffffffffffffffffffffffffff1673ffffffffffffffffffffffffffffffffffffffff1673ffffffffffffffffffffffffffffffffffffffff16815260200190815260200160002060020160029054906101000a900460ff16151503612bd65781600954612b4d9190613569565b6006600060078481548110612b6557612b64613836565b5b9060005260206000200160009054906101000a900473ffffffffffffffffffffffffffffffffffffffff1673ffffffffffffffffffffffffffffffffffffffff1673ffffffffffffffffffffffffffffffffffffffff16815260200190815260200160002060010181905550612c69565b82600854612be49190613569565b6006600060078481548110612bfc57612bfb613836565b5b9060005260206000200160009054906101000a900473ffffffffffffffffffffffffffffffffffffffff1673ffffffffffffffffffffffffffffffffffffffff1673ffffffffffffffffffffffffffffffffffffffff168152602001908152602001600020600101819055505b5b600181612c779190613802565b90506129cf565b505050565b60008060009054906101000a900473ffffffffffffffffffffffffffffffffffffffff169050816000806101000a81548173ffffffffffffffffffffffffffffffffffffffff021916908373ffffffffffffffffffffffffffffffffffffffff1602179055508173ffffffffffffffffffffffffffffffffffffffff168173ffffffffffffffffffffffffffffffffffffffff167f8be0079c531659141344cd1fd0a4f28419497f9722a3daafe3b4186f6b6457e060405160405180910390a35050565b505050565b505050565b6040518060a00160405280600081526020016000815260200160006002811115612d7e57612d7d6130f6565b5b815260200160006003811115612d9757612d966130f6565b5b81526020016000151581525090565b5080546000825590600052602060002090810190612dc49190612dc7565b50565b5b80821115612de0576000816000905550600101612dc8565b5090565b600081519050919050565b600082825260208201905092915050565b60005b83811015612e1e578082015181840152602081019050612e03565b60008484015250505050565b6000601f19601f8301169050919050565b6000612e4682612de4565b612e508185612def565b9350612e60818560208601612e00565b612e6981612e2a565b840191505092915050565b60006020820190508181036000830152612e8e8184612e3b565b905092915050565b600080fd5b600073ffffffffffffffffffffffffffffffffffffffff82169050919050565b6000612ec682612e9b565b9050919050565b612ed681612ebb565b8114612ee157600080fd5b50565b600081359050612ef381612ecd565b92915050565b6000819050919050565b612f0c81612ef9565b8114612f1757600080fd5b50565b600081359050612f2981612f03565b92915050565b60008060408385031215612f4657612f45612e96565b5b6000612f5485828601612ee4565b9250506020612f6585828601612f1a565b9150509250929050565b60008115159050919050565b612f8481612f6f565b82525050565b6000602082019050612f9f6000830184612f7b565b92915050565b612fae81612ef9565b82525050565b6000602082019050612fc96000830184612fa5565b92915050565b600060208284031215612fe557612fe4612e96565b5b6000612ff384828501612f1a565b91505092915050565b60008060006060848603121561301557613014612e96565b5b600061302386828701612ee4565b935050602061303486828701612ee4565b925050604061304586828701612f1a565b9150509250925092565b6000819050919050565b6130628161304f565b82525050565b600060208201905061307d6000830184613059565b92915050565b600060ff82169050919050565b61309981613083565b82525050565b60006020820190506130b46000830184613090565b92915050565b6000602082840312156130d0576130cf612e96565b5b60006130de84828501612ee4565b91505092915050565b6130f081612ef9565b82525050565b7f4e487b7100000000000000000000000000000000000000000000000000000000600052602160045260246000fd5b60038110613136576131356130f6565b5b50565b600081905061314782613125565b919050565b600061315782613139565b9050919050565b6131678161314c565b82525050565b6004811061317e5761317d6130f6565b5b50565b600081905061318f8261316d565b919050565b600061319f82613181565b9050919050565b6131af81613194565b82525050565b6131be81612f6f565b82525050565b60a0820160008201516131da60008501826130e7565b5060208201516131ed60208501826130e7565b506040820151613200604085018261315e565b50606082015161321360608501826131a6565b50608082015161322660808501826131b5565b50505050565b600060a08201905061324160008301846131c4565b92915050565b61325081612ebb565b82525050565b600060208201905061326b6000830184613247565b92915050565b6000806040838503121561328857613287612e96565b5b600061329685828601612ee4565b92505060206132a785828601612ee4565b9150509250929050565b600081519050919050565b600082825260208201905092915050565b6000819050602082019050919050565b6132e681612ebb565b82525050565b60006132f883836132dd565b60208301905092915050565b6000602082019050919050565b600061331c826132b1565b61332681856132bc565b9350613331836132cd565b8060005b8381101561336257815161334988826132ec565b975061335483613304565b925050600181019050613335565b5085935050505092915050565b600060208201905081810360008301526133898184613311565b905092915050565b7f4e487b7100000000000000000000000000000000000000000000000000000000600052601160045260246000fd5b60006133cb82612ef9565b91506133d683612ef9565b92508282026133e481612ef9565b915082820484148315176133fb576133fa613391565b5b5092915050565b7f796f75206861766520746f6f206d756368204544465400000000000000000000600082015250565b6000613438601683612def565b915061344382613402565b602082019050919050565b600060208201905081810360008301526134678161342b565b9050919050565b7f4e487b7100000000000000000000000000000000000000000000000000000000600052602260045260246000fd5b600060028204905060018216806134b557607f821691505b6020821081036134c8576134c761346e565b5b50919050565b7f776169742074696c6c20796f757220626574206861732066696e697368656400600082015250565b6000613504601f83612def565b915061350f826134ce565b602082019050919050565b60006020820190508181036000830152613533816134f7565b9050919050565b7f4e487b7100000000000000000000000000000000000000000000000000000000600052601260045260246000fd5b600061357482612ef9565b915061357f83612ef9565b92508261358f5761358e61353a565b5b828204905092915050565b600081905092915050565b50565b60006135b560008361359a565b91506135c0826135a5565b600082019050919050565b60006135d6826135a8565b9150819050919050565b7f526577617264207472616e73666572206661696c65642c20706c65617365207260008201527f6574727900000000000000000000000000000000000000000000000000000000602082015250565b600061363c602483612def565b9150613647826135e0565b604082019050919050565b6000602082019050818103600083015261366b8161362f565b9050919050565b7f4f776e61626c653a2063616c6c6572206973206e6f7420746865206f776e6572600082015250565b60006136a8602083612def565b91506136b382613672565b602082019050919050565b600060208201905081810360008301526136d78161369b565b9050919050565b7f647261696e207472616e73666572206661696c65642c20706c6561736520726560008201527f7472790000000000000000000000000000000000000000000000000000000000602082015250565b600061373a602383612def565b9150613745826136de565b604082019050919050565b600060208201905081810360008301526137698161372d565b9050919050565b7f45524332303a207472616e7366657220616d6f756e742065786365656473206160008201527f6c6c6f77616e6365000000000000000000000000000000000000000000000000602082015250565b60006137cc602883612def565b91506137d782613770565b604082019050919050565b600060208201905081810360008301526137fb816137bf565b9050919050565b600061380d82612ef9565b915061381883612ef9565b92508282019050808211156138305761382f613391565b5b92915050565b7f4e487b7100000000000000000000000000000000000000000000000000000000600052603260045260246000fd5b600060408201905061387a6000830185613247565b6138876020830184612f7b565b9392505050565b600060a0820190506138a36000830188612fa5565b6138b06020830187612fa5565b6138bd6040830186612fa5565b6138ca6060830185612fa5565b6138d76080830184613059565b9695505050505050565b7f6d757374206e6f742062657474696e6720746f2065786563757465207468697360008201527f2066756e6374696f6e0000000000000000000000000000000000000000000000602082015250565b600061393d602983612def565b9150613948826138e1565b604082019050919050565b6000602082019050818103600083015261396c81613930565b9050919050565b7f6e6f7420656e6f75676820454446540000000000000000000000000000000000600082015250565b60006139a9600f83612def565b91506139b482613973565b602082019050919050565b600060208201905081810360008301526139d88161399c565b9050919050565b7f62657420706f6f6c2069732066756c6c00000000000000000000000000000000600082015250565b6000613a15601083612def565b9150613a20826139df565b602082019050919050565b60006020820190508181036000830152613a4481613a08565b9050919050565b7f7472616e73666572206572633230206661696c65642c20706c6561736520726560008201527f7472790000000000000000000000000000000000000000000000000000000000602082015250565b6000613aa7602383612def565b9150613ab282613a4b565b604082019050919050565b60006020820190508181036000830152613ad681613a9a565b9050919050565b6000608082019050613af26000830187613247565b613aff6020830186612fa5565b613b0c6040830185612fa5565b613b196060830184612f7b565b95945050505050565b600069ffffffffffffffffffff82169050919050565b613b4181613b22565b8114613b4c57600080fd5b50565b600081519050613b5e81613b38565b92915050565b613b6d8161304f565b8114613b7857600080fd5b50565b600081519050613b8a81613b64565b92915050565b600081519050613b9f81612f03565b92915050565b600080600080600060a08688031215613bc157613bc0612e96565b5b6000613bcf88828901613b4f565b9550506020613be088828901613b7b565b9450506040613bf188828901613b90565b9350506060613c0288828901613b90565b9250506080613c1388828901613b4f565b9150509295509295909350565b7f45524332303a2064656372656173656420616c6c6f77616e63652062656c6f7760008201527f207a65726f000000000000000000000000000000000000000000000000000000602082015250565b6000613c7c602583612def565b9150613c8782613c20565b604082019050919050565b60006020820190508181036000830152613cab81613c6f565b9050919050565b7f796f75206d7573742073656e642065786163746c79207468652062657420766160008201527f6c75650000000000000000000000000000000000000000000000000000000000602082015250565b6000613d0e602383612def565b9150613d1982613cb2565b604082019050919050565b60006020820190508181036000830152613d3d81613d01565b9050919050565b7f4f776e61626c653a206e6577206f776e657220697320746865207a65726f206160008201527f6464726573730000000000000000000000000000000000000000000000000000602082015250565b6000613da0602683612def565b9150613dab82613d44565b604082019050919050565b60006020820190508181036000830152613dcf81613d93565b9050919050565b7f45524332303a206d696e7420746f20746865207a65726f206164647265737300600082015250565b6000613e0c601f83612def565b9150613e1782613dd6565b602082019050919050565b60006020820190508181036000830152613e3b81613dff565b9050919050565b7f45524332303a20617070726f76652066726f6d20746865207a65726f2061646460008201527f7265737300000000000000000000000000000000000000000000000000000000602082015250565b6000613e9e602483612def565b9150613ea982613e42565b604082019050919050565b60006020820190508181036000830152613ecd81613e91565b9050919050565b7f45524332303a20617070726f766520746f20746865207a65726f20616464726560008201527f7373000000000000000000000000000000000000000000000000000000000000602082015250565b6000613f30602283612def565b9150613f3b82613ed4565b604082019050919050565b60006020820190508181036000830152613f5f81613f23565b9050919050565b7f45524332303a207472616e736665722066726f6d20746865207a65726f20616460008201527f6472657373000000000000000000000000000000000000000000000000000000602082015250565b6000613fc2602583612def565b9150613fcd82613f66565b604082019050919050565b60006020820190508181036000830152613ff181613fb5565b9050919050565b7f45524332303a207472616e7366657220746f20746865207a65726f206164647260008201527f6573730000000000000000000000000000000000000000000000000000000000602082015250565b6000614054602383612def565b915061405f82613ff8565b604082019050919050565b6000602082019050818103600083015261408381614047565b9050919050565b7f45524332303a207472616e7366657220616d6f756e742065786365656473206260008201527f616c616e63650000000000000000000000000000000000000000000000000000602082015250565b60006140e6602683612def565b91506140f18261408a565b604082019050919050565b60006020820190508181036000830152614115816140d9565b905091905056fea26469706673582212202fd75f44c36c9da1d80d2a7ddf77c18215b23ac46eb286e902932eee4828d8e364736f6c63430008120033",
  "linkReferences": {},
  "deployedLinkReferences": {}
}