{
  "_format": "hh-sol-artifact-1",
  "contractName": "CryptoBet",
  "sourceName": "contracts/CryptoBet.sol",
  "abi": [
    {
      "inputs": [
        {
          "internalType": "address",
          "name": "_oracleAddress",
          "type": "address"
        }
      ],
      "stateMutability": "nonpayable",
      "type": "constructor"
    },
    {
      "anonymous": false,
      "inputs": [
        {
          "indexed": true,
          "internalType": "address",
          "name": "owner",
          "type": "address"
        },
        {
          "indexed": true,
          "internalType": "address",
          "name": "spender",
          "type": "address"
        },
        {
          "indexed": false,
          "internalType": "uint256",
          "name": "value",
          "type": "uint256"
        }
      ],
      "name": "Approval",
      "type": "event"
    },
    {
      "anonymous": false,
      "inputs": [
        {
          "indexed": true,
          "internalType": "address",
          "name": "previousOwner",
          "type": "address"
        },
        {
          "indexed": true,
          "internalType": "address",
          "name": "newOwner",
          "type": "address"
        }
      ],
      "name": "OwnershipTransferred",
      "type": "event"
    },
    {
      "anonymous": false,
      "inputs": [
        {
          "indexed": true,
          "internalType": "address",
          "name": "from",
          "type": "address"
        },
        {
          "indexed": true,
          "internalType": "address",
          "name": "to",
          "type": "address"
        },
        {
          "indexed": false,
          "internalType": "uint256",
          "name": "value",
          "type": "uint256"
        }
      ],
      "name": "Transfer",
      "type": "event"
    },
    {
      "anonymous": false,
      "inputs": [
        {
          "indexed": false,
          "internalType": "address",
          "name": "userAddr",
          "type": "address"
        },
        {
          "indexed": false,
          "internalType": "bool",
          "name": "result",
          "type": "bool"
        }
      ],
      "name": "evt_betFinish",
      "type": "event"
    },
    {
      "anonymous": false,
      "inputs": [
        {
          "indexed": false,
          "internalType": "uint256",
          "name": "totalBet",
          "type": "uint256"
        },
        {
          "indexed": false,
          "internalType": "uint256",
          "name": "betBalance",
          "type": "uint256"
        },
        {
          "indexed": false,
          "internalType": "bool",
          "name": "token",
          "type": "bool"
        }
      ],
      "name": "evt_newBet",
      "type": "event"
    },
    {
      "anonymous": false,
      "inputs": [
        {
          "indexed": false,
          "internalType": "uint256",
          "name": "winners",
          "type": "uint256"
        },
        {
          "indexed": false,
          "internalType": "uint256",
          "name": "winnersErc20",
          "type": "uint256"
        },
        {
          "indexed": false,
          "internalType": "uint256",
          "name": "loosers",
          "type": "uint256"
        },
        {
          "indexed": false,
          "internalType": "uint256",
          "name": "loosersErc20",
          "type": "uint256"
        },
        {
          "indexed": false,
          "internalType": "int256",
          "name": "newPriceFeed",
          "type": "int256"
        }
      ],
      "name": "evt_nextRound",
      "type": "event"
    },
    {
      "stateMutability": "payable",
      "type": "fallback"
    },
    {
      "inputs": [
        {
          "internalType": "address",
          "name": "owner",
          "type": "address"
        },
        {
          "internalType": "address",
          "name": "spender",
          "type": "address"
        }
      ],
      "name": "allowance",
      "outputs": [
        {
          "internalType": "uint256",
          "name": "",
          "type": "uint256"
        }
      ],
      "stateMutability": "view",
      "type": "function"
    },
    {
      "inputs": [
        {
          "internalType": "address",
          "name": "spender",
          "type": "address"
        },
        {
          "internalType": "uint256",
          "name": "amount",
          "type": "uint256"
        }
      ],
      "name": "approve",
      "outputs": [
        {
          "internalType": "bool",
          "name": "",
          "type": "bool"
        }
      ],
      "stateMutability": "nonpayable",
      "type": "function"
    },
    {
      "inputs": [
        {
          "internalType": "address",
          "name": "account",
          "type": "address"
        }
      ],
      "name": "balanceOf",
      "outputs": [
        {
          "internalType": "uint256",
          "name": "",
          "type": "uint256"
        }
      ],
      "stateMutability": "view",
      "type": "function"
    },
    {
      "inputs": [],
      "name": "betValue",
      "outputs": [
        {
          "internalType": "uint256",
          "name": "",
          "type": "uint256"
        }
      ],
      "stateMutability": "view",
      "type": "function"
    },
    {
      "inputs": [],
      "name": "claimBet",
      "outputs": [],
      "stateMutability": "nonpayable",
      "type": "function"
    },
    {
      "inputs": [],
      "name": "currentBetBalance",
      "outputs": [
        {
          "internalType": "uint256",
          "name": "",
          "type": "uint256"
        }
      ],
      "stateMutability": "view",
      "type": "function"
    },
    {
      "inputs": [],
      "name": "currentBetBalanceErc20",
      "outputs": [
        {
          "internalType": "uint256",
          "name": "",
          "type": "uint256"
        }
      ],
      "stateMutability": "view",
      "type": "function"
    },
    {
      "inputs": [],
      "name": "currentPriceFeed",
      "outputs": [
        {
          "internalType": "int256",
          "name": "",
          "type": "int256"
        }
      ],
      "stateMutability": "view",
      "type": "function"
    },
    {
      "inputs": [],
      "name": "decimals",
      "outputs": [
        {
          "internalType": "uint8",
          "name": "",
          "type": "uint8"
        }
      ],
      "stateMutability": "view",
      "type": "function"
    },
    {
      "inputs": [
        {
          "internalType": "address",
          "name": "spender",
          "type": "address"
        },
        {
          "internalType": "uint256",
          "name": "subtractedValue",
          "type": "uint256"
        }
      ],
      "name": "decreaseAllowance",
      "outputs": [
        {
          "internalType": "bool",
          "name": "",
          "type": "bool"
        }
      ],
      "stateMutability": "nonpayable",
      "type": "function"
    },
    {
      "inputs": [
        {
          "internalType": "uint256",
          "name": "_value",
          "type": "uint256"
        }
      ],
      "name": "drainTheFund",
      "outputs": [],
      "stateMutability": "nonpayable",
      "type": "function"
    },
    {
      "inputs": [],
      "name": "getBetters",
      "outputs": [
        {
          "internalType": "address[]",
          "name": "",
          "type": "address[]"
        }
      ],
      "stateMutability": "view",
      "type": "function"
    },
    {
      "inputs": [],
      "name": "getLatestPrice",
      "outputs": [
        {
          "internalType": "int256",
          "name": "",
          "type": "int256"
        }
      ],
      "stateMutability": "view",
      "type": "function"
    },
    {
      "inputs": [
        {
          "internalType": "address",
          "name": "_addr",
          "type": "address"
        }
      ],
      "name": "getOneBetter",
      "outputs": [
        {
          "components": [
            {
              "internalType": "uint256",
              "name": "betValue",
              "type": "uint256"
            },
            {
              "internalType": "uint256",
              "name": "balance",
              "type": "uint256"
            },
            {
              "internalType": "enum CryptoBet.Expectations",
              "name": "expectStatus",
              "type": "uint8"
            },
            {
              "internalType": "enum CryptoBet.BetStatus",
              "name": "betStatus",
              "type": "uint8"
            },
            {
              "internalType": "bool",
              "name": "token",
              "type": "bool"
            }
          ],
          "internalType": "struct CryptoBet.UserBet",
          "name": "",
          "type": "tuple"
        }
      ],
      "stateMutability": "view",
      "type": "function"
    },
    {
      "inputs": [
        {
          "internalType": "address",
          "name": "spender",
          "type": "address"
        },
        {
          "internalType": "uint256",
          "name": "addedValue",
          "type": "uint256"
        }
      ],
      "name": "increaseAllowance",
      "outputs": [
        {
          "internalType": "bool",
          "name": "",
          "type": "bool"
        }
      ],
      "stateMutability": "nonpayable",
      "type": "function"
    },
    {
      "inputs": [],
      "name": "mintEDFT",
      "outputs": [],
      "stateMutability": "nonpayable",
      "type": "function"
    },
    {
      "inputs": [],
      "name": "name",
      "outputs": [
        {
          "internalType": "string",
          "name": "",
          "type": "string"
        }
      ],
      "stateMutability": "view",
      "type": "function"
    },
    {
      "inputs": [],
      "name": "nextRound",
      "outputs": [],
      "stateMutability": "nonpayable",
      "type": "function"
    },
    {
      "inputs": [],
      "name": "owner",
      "outputs": [
        {
          "internalType": "address",
          "name": "",
          "type": "address"
        }
      ],
      "stateMutability": "view",
      "type": "function"
    },
    {
      "inputs": [
        {
          "internalType": "uint256",
          "name": "_expectation",
          "type": "uint256"
        }
      ],
      "name": "registerBet",
      "outputs": [],
      "stateMutability": "payable",
      "type": "function"
    },
    {
      "inputs": [
        {
          "internalType": "uint256",
          "name": "_expectation",
          "type": "uint256"
        }
      ],
      "name": "registerBetErc20",
      "outputs": [],
      "stateMutability": "nonpayable",
      "type": "function"
    },
    {
      "inputs": [],
      "name": "renounceOwnership",
      "outputs": [],
      "stateMutability": "nonpayable",
      "type": "function"
    },
    {
      "inputs": [],
      "name": "symbol",
      "outputs": [
        {
          "internalType": "string",
          "name": "",
          "type": "string"
        }
      ],
      "stateMutability": "view",
      "type": "function"
    },
    {
      "inputs": [],
      "name": "totalSupply",
      "outputs": [
        {
          "internalType": "uint256",
          "name": "",
          "type": "uint256"
        }
      ],
      "stateMutability": "view",
      "type": "function"
    },
    {
      "inputs": [
        {
          "internalType": "address",
          "name": "recipient",
          "type": "address"
        },
        {
          "internalType": "uint256",
          "name": "amount",
          "type": "uint256"
        }
      ],
      "name": "transfer",
      "outputs": [
        {
          "internalType": "bool",
          "name": "",
          "type": "bool"
        }
      ],
      "stateMutability": "nonpayable",
      "type": "function"
    },
    {
      "inputs": [
        {
          "internalType": "address",
          "name": "sender",
          "type": "address"
        },
        {
          "internalType": "address",
          "name": "recipient",
          "type": "address"
        },
        {
          "internalType": "uint256",
          "name": "amount",
          "type": "uint256"
        }
      ],
      "name": "transferFrom",
      "outputs": [
        {
          "internalType": "bool",
          "name": "",
          "type": "bool"
        }
      ],
      "stateMutability": "nonpayable",
      "type": "function"
    },
    {
      "inputs": [
        {
          "internalType": "address",
          "name": "newOwner",
          "type": "address"
        }
      ],
      "name": "transferOwnership",
      "outputs": [],
      "stateMutability": "nonpayable",
      "type": "function"
    },
    {
      "stateMutability": "payable",
      "type": "receive"
    }
  ],
  "bytecode": "0x6080604052600a600b55605a600c553480156200001b57600080fd5b50604051620049fb380380620049fb83398181016040528101906200004191906200040f565b6040518060400160405280601181526020017f456173794461707046726565546f6b656e0000000000000000000000000000008152506040518060400160405280600481526020017f4544465400000000000000000000000000000000000000000000000000000000815250620000cd620000c16200015660201b60201c565b6200015e60201b60201c565b8160049081620000de9190620006bb565b508060059081620000f09190620006bb565b50505080600d60016101000a81548173ffffffffffffffffffffffffffffffffffffffff021916908373ffffffffffffffffffffffffffffffffffffffff1602179055506200014f33683635c9adc5dea000006200022260201b60201c565b50620008bd565b600033905090565b60008060009054906101000a900473ffffffffffffffffffffffffffffffffffffffff169050816000806101000a81548173ffffffffffffffffffffffffffffffffffffffff021916908373ffffffffffffffffffffffffffffffffffffffff1602179055508173ffffffffffffffffffffffffffffffffffffffff168173ffffffffffffffffffffffffffffffffffffffff167f8be0079c531659141344cd1fd0a4f28419497f9722a3daafe3b4186f6b6457e060405160405180910390a35050565b600073ffffffffffffffffffffffffffffffffffffffff168273ffffffffffffffffffffffffffffffffffffffff160362000294576040517f08c379a00000000000000000000000000000000000000000000000000000000081526004016200028b9062000803565b60405180910390fd5b620002a8600083836200039b60201b60201c565b8060036000828254620002bc919062000854565b9250508190555080600160008473ffffffffffffffffffffffffffffffffffffffff1673ffffffffffffffffffffffffffffffffffffffff168152602001908152602001600020600082825462000314919062000854565b925050819055508173ffffffffffffffffffffffffffffffffffffffff16600073ffffffffffffffffffffffffffffffffffffffff167fddf252ad1be2c89b69c2b068fc378daa952ba7f163c4a11628f55a4df523b3ef836040516200037b9190620008a0565b60405180910390a36200039760008383620003a060201b60201c565b5050565b505050565b505050565b600080fd5b600073ffffffffffffffffffffffffffffffffffffffff82169050919050565b6000620003d782620003aa565b9050919050565b620003e981620003ca565b8114620003f557600080fd5b50565b6000815190506200040981620003de565b92915050565b600060208284031215620004285762000427620003a5565b5b60006200043884828501620003f8565b91505092915050565b600081519050919050565b7f4e487b7100000000000000000000000000000000000000000000000000000000600052604160045260246000fd5b7f4e487b7100000000000000000000000000000000000000000000000000000000600052602260045260246000fd5b60006002820490506001821680620004c357607f821691505b602082108103620004d957620004d86200047b565b5b50919050565b60008190508160005260206000209050919050565b60006020601f8301049050919050565b600082821b905092915050565b600060088302620005437fffffffffffffffffffffffffffffffffffffffffffffffffffffffffffffffff8262000504565b6200054f868362000504565b95508019841693508086168417925050509392505050565b6000819050919050565b6000819050919050565b60006200059c62000596620005908462000567565b62000571565b62000567565b9050919050565b6000819050919050565b620005b8836200057b565b620005d0620005c782620005a3565b84845462000511565b825550505050565b600090565b620005e7620005d8565b620005f4818484620005ad565b505050565b5b818110156200061c5762000610600082620005dd565b600181019050620005fa565b5050565b601f8211156200066b576200063581620004df565b6200064084620004f4565b8101602085101562000650578190505b620006686200065f85620004f4565b830182620005f9565b50505b505050565b600082821c905092915050565b6000620006906000198460080262000670565b1980831691505092915050565b6000620006ab83836200067d565b9150826002028217905092915050565b620006c68262000441565b67ffffffffffffffff811115620006e257620006e16200044c565b5b620006ee8254620004aa565b620006fb82828562000620565b600060209050601f8311600181146200073357600084156200071e578287015190505b6200072a85826200069d565b8655506200079a565b601f1984166200074386620004df565b60005b828110156200076d5784890151825560018201915060208501945060208101905062000746565b868310156200078d578489015162000789601f8916826200067d565b8355505b6001600288020188555050505b505050505050565b600082825260208201905092915050565b7f45524332303a206d696e7420746f20746865207a65726f206164647265737300600082015250565b6000620007eb601f83620007a2565b9150620007f882620007b3565b602082019050919050565b600060208201905081810360008301526200081e81620007dc565b9050919050565b7f4e487b7100000000000000000000000000000000000000000000000000000000600052601160045260246000fd5b6000620008618262000567565b91506200086e8362000567565b925082820190508082111562000889576200088862000825565b5b92915050565b6200089a8162000567565b82525050565b6000602082019050620008b760008301846200088f565b92915050565b61412e80620008cd6000396000f3fe6080604052600436106101a05760003560e01c806370a08231116100ec578063ab259f291161008a578063dd62ed3e11610064578063dd62ed3e146105a1578063f2fde38b146105de578063fbf9dab714610607578063febfba3e14610632576101a7565b8063ab259f291461052f578063af3fac401461054b578063cc24b7dc14610576576101a7565b80638e15f473116100c65780638e15f4731461045f57806395d89b411461048a578063a457c2d7146104b5578063a9059cbb146104f2576101a7565b806370a08231146103e0578063715018a61461041d5780638da5cb5b14610434576101a7565b806323b872dd11610159578063395093511161013357806339509351146103265780633e1bba5b1461036357806347e40553146103a05780636a25a8ef146103b7576101a7565b806323b872dd146102935780632fa950aa146102d0578063313ce567146102fb576101a7565b806301d386bc146101a957806306fdde03146101c0578063095ea7b3146101eb5780630e02dcd61461022857806318160ddd1461023f5780632086fde21461026a576101a7565b366101a757005b005b3480156101b557600080fd5b506101be61065d565b005b3480156101cc57600080fd5b506101d56106ca565b6040516101e29190612e5e565b60405180910390f35b3480156101f757600080fd5b50610212600480360381019061020d9190612f19565b61075c565b60405161021f9190612f74565b60405180910390f35b34801561023457600080fd5b5061023d61077a565b005b34801561024b57600080fd5b50610254610b8d565b6040516102619190612f9e565b60405180910390f35b34801561027657600080fd5b50610291600480360381019061028c9190612fb9565b610b97565b005b34801561029f57600080fd5b506102ba60048036038101906102b59190612fe6565b610cc3565b6040516102c79190612f74565b60405180910390f35b3480156102dc57600080fd5b506102e5610dbb565b6040516102f29190613052565b60405180910390f35b34801561030757600080fd5b50610310610dc1565b60405161031d9190613089565b60405180910390f35b34801561033257600080fd5b5061034d60048036038101906103489190612f19565b610dca565b60405161035a9190612f74565b60405180910390f35b34801561036f57600080fd5b5061038a600480360381019061038591906130a4565b610e76565b6040516103979190613216565b60405180910390f35b3480156103ac57600080fd5b506103b5610f74565b005b3480156103c357600080fd5b506103de60048036038101906103d99190612fb9565b611545565b005b3480156103ec57600080fd5b50610407600480360381019061040291906130a4565b611992565b6040516104149190612f9e565b60405180910390f35b34801561042957600080fd5b506104326119db565b005b34801561044057600080fd5b50610449611a63565b6040516104569190613240565b60405180910390f35b34801561046b57600080fd5b50610474611a8c565b6040516104819190613052565b60405180910390f35b34801561049657600080fd5b5061049f611b2d565b6040516104ac9190612e5e565b60405180910390f35b3480156104c157600080fd5b506104dc60048036038101906104d79190612f19565b611bbf565b6040516104e99190612f74565b60405180910390f35b3480156104fe57600080fd5b5061051960048036038101906105149190612f19565b611caa565b6040516105269190612f74565b60405180910390f35b61054960048036038101906105449190612fb9565b611cc8565b005b34801561055757600080fd5b5061056061201e565b60405161056d9190612f9e565b60405180910390f35b34801561058257600080fd5b5061058b612024565b6040516105989190612f9e565b60405180910390f35b3480156105ad57600080fd5b506105c860048036038101906105c3919061325b565b61202a565b6040516105d59190612f9e565b60405180910390f35b3480156105ea57600080fd5b50610605600480360381019061060091906130a4565b6120b1565b005b34801561061357600080fd5b5061061c6121a8565b6040516106299190613359565b60405180910390f35b34801561063e57600080fd5b50610647612236565b6040516106549190612f9e565b60405180910390f35b6003600b5461066c91906133aa565b61067533611992565b106106b5576040517f08c379a00000000000000000000000000000000000000000000000000000000081526004016106ac90613438565b60405180910390fd5b6106c8336801a055690d9db8000061223c565b565b6060600480546106d990613487565b80601f016020809104026020016040519081016040528092919081815260200182805461070590613487565b80156107525780601f1061072757610100808354040283529160200191610752565b820191906000526020600020905b81548152906001019060200180831161073557829003601f168201915b5050505050905090565b600061077061076961239c565b84846123a4565b6001905092915050565b6002600381111561078e5761078d6130e0565b5b60038111156107a05761079f6130e0565b5b600660003373ffffffffffffffffffffffffffffffffffffffff1673ffffffffffffffffffffffffffffffffffffffff16815260200190815260200160002060020160019054906101000a900460ff166003811115610802576108016130e0565b5b1480610892575060038081111561081c5761081b6130e0565b5b600381111561082e5761082d6130e0565b5b600660003373ffffffffffffffffffffffffffffffffffffffff1673ffffffffffffffffffffffffffffffffffffffff16815260200190815260200160002060020160019054906101000a900460ff1660038111156108905761088f6130e0565b5b145b6108d1576040517f08c379a00000000000000000000000000000000000000000000000000000000081526004016108c890613504565b60405180910390fd5b6003808111156108e4576108e36130e0565b5b60038111156108f6576108f56130e0565b5b600660003373ffffffffffffffffffffffffffffffffffffffff1673ffffffffffffffffffffffffffffffffffffffff16815260200190815260200160002060020160019054906101000a900460ff166003811115610958576109576130e0565b5b148015610978575060001515600d60009054906101000a900460ff161515145b15610b67576001600d60006101000a81548160ff02191690831515021790555060011515600660003373ffffffffffffffffffffffffffffffffffffffff1673ffffffffffffffffffffffffffffffffffffffff16815260200190815260200160002060020160029054906101000a900460ff16151503610a5757610a5233670de0b6b3a7640000600660003373ffffffffffffffffffffffffffffffffffffffff1673ffffffffffffffffffffffffffffffffffffffff16815260200190815260200160002060010154610a4d91906133aa565b61223c565b610b66565b60006064600c54600660003373ffffffffffffffffffffffffffffffffffffffff1673ffffffffffffffffffffffffffffffffffffffff16815260200190815260200160002060010154610aab91906133aa565b610ab59190613553565b905060003373ffffffffffffffffffffffffffffffffffffffff1682604051610add906135b5565b60006040518083038185875af1925050503d8060008114610b1a576040519150601f19603f3d011682016040523d82523d6000602084013e610b1f565b606091505b5050905080610b63576040517f08c379a0000000000000000000000000000000000000000000000000000000008152600401610b5a9061363c565b60405180910390fd5b50505b5b610b703361256d565b6000600d60006101000a81548160ff021916908315150217905550565b6000600354905090565b610b9f61239c565b73ffffffffffffffffffffffffffffffffffffffff16610bbd611a63565b73ffffffffffffffffffffffffffffffffffffffff1614610c13576040517f08c379a0000000000000000000000000000000000000000000000000000000008152600401610c0a906136a8565b60405180910390fd5b60003373ffffffffffffffffffffffffffffffffffffffff1682604051610c39906135b5565b60006040518083038185875af1925050503d8060008114610c76576040519150601f19603f3d011682016040523d82523d6000602084013e610c7b565b606091505b5050905080610cbf576040517f08c379a0000000000000000000000000000000000000000000000000000000008152600401610cb69061373a565b60405180910390fd5b5050565b6000610cd08484846126f2565b6000600260008673ffffffffffffffffffffffffffffffffffffffff1673ffffffffffffffffffffffffffffffffffffffff1681526020019081526020016000206000610d1b61239c565b73ffffffffffffffffffffffffffffffffffffffff1673ffffffffffffffffffffffffffffffffffffffff16815260200190815260200160002054905082811015610d9b576040517f08c379a0000000000000000000000000000000000000000000000000000000008152600401610d92906137cc565b60405180910390fd5b610daf85610da761239c565b8584036123a4565b60019150509392505050565b600a5481565b60006012905090565b6000610e6c610dd761239c565b848460026000610de561239c565b73ffffffffffffffffffffffffffffffffffffffff1673ffffffffffffffffffffffffffffffffffffffff16815260200190815260200160002060008873ffffffffffffffffffffffffffffffffffffffff1673ffffffffffffffffffffffffffffffffffffffff16815260200190815260200160002054610e6791906137ec565b6123a4565b6001905092915050565b610e7e612d3b565b600660008373ffffffffffffffffffffffffffffffffffffffff1673ffffffffffffffffffffffffffffffffffffffff1681526020019081526020016000206040518060a001604052908160008201548152602001600182015481526020016002820160009054906101000a900460ff166002811115610f0157610f006130e0565b5b6002811115610f1357610f126130e0565b5b81526020016002820160019054906101000a900460ff166003811115610f3c57610f3b6130e0565b5b6003811115610f4e57610f4d6130e0565b5b81526020016002820160029054906101000a900460ff1615151515815250509050919050565b610f7c61239c565b73ffffffffffffffffffffffffffffffffffffffff16610f9a611a63565b73ffffffffffffffffffffffffffffffffffffffff1614610ff0576040517f08c379a0000000000000000000000000000000000000000000000000000000008152600401610fe7906136a8565b60405180910390fd5b6000610ffa611a8c565b9050600080600080600061100d86612974565b905085600a8190555060005b6007805490508110156114d757816002811115611039576110386130e0565b5b600660006007848154811061105157611050613820565b5b9060005260206000200160009054906101000a900473ffffffffffffffffffffffffffffffffffffffff1673ffffffffffffffffffffffffffffffffffffffff1673ffffffffffffffffffffffffffffffffffffffff16815260200190815260200160002060020160009054906101000a900460ff1660028111156110d9576110d86130e0565b5b036112d2576003808111156110f1576110f06130e0565b5b600660006007848154811061110957611108613820565b5b9060005260206000200160009054906101000a900473ffffffffffffffffffffffffffffffffffffffff1673ffffffffffffffffffffffffffffffffffffffff1673ffffffffffffffffffffffffffffffffffffffff16815260200190815260200160002060020160016101000a81548160ff02191690836003811115611193576111926130e0565b5b02179055506001151560066000600784815481106111b4576111b3613820565b5b9060005260206000200160009054906101000a900473ffffffffffffffffffffffffffffffffffffffff1673ffffffffffffffffffffffffffffffffffffffff1673ffffffffffffffffffffffffffffffffffffffff16815260200190815260200160002060020160029054906101000a900460ff161515036112455760018561123e91906137ec565b9450611255565b60018661125291906137ec565b95505b7fd07d7f6a78697c9d8a61e2607cfcbc8ea25155827e936a90fc54504e0208526e6007828154811061128a57611289613820565b5b9060005260206000200160009054906101000a900473ffffffffffffffffffffffffffffffffffffffff1660016040516112c592919061384f565b60405180910390a16114c3565b600260038111156112e6576112e56130e0565b5b60066000600784815481106112fe576112fd613820565b5b9060005260206000200160009054906101000a900473ffffffffffffffffffffffffffffffffffffffff1673ffffffffffffffffffffffffffffffffffffffff1673ffffffffffffffffffffffffffffffffffffffff16815260200190815260200160002060020160016101000a81548160ff02191690836003811115611388576113876130e0565b5b02179055506001151560066000600784815481106113a9576113a8613820565b5b9060005260206000200160009054906101000a900473ffffffffffffffffffffffffffffffffffffffff1673ffffffffffffffffffffffffffffffffffffffff1673ffffffffffffffffffffffffffffffffffffffff16815260200190815260200160002060020160029054906101000a900460ff1615150361143a5760018361143391906137ec565b925061144a565b60018461144791906137ec565b93505b7fd07d7f6a78697c9d8a61e2607cfcbc8ea25155827e936a90fc54504e0208526e6007828154811061147f5761147e613820565b5b9060005260206000200160009054906101000a900473ffffffffffffffffffffffffffffffffffffffff1660006040516114ba92919061384f565b60405180910390a15b6001816114d091906137ec565b9050611019565b506114e285856129b6565b7fa1351cd2eb21c920d63e56d59a0f565fbe4888fc7766ea27a1285eb589c4030b85858585600a5460405161151b959493929190613878565b60405180910390a1600760006115319190612d90565b600860009055600960009055505050505050565b60006003811115611559576115586130e0565b5b600381111561156b5761156a6130e0565b5b600660003373ffffffffffffffffffffffffffffffffffffffff1673ffffffffffffffffffffffffffffffffffffffff16815260200190815260200160002060020160019054906101000a900460ff1660038111156115cd576115cc6130e0565b5b1461160d576040517f08c379a00000000000000000000000000000000000000000000000000000000081526004016116049061393d565b60405180910390fd5b600b5461161933611992565b101561165a576040517f08c379a0000000000000000000000000000000000000000000000000000000008152600401611651906139a9565b60405180910390fd5b612710600780549050106116a3576040517f08c379a000000000000000000000000000000000000000000000000000000000815260040161169a90613a15565b60405180910390fd5b6116c233670de0b6b3a7640000600b546116bd91906133aa565b610dca565b5060006116ec336116d1611a63565b670de0b6b3a7640000600b546116e791906133aa565b610cc3565b90506001151581151514611735576040517f08c379a000000000000000000000000000000000000000000000000000000000815260040161172c90613aa7565b60405180910390fd5b6007339080600181540180825580915050600190039060005260206000200160009091909190916101000a81548173ffffffffffffffffffffffffffffffffffffffff021916908373ffffffffffffffffffffffffffffffffffffffff160217905550600b54600660003373ffffffffffffffffffffffffffffffffffffffff1673ffffffffffffffffffffffffffffffffffffffff168152602001908152602001600020600001819055508160028111156117f4576117f36130e0565b5b600660003373ffffffffffffffffffffffffffffffffffffffff1673ffffffffffffffffffffffffffffffffffffffff16815260200190815260200160002060020160006101000a81548160ff02191690836002811115611858576118576130e0565b5b021790555060016003811115611871576118706130e0565b5b600660003373ffffffffffffffffffffffffffffffffffffffff1673ffffffffffffffffffffffffffffffffffffffff16815260200190815260200160002060020160016101000a81548160ff021916908360038111156118d5576118d46130e0565b5b02179055506001600660003373ffffffffffffffffffffffffffffffffffffffff1673ffffffffffffffffffffffffffffffffffffffff16815260200190815260200160002060020160026101000a81548160ff021916908315150217905550600b5460095461194591906137ec565b6009819055507fc25a7319f9d05b6c6011fb6297c1f8f50cc6a586032e213d09e5e44ed40a3607600780549050600954600160405161198693929190613ac7565b60405180910390a15050565b6000600160008373ffffffffffffffffffffffffffffffffffffffff1673ffffffffffffffffffffffffffffffffffffffff168152602001908152602001600020549050919050565b6119e361239c565b73ffffffffffffffffffffffffffffffffffffffff16611a01611a63565b73ffffffffffffffffffffffffffffffffffffffff1614611a57576040517f08c379a0000000000000000000000000000000000000000000000000000000008152600401611a4e906136a8565b60405180910390fd5b611a616000612c6d565b565b60008060009054906101000a900473ffffffffffffffffffffffffffffffffffffffff16905090565b600080600d60019054906101000a900473ffffffffffffffffffffffffffffffffffffffff1673ffffffffffffffffffffffffffffffffffffffff1663feaf968c6040518163ffffffff1660e01b815260040160a060405180830381865afa158015611afc573d6000803e3d6000fd5b505050506040513d601f19601f82011682018060405250810190611b209190613b81565b5050509150508091505090565b606060058054611b3c90613487565b80601f0160208091040260200160405190810160405280929190818152602001828054611b6890613487565b8015611bb55780601f10611b8a57610100808354040283529160200191611bb5565b820191906000526020600020905b815481529060010190602001808311611b9857829003601f168201915b5050505050905090565b60008060026000611bce61239c565b73ffffffffffffffffffffffffffffffffffffffff1673ffffffffffffffffffffffffffffffffffffffff16815260200190815260200160002060008573ffffffffffffffffffffffffffffffffffffffff1673ffffffffffffffffffffffffffffffffffffffff16815260200190815260200160002054905082811015611c8b576040517f08c379a0000000000000000000000000000000000000000000000000000000008152600401611c8290613c6e565b60405180910390fd5b611c9f611c9661239c565b858584036123a4565b600191505092915050565b6000611cbe611cb761239c565b84846126f2565b6001905092915050565b60006003811115611cdc57611cdb6130e0565b5b6003811115611cee57611ced6130e0565b5b600660003373ffffffffffffffffffffffffffffffffffffffff1673ffffffffffffffffffffffffffffffffffffffff16815260200190815260200160002060020160019054906101000a900460ff166003811115611d5057611d4f6130e0565b5b14611d90576040517f08c379a0000000000000000000000000000000000000000000000000000000008152600401611d879061393d565b60405180910390fd5b600b543414611dd4576040517f08c379a0000000000000000000000000000000000000000000000000000000008152600401611dcb90613d00565b60405180910390fd5b61271060078054905010611e1d576040517f08c379a0000000000000000000000000000000000000000000000000000000008152600401611e1490613a15565b60405180910390fd5b6007339080600181540180825580915050600190039060005260206000200160009091909190916101000a81548173ffffffffffffffffffffffffffffffffffffffff021916908373ffffffffffffffffffffffffffffffffffffffff160217905550600b54600660003373ffffffffffffffffffffffffffffffffffffffff1673ffffffffffffffffffffffffffffffffffffffff16815260200190815260200160002060000181905550806002811115611edc57611edb6130e0565b5b600660003373ffffffffffffffffffffffffffffffffffffffff1673ffffffffffffffffffffffffffffffffffffffff16815260200190815260200160002060020160006101000a81548160ff02191690836002811115611f4057611f3f6130e0565b5b021790555060016003811115611f5957611f586130e0565b5b600660003373ffffffffffffffffffffffffffffffffffffffff1673ffffffffffffffffffffffffffffffffffffffff16815260200190815260200160002060020160016101000a81548160ff02191690836003811115611fbd57611fbc6130e0565b5b0217905550600b54600854611fd291906137ec565b6008819055507fc25a7319f9d05b6c6011fb6297c1f8f50cc6a586032e213d09e5e44ed40a3607600780549050600854600060405161201393929190613ac7565b60405180910390a150565b600b5481565b60085481565b6000600260008473ffffffffffffffffffffffffffffffffffffffff1673ffffffffffffffffffffffffffffffffffffffff16815260200190815260200160002060008373ffffffffffffffffffffffffffffffffffffffff1673ffffffffffffffffffffffffffffffffffffffff16815260200190815260200160002054905092915050565b6120b961239c565b73ffffffffffffffffffffffffffffffffffffffff166120d7611a63565b73ffffffffffffffffffffffffffffffffffffffff161461212d576040517f08c379a0000000000000000000000000000000000000000000000000000000008152600401612124906136a8565b60405180910390fd5b600073ffffffffffffffffffffffffffffffffffffffff168173ffffffffffffffffffffffffffffffffffffffff160361219c576040517f08c379a000000000000000000000000000000000000000000000000000000000815260040161219390613d92565b60405180910390fd5b6121a581612c6d565b50565b6060600780548060200260200160405190810160405280929190818152602001828054801561222c57602002820191906000526020600020905b8160009054906101000a900473ffffffffffffffffffffffffffffffffffffffff1673ffffffffffffffffffffffffffffffffffffffff16815260200190600101908083116121e2575b5050505050905090565b60095481565b600073ffffffffffffffffffffffffffffffffffffffff168273ffffffffffffffffffffffffffffffffffffffff16036122ab576040517f08c379a00000000000000000000000000000000000000000000000000000000081526004016122a290613dfe565b60405180910390fd5b6122b760008383612d31565b80600360008282546122c991906137ec565b9250508190555080600160008473ffffffffffffffffffffffffffffffffffffffff1673ffffffffffffffffffffffffffffffffffffffff168152602001908152602001600020600082825461231f91906137ec565b925050819055508173ffffffffffffffffffffffffffffffffffffffff16600073ffffffffffffffffffffffffffffffffffffffff167fddf252ad1be2c89b69c2b068fc378daa952ba7f163c4a11628f55a4df523b3ef836040516123849190612f9e565b60405180910390a361239860008383612d36565b5050565b600033905090565b600073ffffffffffffffffffffffffffffffffffffffff168373ffffffffffffffffffffffffffffffffffffffff1603612413576040517f08c379a000000000000000000000000000000000000000000000000000000000815260040161240a90613e90565b60405180910390fd5b600073ffffffffffffffffffffffffffffffffffffffff168273ffffffffffffffffffffffffffffffffffffffff1603612482576040517f08c379a000000000000000000000000000000000000000000000000000000000815260040161247990613f22565b60405180910390fd5b80600260008573ffffffffffffffffffffffffffffffffffffffff1673ffffffffffffffffffffffffffffffffffffffff16815260200190815260200160002060008473ffffffffffffffffffffffffffffffffffffffff1673ffffffffffffffffffffffffffffffffffffffff168152602001908152602001600020819055508173ffffffffffffffffffffffffffffffffffffffff168373ffffffffffffffffffffffffffffffffffffffff167f8c5be1e5ebec7d5bd14f71427d1e84f3dd0314c0f7b2291e5b200ac8c7c3b925836040516125609190612f9e565b60405180910390a3505050565b600660008273ffffffffffffffffffffffffffffffffffffffff1673ffffffffffffffffffffffffffffffffffffffff16815260200190815260200160002060000160009055600660008273ffffffffffffffffffffffffffffffffffffffff1673ffffffffffffffffffffffffffffffffffffffff16815260200190815260200160002060020160006101000a81549060ff0219169055600660008273ffffffffffffffffffffffffffffffffffffffff1673ffffffffffffffffffffffffffffffffffffffff16815260200190815260200160002060010160009055600660008273ffffffffffffffffffffffffffffffffffffffff1673ffffffffffffffffffffffffffffffffffffffff16815260200190815260200160002060020160016101000a81549060ff0219169055600660008273ffffffffffffffffffffffffffffffffffffffff1673ffffffffffffffffffffffffffffffffffffffff16815260200190815260200160002060020160026101000a81549060ff021916905550565b600073ffffffffffffffffffffffffffffffffffffffff168373ffffffffffffffffffffffffffffffffffffffff1603612761576040517f08c379a000000000000000000000000000000000000000000000000000000000815260040161275890613fb4565b60405180910390fd5b600073ffffffffffffffffffffffffffffffffffffffff168273ffffffffffffffffffffffffffffffffffffffff16036127d0576040517f08c379a00000000000000000000000000000000000000000000000000000000081526004016127c790614046565b60405180910390fd5b6127db838383612d31565b6000600160008573ffffffffffffffffffffffffffffffffffffffff1673ffffffffffffffffffffffffffffffffffffffff16815260200190815260200160002054905081811015612862576040517f08c379a0000000000000000000000000000000000000000000000000000000008152600401612859906140d8565b60405180910390fd5b818103600160008673ffffffffffffffffffffffffffffffffffffffff1673ffffffffffffffffffffffffffffffffffffffff1681526020019081526020016000208190555081600160008573ffffffffffffffffffffffffffffffffffffffff1673ffffffffffffffffffffffffffffffffffffffff16815260200190815260200160002060008282546128f791906137ec565b925050819055508273ffffffffffffffffffffffffffffffffffffffff168473ffffffffffffffffffffffffffffffffffffffff167fddf252ad1be2c89b69c2b068fc378daa952ba7f163c4a11628f55a4df523b3ef8460405161295b9190612f9e565b60405180910390a361296e848484612d36565b50505050565b6000600a5482131561299a57600280811115612993576129926130e0565b5b90506129b1565b600160028111156129ae576129ad6130e0565b5b90505b919050565b60005b600780549050811015612c68576003808111156129d9576129d86130e0565b5b60038111156129eb576129ea6130e0565b5b6006600060078481548110612a0357612a02613820565b5b9060005260206000200160009054906101000a900473ffffffffffffffffffffffffffffffffffffffff1673ffffffffffffffffffffffffffffffffffffffff1673ffffffffffffffffffffffffffffffffffffffff16815260200190815260200160002060020160019054906101000a900460ff166003811115612a8b57612a8a6130e0565b5b03612c5457600115156006600060078481548110612aac57612aab613820565b5b9060005260206000200160009054906101000a900473ffffffffffffffffffffffffffffffffffffffff1673ffffffffffffffffffffffffffffffffffffffff1673ffffffffffffffffffffffffffffffffffffffff16815260200190815260200160002060020160029054906101000a900460ff16151503612bc05781600954612b379190613553565b6006600060078481548110612b4f57612b4e613820565b5b9060005260206000200160009054906101000a900473ffffffffffffffffffffffffffffffffffffffff1673ffffffffffffffffffffffffffffffffffffffff1673ffffffffffffffffffffffffffffffffffffffff16815260200190815260200160002060010181905550612c53565b82600854612bce9190613553565b6006600060078481548110612be657612be5613820565b5b9060005260206000200160009054906101000a900473ffffffffffffffffffffffffffffffffffffffff1673ffffffffffffffffffffffffffffffffffffffff1673ffffffffffffffffffffffffffffffffffffffff168152602001908152602001600020600101819055505b5b600181612c6191906137ec565b90506129b9565b505050565b60008060009054906101000a900473ffffffffffffffffffffffffffffffffffffffff169050816000806101000a81548173ffffffffffffffffffffffffffffffffffffffff021916908373ffffffffffffffffffffffffffffffffffffffff1602179055508173ffffffffffffffffffffffffffffffffffffffff168173ffffffffffffffffffffffffffffffffffffffff167f8be0079c531659141344cd1fd0a4f28419497f9722a3daafe3b4186f6b6457e060405160405180910390a35050565b505050565b505050565b6040518060a00160405280600081526020016000815260200160006002811115612d6857612d676130e0565b5b815260200160006003811115612d8157612d806130e0565b5b81526020016000151581525090565b5080546000825590600052602060002090810190612dae9190612db1565b50565b5b80821115612dca576000816000905550600101612db2565b5090565b600081519050919050565b600082825260208201905092915050565b60005b83811015612e08578082015181840152602081019050612ded565b60008484015250505050565b6000601f19601f8301169050919050565b6000612e3082612dce565b612e3a8185612dd9565b9350612e4a818560208601612dea565b612e5381612e14565b840191505092915050565b60006020820190508181036000830152612e788184612e25565b905092915050565b600080fd5b600073ffffffffffffffffffffffffffffffffffffffff82169050919050565b6000612eb082612e85565b9050919050565b612ec081612ea5565b8114612ecb57600080fd5b50565b600081359050612edd81612eb7565b92915050565b6000819050919050565b612ef681612ee3565b8114612f0157600080fd5b50565b600081359050612f1381612eed565b92915050565b60008060408385031215612f3057612f2f612e80565b5b6000612f3e85828601612ece565b9250506020612f4f85828601612f04565b9150509250929050565b60008115159050919050565b612f6e81612f59565b82525050565b6000602082019050612f896000830184612f65565b92915050565b612f9881612ee3565b82525050565b6000602082019050612fb36000830184612f8f565b92915050565b600060208284031215612fcf57612fce612e80565b5b6000612fdd84828501612f04565b91505092915050565b600080600060608486031215612fff57612ffe612e80565b5b600061300d86828701612ece565b935050602061301e86828701612ece565b925050604061302f86828701612f04565b9150509250925092565b6000819050919050565b61304c81613039565b82525050565b60006020820190506130676000830184613043565b92915050565b600060ff82169050919050565b6130838161306d565b82525050565b600060208201905061309e600083018461307a565b92915050565b6000602082840312156130ba576130b9612e80565b5b60006130c884828501612ece565b91505092915050565b6130da81612ee3565b82525050565b7f4e487b7100000000000000000000000000000000000000000000000000000000600052602160045260246000fd5b600381106131205761311f6130e0565b5b50565b60008190506131318261310f565b919050565b600061314182613123565b9050919050565b61315181613136565b82525050565b60048110613168576131676130e0565b5b50565b600081905061317982613157565b919050565b60006131898261316b565b9050919050565b6131998161317e565b82525050565b6131a881612f59565b82525050565b60a0820160008201516131c460008501826130d1565b5060208201516131d760208501826130d1565b5060408201516131ea6040850182613148565b5060608201516131fd6060850182613190565b506080820151613210608085018261319f565b50505050565b600060a08201905061322b60008301846131ae565b92915050565b61323a81612ea5565b82525050565b60006020820190506132556000830184613231565b92915050565b6000806040838503121561327257613271612e80565b5b600061328085828601612ece565b925050602061329185828601612ece565b9150509250929050565b600081519050919050565b600082825260208201905092915050565b6000819050602082019050919050565b6132d081612ea5565b82525050565b60006132e283836132c7565b60208301905092915050565b6000602082019050919050565b60006133068261329b565b61331081856132a6565b935061331b836132b7565b8060005b8381101561334c57815161333388826132d6565b975061333e836132ee565b92505060018101905061331f565b5085935050505092915050565b6000602082019050818103600083015261337381846132fb565b905092915050565b7f4e487b7100000000000000000000000000000000000000000000000000000000600052601160045260246000fd5b60006133b582612ee3565b91506133c083612ee3565b92508282026133ce81612ee3565b915082820484148315176133e5576133e461337b565b5b5092915050565b7f796f75206861766520746f6f206d756368204544465400000000000000000000600082015250565b6000613422601683612dd9565b915061342d826133ec565b602082019050919050565b6000602082019050818103600083015261345181613415565b9050919050565b7f4e487b7100000000000000000000000000000000000000000000000000000000600052602260045260246000fd5b6000600282049050600182168061349f57607f821691505b6020821081036134b2576134b1613458565b5b50919050565b7f776169742074696c6c20796f757220626574206861732066696e697368656400600082015250565b60006134ee601f83612dd9565b91506134f9826134b8565b602082019050919050565b6000602082019050818103600083015261351d816134e1565b9050919050565b7f4e487b7100000000000000000000000000000000000000000000000000000000600052601260045260246000fd5b600061355e82612ee3565b915061356983612ee3565b92508261357957613578613524565b5b828204905092915050565b600081905092915050565b50565b600061359f600083613584565b91506135aa8261358f565b600082019050919050565b60006135c082613592565b9150819050919050565b7f526577617264207472616e73666572206661696c65642c20706c65617365207260008201527f6574727900000000000000000000000000000000000000000000000000000000602082015250565b6000613626602483612dd9565b9150613631826135ca565b604082019050919050565b6000602082019050818103600083015261365581613619565b9050919050565b7f4f776e61626c653a2063616c6c6572206973206e6f7420746865206f776e6572600082015250565b6000613692602083612dd9565b915061369d8261365c565b602082019050919050565b600060208201905081810360008301526136c181613685565b9050919050565b7f647261696e207472616e73666572206661696c65642c20706c6561736520726560008201527f7472790000000000000000000000000000000000000000000000000000000000602082015250565b6000613724602383612dd9565b915061372f826136c8565b604082019050919050565b6000602082019050818103600083015261375381613717565b9050919050565b7f45524332303a207472616e7366657220616d6f756e742065786365656473206160008201527f6c6c6f77616e6365000000000000000000000000000000000000000000000000602082015250565b60006137b6602883612dd9565b91506137c18261375a565b604082019050919050565b600060208201905081810360008301526137e5816137a9565b9050919050565b60006137f782612ee3565b915061380283612ee3565b925082820190508082111561381a5761381961337b565b5b92915050565b7f4e487b7100000000000000000000000000000000000000000000000000000000600052603260045260246000fd5b60006040820190506138646000830185613231565b6138716020830184612f65565b9392505050565b600060a08201905061388d6000830188612f8f565b61389a6020830187612f8f565b6138a76040830186612f8f565b6138b46060830185612f8f565b6138c16080830184613043565b9695505050505050565b7f6d757374206e6f742062657474696e6720746f2065786563757465207468697360008201527f2066756e6374696f6e0000000000000000000000000000000000000000000000602082015250565b6000613927602983612dd9565b9150613932826138cb565b604082019050919050565b600060208201905081810360008301526139568161391a565b9050919050565b7f6e6f7420656e6f75676820454446540000000000000000000000000000000000600082015250565b6000613993600f83612dd9565b915061399e8261395d565b602082019050919050565b600060208201905081810360008301526139c281613986565b9050919050565b7f62657420706f6f6c2069732066756c6c00000000000000000000000000000000600082015250565b60006139ff601083612dd9565b9150613a0a826139c9565b602082019050919050565b60006020820190508181036000830152613a2e816139f2565b9050919050565b7f7472616e73666572206572633230206661696c65642c20706c6561736520726560008201527f7472790000000000000000000000000000000000000000000000000000000000602082015250565b6000613a91602383612dd9565b9150613a9c82613a35565b604082019050919050565b60006020820190508181036000830152613ac081613a84565b9050919050565b6000606082019050613adc6000830186612f8f565b613ae96020830185612f8f565b613af66040830184612f65565b949350505050565b600069ffffffffffffffffffff82169050919050565b613b1d81613afe565b8114613b2857600080fd5b50565b600081519050613b3a81613b14565b92915050565b613b4981613039565b8114613b5457600080fd5b50565b600081519050613b6681613b40565b92915050565b600081519050613b7b81612eed565b92915050565b600080600080600060a08688031215613b9d57613b9c612e80565b5b6000613bab88828901613b2b565b9550506020613bbc88828901613b57565b9450506040613bcd88828901613b6c565b9350506060613bde88828901613b6c565b9250506080613bef88828901613b2b565b9150509295509295909350565b7f45524332303a2064656372656173656420616c6c6f77616e63652062656c6f7760008201527f207a65726f000000000000000000000000000000000000000000000000000000602082015250565b6000613c58602583612dd9565b9150613c6382613bfc565b604082019050919050565b60006020820190508181036000830152613c8781613c4b565b9050919050565b7f796f75206d7573742073656e642065786163746c79207468652062657420766160008201527f6c75650000000000000000000000000000000000000000000000000000000000602082015250565b6000613cea602383612dd9565b9150613cf582613c8e565b604082019050919050565b60006020820190508181036000830152613d1981613cdd565b9050919050565b7f4f776e61626c653a206e6577206f776e657220697320746865207a65726f206160008201527f6464726573730000000000000000000000000000000000000000000000000000602082015250565b6000613d7c602683612dd9565b9150613d8782613d20565b604082019050919050565b60006020820190508181036000830152613dab81613d6f565b9050919050565b7f45524332303a206d696e7420746f20746865207a65726f206164647265737300600082015250565b6000613de8601f83612dd9565b9150613df382613db2565b602082019050919050565b60006020820190508181036000830152613e1781613ddb565b9050919050565b7f45524332303a20617070726f76652066726f6d20746865207a65726f2061646460008201527f7265737300000000000000000000000000000000000000000000000000000000602082015250565b6000613e7a602483612dd9565b9150613e8582613e1e565b604082019050919050565b60006020820190508181036000830152613ea981613e6d565b9050919050565b7f45524332303a20617070726f766520746f20746865207a65726f20616464726560008201527f7373000000000000000000000000000000000000000000000000000000000000602082015250565b6000613f0c602283612dd9565b9150613f1782613eb0565b604082019050919050565b60006020820190508181036000830152613f3b81613eff565b9050919050565b7f45524332303a207472616e736665722066726f6d20746865207a65726f20616460008201527f6472657373000000000000000000000000000000000000000000000000000000602082015250565b6000613f9e602583612dd9565b9150613fa982613f42565b604082019050919050565b60006020820190508181036000830152613fcd81613f91565b9050919050565b7f45524332303a207472616e7366657220746f20746865207a65726f206164647260008201527f6573730000000000000000000000000000000000000000000000000000000000602082015250565b6000614030602383612dd9565b915061403b82613fd4565b604082019050919050565b6000602082019050818103600083015261405f81614023565b9050919050565b7f45524332303a207472616e7366657220616d6f756e742065786365656473206260008201527f616c616e63650000000000000000000000000000000000000000000000000000602082015250565b60006140c2602683612dd9565b91506140cd82614066565b604082019050919050565b600060208201905081810360008301526140f1816140b5565b905091905056fea2646970667358221220f1d2f36e397f336137751555e0c947ae138227523c0138b69b4170884623b18364736f6c63430008120033",
  "linkReferences": {},
  "deployedLinkReferences": {}
}