{
  "_format": "hh-sol-artifact-1",
  "contractName": "CryptoBet",
  "sourceName": "contracts/CryptoBet.sol",
  "abi": [
    {
      "inputs": [
        {
          "internalType": "address",
          "name": "_oracleAddress",
          "type": "address"
        }
      ],
      "stateMutability": "nonpayable",
      "type": "constructor"
    },
    {
      "anonymous": false,
      "inputs": [
        {
          "indexed": true,
          "internalType": "address",
          "name": "owner",
          "type": "address"
        },
        {
          "indexed": true,
          "internalType": "address",
          "name": "spender",
          "type": "address"
        },
        {
          "indexed": false,
          "internalType": "uint256",
          "name": "value",
          "type": "uint256"
        }
      ],
      "name": "Approval",
      "type": "event"
    },
    {
      "anonymous": false,
      "inputs": [
        {
          "indexed": true,
          "internalType": "address",
          "name": "previousOwner",
          "type": "address"
        },
        {
          "indexed": true,
          "internalType": "address",
          "name": "newOwner",
          "type": "address"
        }
      ],
      "name": "OwnershipTransferred",
      "type": "event"
    },
    {
      "anonymous": false,
      "inputs": [
        {
          "indexed": true,
          "internalType": "address",
          "name": "from",
          "type": "address"
        },
        {
          "indexed": true,
          "internalType": "address",
          "name": "to",
          "type": "address"
        },
        {
          "indexed": false,
          "internalType": "uint256",
          "name": "value",
          "type": "uint256"
        }
      ],
      "name": "Transfer",
      "type": "event"
    },
    {
      "anonymous": false,
      "inputs": [
        {
          "indexed": false,
          "internalType": "address",
          "name": "userAddr",
          "type": "address"
        },
        {
          "indexed": false,
          "internalType": "bool",
          "name": "result",
          "type": "bool"
        }
      ],
      "name": "evt_betFinish",
      "type": "event"
    },
    {
      "anonymous": false,
      "inputs": [
        {
          "indexed": false,
          "internalType": "address",
          "name": "userAddr",
          "type": "address"
        },
        {
          "indexed": false,
          "internalType": "uint256",
          "name": "totalBet",
          "type": "uint256"
        },
        {
          "indexed": false,
          "internalType": "uint256",
          "name": "betBalance",
          "type": "uint256"
        },
        {
          "indexed": false,
          "internalType": "bool",
          "name": "token",
          "type": "bool"
        }
      ],
      "name": "evt_newBet",
      "type": "event"
    },
    {
      "anonymous": false,
      "inputs": [
        {
          "indexed": false,
          "internalType": "uint256",
          "name": "winners",
          "type": "uint256"
        },
        {
          "indexed": false,
          "internalType": "uint256",
          "name": "winnersErc20",
          "type": "uint256"
        },
        {
          "indexed": false,
          "internalType": "uint256",
          "name": "loosers",
          "type": "uint256"
        },
        {
          "indexed": false,
          "internalType": "uint256",
          "name": "loosersErc20",
          "type": "uint256"
        },
        {
          "indexed": false,
          "internalType": "int256",
          "name": "newPriceFeed",
          "type": "int256"
        }
      ],
      "name": "evt_nextRound",
      "type": "event"
    },
    {
      "stateMutability": "payable",
      "type": "fallback"
    },
    {
      "inputs": [
        {
          "internalType": "address",
          "name": "owner",
          "type": "address"
        },
        {
          "internalType": "address",
          "name": "spender",
          "type": "address"
        }
      ],
      "name": "allowance",
      "outputs": [
        {
          "internalType": "uint256",
          "name": "",
          "type": "uint256"
        }
      ],
      "stateMutability": "view",
      "type": "function"
    },
    {
      "inputs": [
        {
          "internalType": "address",
          "name": "spender",
          "type": "address"
        },
        {
          "internalType": "uint256",
          "name": "amount",
          "type": "uint256"
        }
      ],
      "name": "approve",
      "outputs": [
        {
          "internalType": "bool",
          "name": "",
          "type": "bool"
        }
      ],
      "stateMutability": "nonpayable",
      "type": "function"
    },
    {
      "inputs": [
        {
          "internalType": "address",
          "name": "account",
          "type": "address"
        }
      ],
      "name": "balanceOf",
      "outputs": [
        {
          "internalType": "uint256",
          "name": "",
          "type": "uint256"
        }
      ],
      "stateMutability": "view",
      "type": "function"
    },
    {
      "inputs": [],
      "name": "claimBet",
      "outputs": [],
      "stateMutability": "nonpayable",
      "type": "function"
    },
    {
      "inputs": [],
      "name": "currentBetBalance",
      "outputs": [
        {
          "internalType": "uint256",
          "name": "",
          "type": "uint256"
        }
      ],
      "stateMutability": "view",
      "type": "function"
    },
    {
      "inputs": [],
      "name": "currentBetBalanceErc20",
      "outputs": [
        {
          "internalType": "uint256",
          "name": "",
          "type": "uint256"
        }
      ],
      "stateMutability": "view",
      "type": "function"
    },
    {
      "inputs": [],
      "name": "currentPriceFeed",
      "outputs": [
        {
          "internalType": "int256",
          "name": "",
          "type": "int256"
        }
      ],
      "stateMutability": "view",
      "type": "function"
    },
    {
      "inputs": [],
      "name": "decimals",
      "outputs": [
        {
          "internalType": "uint8",
          "name": "",
          "type": "uint8"
        }
      ],
      "stateMutability": "view",
      "type": "function"
    },
    {
      "inputs": [
        {
          "internalType": "address",
          "name": "spender",
          "type": "address"
        },
        {
          "internalType": "uint256",
          "name": "subtractedValue",
          "type": "uint256"
        }
      ],
      "name": "decreaseAllowance",
      "outputs": [
        {
          "internalType": "bool",
          "name": "",
          "type": "bool"
        }
      ],
      "stateMutability": "nonpayable",
      "type": "function"
    },
    {
      "inputs": [
        {
          "internalType": "uint256",
          "name": "_value",
          "type": "uint256"
        }
      ],
      "name": "drainTheFund",
      "outputs": [],
      "stateMutability": "nonpayable",
      "type": "function"
    },
    {
      "inputs": [],
      "name": "getBetters",
      "outputs": [
        {
          "internalType": "address[]",
          "name": "",
          "type": "address[]"
        }
      ],
      "stateMutability": "view",
      "type": "function"
    },
    {
      "inputs": [],
      "name": "getLatestPrice",
      "outputs": [
        {
          "internalType": "int256",
          "name": "",
          "type": "int256"
        }
      ],
      "stateMutability": "view",
      "type": "function"
    },
    {
      "inputs": [
        {
          "internalType": "address",
          "name": "_addr",
          "type": "address"
        }
      ],
      "name": "getOneBetter",
      "outputs": [
        {
          "components": [
            {
              "internalType": "uint256",
              "name": "betValue",
              "type": "uint256"
            },
            {
              "internalType": "uint256",
              "name": "balance",
              "type": "uint256"
            },
            {
              "internalType": "enum CryptoBet.Expectations",
              "name": "expectStatus",
              "type": "uint8"
            },
            {
              "internalType": "enum CryptoBet.BetStatus",
              "name": "betStatus",
              "type": "uint8"
            },
            {
              "internalType": "bool",
              "name": "token",
              "type": "bool"
            }
          ],
          "internalType": "struct CryptoBet.UserBet",
          "name": "",
          "type": "tuple"
        }
      ],
      "stateMutability": "view",
      "type": "function"
    },
    {
      "inputs": [
        {
          "internalType": "address",
          "name": "spender",
          "type": "address"
        },
        {
          "internalType": "uint256",
          "name": "addedValue",
          "type": "uint256"
        }
      ],
      "name": "increaseAllowance",
      "outputs": [
        {
          "internalType": "bool",
          "name": "",
          "type": "bool"
        }
      ],
      "stateMutability": "nonpayable",
      "type": "function"
    },
    {
      "inputs": [],
      "name": "mintEDFT",
      "outputs": [],
      "stateMutability": "nonpayable",
      "type": "function"
    },
    {
      "inputs": [],
      "name": "name",
      "outputs": [
        {
          "internalType": "string",
          "name": "",
          "type": "string"
        }
      ],
      "stateMutability": "view",
      "type": "function"
    },
    {
      "inputs": [],
      "name": "nextRound",
      "outputs": [],
      "stateMutability": "nonpayable",
      "type": "function"
    },
    {
      "inputs": [],
      "name": "owner",
      "outputs": [
        {
          "internalType": "address",
          "name": "",
          "type": "address"
        }
      ],
      "stateMutability": "view",
      "type": "function"
    },
    {
      "inputs": [
        {
          "internalType": "uint256",
          "name": "_expectation",
          "type": "uint256"
        }
      ],
      "name": "registerBet",
      "outputs": [],
      "stateMutability": "payable",
      "type": "function"
    },
    {
      "inputs": [
        {
          "internalType": "uint256",
          "name": "_expectation",
          "type": "uint256"
        }
      ],
      "name": "registerBetErc20",
      "outputs": [],
      "stateMutability": "nonpayable",
      "type": "function"
    },
    {
      "inputs": [],
      "name": "renounceOwnership",
      "outputs": [],
      "stateMutability": "nonpayable",
      "type": "function"
    },
    {
      "inputs": [],
      "name": "symbol",
      "outputs": [
        {
          "internalType": "string",
          "name": "",
          "type": "string"
        }
      ],
      "stateMutability": "view",
      "type": "function"
    },
    {
      "inputs": [],
      "name": "totalSupply",
      "outputs": [
        {
          "internalType": "uint256",
          "name": "",
          "type": "uint256"
        }
      ],
      "stateMutability": "view",
      "type": "function"
    },
    {
      "inputs": [
        {
          "internalType": "address",
          "name": "recipient",
          "type": "address"
        },
        {
          "internalType": "uint256",
          "name": "amount",
          "type": "uint256"
        }
      ],
      "name": "transfer",
      "outputs": [
        {
          "internalType": "bool",
          "name": "",
          "type": "bool"
        }
      ],
      "stateMutability": "nonpayable",
      "type": "function"
    },
    {
      "inputs": [
        {
          "internalType": "address",
          "name": "sender",
          "type": "address"
        },
        {
          "internalType": "address",
          "name": "recipient",
          "type": "address"
        },
        {
          "internalType": "uint256",
          "name": "amount",
          "type": "uint256"
        }
      ],
      "name": "transferFrom",
      "outputs": [
        {
          "internalType": "bool",
          "name": "",
          "type": "bool"
        }
      ],
      "stateMutability": "nonpayable",
      "type": "function"
    },
    {
      "inputs": [
        {
          "internalType": "address",
          "name": "newOwner",
          "type": "address"
        }
      ],
      "name": "transferOwnership",
      "outputs": [],
      "stateMutability": "nonpayable",
      "type": "function"
    },
    {
      "stateMutability": "payable",
      "type": "receive"
    }
  ],
  "bytecode": "0x6080604052605a600b553480156200001657600080fd5b50604051620049a4380380620049a483398181016040528101906200003c91906200040a565b6040518060400160405280601181526020017f456173794461707046726565546f6b656e0000000000000000000000000000008152506040518060400160405280600481526020017f4544465400000000000000000000000000000000000000000000000000000000815250620000c8620000bc6200015160201b60201c565b6200015960201b60201c565b8160049081620000d99190620006b6565b508060059081620000eb9190620006b6565b50505080600c60016101000a81548173ffffffffffffffffffffffffffffffffffffffff021916908373ffffffffffffffffffffffffffffffffffffffff1602179055506200014a33683635c9adc5dea000006200021d60201b60201c565b50620008b8565b600033905090565b60008060009054906101000a900473ffffffffffffffffffffffffffffffffffffffff169050816000806101000a81548173ffffffffffffffffffffffffffffffffffffffff021916908373ffffffffffffffffffffffffffffffffffffffff1602179055508173ffffffffffffffffffffffffffffffffffffffff168173ffffffffffffffffffffffffffffffffffffffff167f8be0079c531659141344cd1fd0a4f28419497f9722a3daafe3b4186f6b6457e060405160405180910390a35050565b600073ffffffffffffffffffffffffffffffffffffffff168273ffffffffffffffffffffffffffffffffffffffff16036200028f576040517f08c379a00000000000000000000000000000000000000000000000000000000081526004016200028690620007fe565b60405180910390fd5b620002a3600083836200039660201b60201c565b8060036000828254620002b791906200084f565b9250508190555080600160008473ffffffffffffffffffffffffffffffffffffffff1673ffffffffffffffffffffffffffffffffffffffff16815260200190815260200160002060008282546200030f91906200084f565b925050819055508173ffffffffffffffffffffffffffffffffffffffff16600073ffffffffffffffffffffffffffffffffffffffff167fddf252ad1be2c89b69c2b068fc378daa952ba7f163c4a11628f55a4df523b3ef836040516200037691906200089b565b60405180910390a362000392600083836200039b60201b60201c565b5050565b505050565b505050565b600080fd5b600073ffffffffffffffffffffffffffffffffffffffff82169050919050565b6000620003d282620003a5565b9050919050565b620003e481620003c5565b8114620003f057600080fd5b50565b6000815190506200040481620003d9565b92915050565b600060208284031215620004235762000422620003a0565b5b60006200043384828501620003f3565b91505092915050565b600081519050919050565b7f4e487b7100000000000000000000000000000000000000000000000000000000600052604160045260246000fd5b7f4e487b7100000000000000000000000000000000000000000000000000000000600052602260045260246000fd5b60006002820490506001821680620004be57607f821691505b602082108103620004d457620004d362000476565b5b50919050565b60008190508160005260206000209050919050565b60006020601f8301049050919050565b600082821b905092915050565b6000600883026200053e7fffffffffffffffffffffffffffffffffffffffffffffffffffffffffffffffff82620004ff565b6200054a8683620004ff565b95508019841693508086168417925050509392505050565b6000819050919050565b6000819050919050565b600062000597620005916200058b8462000562565b6200056c565b62000562565b9050919050565b6000819050919050565b620005b38362000576565b620005cb620005c2826200059e565b8484546200050c565b825550505050565b600090565b620005e2620005d3565b620005ef818484620005a8565b505050565b5b8181101562000617576200060b600082620005d8565b600181019050620005f5565b5050565b601f82111562000666576200063081620004da565b6200063b84620004ef565b810160208510156200064b578190505b620006636200065a85620004ef565b830182620005f4565b50505b505050565b600082821c905092915050565b60006200068b600019846008026200066b565b1980831691505092915050565b6000620006a6838362000678565b9150826002028217905092915050565b620006c1826200043c565b67ffffffffffffffff811115620006dd57620006dc62000447565b5b620006e98254620004a5565b620006f68282856200061b565b600060209050601f8311600181146200072e576000841562000719578287015190505b62000725858262000698565b86555062000795565b601f1984166200073e86620004da565b60005b82811015620007685784890151825560018201915060208501945060208101905062000741565b8683101562000788578489015162000784601f89168262000678565b8355505b6001600288020188555050505b505050505050565b600082825260208201905092915050565b7f45524332303a206d696e7420746f20746865207a65726f206164647265737300600082015250565b6000620007e6601f836200079d565b9150620007f382620007ae565b602082019050919050565b600060208201905081810360008301526200081981620007d7565b9050919050565b7f4e487b7100000000000000000000000000000000000000000000000000000000600052601160045260246000fd5b60006200085c8262000562565b9150620008698362000562565b925082820190508082111562000884576200088362000820565b5b92915050565b620008958162000562565b82525050565b6000602082019050620008b260008301846200088a565b92915050565b6140dc80620008c86000396000f3fe6080604052600436106101855760003560e01c806370a08231116100d1578063a9059cbb1161008a578063dd62ed3e11610064578063dd62ed3e1461055b578063f2fde38b14610598578063fbf9dab7146105c1578063febfba3e146105ec5761018c565b8063a9059cbb146104d7578063ab259f2914610514578063cc24b7dc146105305761018c565b806370a08231146103c5578063715018a6146104025780638da5cb5b146104195780638e15f4731461044457806395d89b411461046f578063a457c2d71461049a5761018c565b806323b872dd1161013e5780633950935111610118578063395093511461030b5780633e1bba5b1461034857806347e40553146103855780636a25a8ef1461039c5761018c565b806323b872dd146102785780632fa950aa146102b5578063313ce567146102e05761018c565b806301d386bc1461018e57806306fdde03146101a5578063095ea7b3146101d05780630e02dcd61461020d57806318160ddd146102245780632086fde21461024f5761018c565b3661018c57005b005b34801561019a57600080fd5b506101a3610617565b005b3480156101b157600080fd5b506101ba610677565b6040516101c79190612dfe565b60405180910390f35b3480156101dc57600080fd5b506101f760048036038101906101f29190612eb9565b610709565b6040516102049190612f14565b60405180910390f35b34801561021957600080fd5b50610222610727565b005b34801561023057600080fd5b50610239610b3a565b6040516102469190612f3e565b60405180910390f35b34801561025b57600080fd5b5061027660048036038101906102719190612f59565b610b44565b005b34801561028457600080fd5b5061029f600480360381019061029a9190612f86565b610c70565b6040516102ac9190612f14565b60405180910390f35b3480156102c157600080fd5b506102ca610d68565b6040516102d79190612ff2565b60405180910390f35b3480156102ec57600080fd5b506102f5610d6e565b6040516103029190613029565b60405180910390f35b34801561031757600080fd5b50610332600480360381019061032d9190612eb9565b610d77565b60405161033f9190612f14565b60405180910390f35b34801561035457600080fd5b5061036f600480360381019061036a9190613044565b610e23565b60405161037c91906131b6565b60405180910390f35b34801561039157600080fd5b5061039a610f21565b005b3480156103a857600080fd5b506103c360048036038101906103be9190612f59565b6114f2565b005b3480156103d157600080fd5b506103ec60048036038101906103e79190613044565b611924565b6040516103f99190612f3e565b60405180910390f35b34801561040e57600080fd5b5061041761196d565b005b34801561042557600080fd5b5061042e6119f5565b60405161043b91906131e0565b60405180910390f35b34801561045057600080fd5b50610459611a1e565b6040516104669190612ff2565b60405180910390f35b34801561047b57600080fd5b50610484611abf565b6040516104919190612dfe565b60405180910390f35b3480156104a657600080fd5b506104c160048036038101906104bc9190612eb9565b611b51565b6040516104ce9190612f14565b60405180910390f35b3480156104e357600080fd5b506104fe60048036038101906104f99190612eb9565b611c3c565b60405161050b9190612f14565b60405180910390f35b61052e60048036038101906105299190612f59565b611c5a565b005b34801561053c57600080fd5b50610545611fc4565b6040516105529190612f3e565b60405180910390f35b34801561056757600080fd5b50610582600480360381019061057d91906131fb565b611fca565b60405161058f9190612f3e565b60405180910390f35b3480156105a457600080fd5b506105bf60048036038101906105ba9190613044565b612051565b005b3480156105cd57600080fd5b506105d6612148565b6040516105e391906132f9565b60405180910390f35b3480156105f857600080fd5b506106016121d6565b60405161060e9190612f3e565b60405180910390f35b601e61062233611924565b10610662576040517f08c379a000000000000000000000000000000000000000000000000000000000815260040161065990613367565b60405180910390fd5b610675336801a055690d9db800006121dc565b565b606060048054610686906133b6565b80601f01602080910402602001604051908101604052809291908181526020018280546106b2906133b6565b80156106ff5780601f106106d4576101008083540402835291602001916106ff565b820191906000526020600020905b8154815290600101906020018083116106e257829003601f168201915b5050505050905090565b600061071d61071661233c565b8484612344565b6001905092915050565b6002600381111561073b5761073a613080565b5b600381111561074d5761074c613080565b5b600660003373ffffffffffffffffffffffffffffffffffffffff1673ffffffffffffffffffffffffffffffffffffffff16815260200190815260200160002060020160019054906101000a900460ff1660038111156107af576107ae613080565b5b148061083f57506003808111156107c9576107c8613080565b5b60038111156107db576107da613080565b5b600660003373ffffffffffffffffffffffffffffffffffffffff1673ffffffffffffffffffffffffffffffffffffffff16815260200190815260200160002060020160019054906101000a900460ff16600381111561083d5761083c613080565b5b145b61087e576040517f08c379a000000000000000000000000000000000000000000000000000000000815260040161087590613433565b60405180910390fd5b60038081111561089157610890613080565b5b60038111156108a3576108a2613080565b5b600660003373ffffffffffffffffffffffffffffffffffffffff1673ffffffffffffffffffffffffffffffffffffffff16815260200190815260200160002060020160019054906101000a900460ff16600381111561090557610904613080565b5b148015610925575060001515600c60009054906101000a900460ff161515145b15610b14576001600c60006101000a81548160ff02191690831515021790555060011515600660003373ffffffffffffffffffffffffffffffffffffffff1673ffffffffffffffffffffffffffffffffffffffff16815260200190815260200160002060020160029054906101000a900460ff16151503610a04576109ff33670de0b6b3a7640000600660003373ffffffffffffffffffffffffffffffffffffffff1673ffffffffffffffffffffffffffffffffffffffff168152602001908152602001600020600101546109fa9190613482565b6121dc565b610b13565b60006064600b54600660003373ffffffffffffffffffffffffffffffffffffffff1673ffffffffffffffffffffffffffffffffffffffff16815260200190815260200160002060010154610a589190613482565b610a6291906134f3565b905060003373ffffffffffffffffffffffffffffffffffffffff1682604051610a8a90613555565b60006040518083038185875af1925050503d8060008114610ac7576040519150601f19603f3d011682016040523d82523d6000602084013e610acc565b606091505b5050905080610b10576040517f08c379a0000000000000000000000000000000000000000000000000000000008152600401610b07906135dc565b60405180910390fd5b50505b5b610b1d3361250d565b6000600c60006101000a81548160ff021916908315150217905550565b6000600354905090565b610b4c61233c565b73ffffffffffffffffffffffffffffffffffffffff16610b6a6119f5565b73ffffffffffffffffffffffffffffffffffffffff1614610bc0576040517f08c379a0000000000000000000000000000000000000000000000000000000008152600401610bb790613648565b60405180910390fd5b60003373ffffffffffffffffffffffffffffffffffffffff1682604051610be690613555565b60006040518083038185875af1925050503d8060008114610c23576040519150601f19603f3d011682016040523d82523d6000602084013e610c28565b606091505b5050905080610c6c576040517f08c379a0000000000000000000000000000000000000000000000000000000008152600401610c63906136da565b60405180910390fd5b5050565b6000610c7d848484612692565b6000600260008673ffffffffffffffffffffffffffffffffffffffff1673ffffffffffffffffffffffffffffffffffffffff1681526020019081526020016000206000610cc861233c565b73ffffffffffffffffffffffffffffffffffffffff1673ffffffffffffffffffffffffffffffffffffffff16815260200190815260200160002054905082811015610d48576040517f08c379a0000000000000000000000000000000000000000000000000000000008152600401610d3f9061376c565b60405180910390fd5b610d5c85610d5461233c565b858403612344565b60019150509392505050565b600a5481565b60006012905090565b6000610e19610d8461233c565b848460026000610d9261233c565b73ffffffffffffffffffffffffffffffffffffffff1673ffffffffffffffffffffffffffffffffffffffff16815260200190815260200160002060008873ffffffffffffffffffffffffffffffffffffffff1673ffffffffffffffffffffffffffffffffffffffff16815260200190815260200160002054610e14919061378c565b612344565b6001905092915050565b610e2b612cdb565b600660008373ffffffffffffffffffffffffffffffffffffffff1673ffffffffffffffffffffffffffffffffffffffff1681526020019081526020016000206040518060a001604052908160008201548152602001600182015481526020016002820160009054906101000a900460ff166002811115610eae57610ead613080565b5b6002811115610ec057610ebf613080565b5b81526020016002820160019054906101000a900460ff166003811115610ee957610ee8613080565b5b6003811115610efb57610efa613080565b5b81526020016002820160029054906101000a900460ff1615151515815250509050919050565b610f2961233c565b73ffffffffffffffffffffffffffffffffffffffff16610f476119f5565b73ffffffffffffffffffffffffffffffffffffffff1614610f9d576040517f08c379a0000000000000000000000000000000000000000000000000000000008152600401610f9490613648565b60405180910390fd5b6000610fa7611a1e565b90506000806000806000610fba86612914565b905085600a8190555060005b60078054905081101561148457816002811115610fe657610fe5613080565b5b6006600060078481548110610ffe57610ffd6137c0565b5b9060005260206000200160009054906101000a900473ffffffffffffffffffffffffffffffffffffffff1673ffffffffffffffffffffffffffffffffffffffff1673ffffffffffffffffffffffffffffffffffffffff16815260200190815260200160002060020160009054906101000a900460ff16600281111561108657611085613080565b5b0361127f5760038081111561109e5761109d613080565b5b60066000600784815481106110b6576110b56137c0565b5b9060005260206000200160009054906101000a900473ffffffffffffffffffffffffffffffffffffffff1673ffffffffffffffffffffffffffffffffffffffff1673ffffffffffffffffffffffffffffffffffffffff16815260200190815260200160002060020160016101000a81548160ff021916908360038111156111405761113f613080565b5b0217905550600115156006600060078481548110611161576111606137c0565b5b9060005260206000200160009054906101000a900473ffffffffffffffffffffffffffffffffffffffff1673ffffffffffffffffffffffffffffffffffffffff1673ffffffffffffffffffffffffffffffffffffffff16815260200190815260200160002060020160029054906101000a900460ff161515036111f2576001856111eb919061378c565b9450611202565b6001866111ff919061378c565b95505b7fd07d7f6a78697c9d8a61e2607cfcbc8ea25155827e936a90fc54504e0208526e60078281548110611237576112366137c0565b5b9060005260206000200160009054906101000a900473ffffffffffffffffffffffffffffffffffffffff1660016040516112729291906137ef565b60405180910390a1611470565b6002600381111561129357611292613080565b5b60066000600784815481106112ab576112aa6137c0565b5b9060005260206000200160009054906101000a900473ffffffffffffffffffffffffffffffffffffffff1673ffffffffffffffffffffffffffffffffffffffff1673ffffffffffffffffffffffffffffffffffffffff16815260200190815260200160002060020160016101000a81548160ff0219169083600381111561133557611334613080565b5b0217905550600115156006600060078481548110611356576113556137c0565b5b9060005260206000200160009054906101000a900473ffffffffffffffffffffffffffffffffffffffff1673ffffffffffffffffffffffffffffffffffffffff1673ffffffffffffffffffffffffffffffffffffffff16815260200190815260200160002060020160029054906101000a900460ff161515036113e7576001836113e0919061378c565b92506113f7565b6001846113f4919061378c565b93505b7fd07d7f6a78697c9d8a61e2607cfcbc8ea25155827e936a90fc54504e0208526e6007828154811061142c5761142b6137c0565b5b9060005260206000200160009054906101000a900473ffffffffffffffffffffffffffffffffffffffff1660006040516114679291906137ef565b60405180910390a15b60018161147d919061378c565b9050610fc6565b5061148f8585612956565b7fa1351cd2eb21c920d63e56d59a0f565fbe4888fc7766ea27a1285eb589c4030b85858585600a546040516114c8959493929190613818565b60405180910390a1600760006114de9190612d30565b600860009055600960009055505050505050565b6000600381111561150657611505613080565b5b600381111561151857611517613080565b5b600660003373ffffffffffffffffffffffffffffffffffffffff1673ffffffffffffffffffffffffffffffffffffffff16815260200190815260200160002060020160019054906101000a900460ff16600381111561157a57611579613080565b5b146115ba576040517f08c379a00000000000000000000000000000000000000000000000000000000081526004016115b1906138dd565b60405180910390fd5b600a6115c533611924565b1015611606576040517f08c379a00000000000000000000000000000000000000000000000000000000081526004016115fd90613949565b60405180910390fd5b6127106007805490501061164f576040517f08c379a0000000000000000000000000000000000000000000000000000000008152600401611646906139b5565b60405180910390fd5b61166133678ac7230489e80000610d77565b50600061167e336116706119f5565b678ac7230489e80000610c70565b905060011515811515146116c7576040517f08c379a00000000000000000000000000000000000000000000000000000000081526004016116be90613a47565b60405180910390fd5b6007339080600181540180825580915050600190039060005260206000200160009091909190916101000a81548173ffffffffffffffffffffffffffffffffffffffff021916908373ffffffffffffffffffffffffffffffffffffffff160217905550600a600660003373ffffffffffffffffffffffffffffffffffffffff1673ffffffffffffffffffffffffffffffffffffffff1681526020019081526020016000206000018190555081600281111561178557611784613080565b5b600660003373ffffffffffffffffffffffffffffffffffffffff1673ffffffffffffffffffffffffffffffffffffffff16815260200190815260200160002060020160006101000a81548160ff021916908360028111156117e9576117e8613080565b5b02179055506001600381111561180257611801613080565b5b600660003373ffffffffffffffffffffffffffffffffffffffff1673ffffffffffffffffffffffffffffffffffffffff16815260200190815260200160002060020160016101000a81548160ff0219169083600381111561186657611865613080565b5b02179055506001600660003373ffffffffffffffffffffffffffffffffffffffff1673ffffffffffffffffffffffffffffffffffffffff16815260200190815260200160002060020160026101000a81548160ff021916908315150217905550600a6009546118d5919061378c565b6009819055507f53a2d159a5c443ff6dcbefb0ff3d6bf55ad19ba8ed20c64052f01b85460f0acc3360078054905060095460016040516119189493929190613a67565b60405180910390a15050565b6000600160008373ffffffffffffffffffffffffffffffffffffffff1673ffffffffffffffffffffffffffffffffffffffff168152602001908152602001600020549050919050565b61197561233c565b73ffffffffffffffffffffffffffffffffffffffff166119936119f5565b73ffffffffffffffffffffffffffffffffffffffff16146119e9576040517f08c379a00000000000000000000000000000000000000000000000000000000081526004016119e090613648565b60405180910390fd5b6119f36000612c0d565b565b60008060009054906101000a900473ffffffffffffffffffffffffffffffffffffffff16905090565b600080600c60019054906101000a900473ffffffffffffffffffffffffffffffffffffffff1673ffffffffffffffffffffffffffffffffffffffff1663feaf968c6040518163ffffffff1660e01b815260040160a060405180830381865afa158015611a8e573d6000803e3d6000fd5b505050506040513d601f19601f82011682018060405250810190611ab29190613b2f565b5050509150508091505090565b606060058054611ace906133b6565b80601f0160208091040260200160405190810160405280929190818152602001828054611afa906133b6565b8015611b475780601f10611b1c57610100808354040283529160200191611b47565b820191906000526020600020905b815481529060010190602001808311611b2a57829003601f168201915b5050505050905090565b60008060026000611b6061233c565b73ffffffffffffffffffffffffffffffffffffffff1673ffffffffffffffffffffffffffffffffffffffff16815260200190815260200160002060008573ffffffffffffffffffffffffffffffffffffffff1673ffffffffffffffffffffffffffffffffffffffff16815260200190815260200160002054905082811015611c1d576040517f08c379a0000000000000000000000000000000000000000000000000000000008152600401611c1490613c1c565b60405180910390fd5b611c31611c2861233c565b85858403612344565b600191505092915050565b6000611c50611c4961233c565b8484612692565b6001905092915050565b60006003811115611c6e57611c6d613080565b5b6003811115611c8057611c7f613080565b5b600660003373ffffffffffffffffffffffffffffffffffffffff1673ffffffffffffffffffffffffffffffffffffffff16815260200190815260200160002060020160019054906101000a900460ff166003811115611ce257611ce1613080565b5b14611d22576040517f08c379a0000000000000000000000000000000000000000000000000000000008152600401611d19906138dd565b60405180910390fd5b670de0b6b3a76400003414611d6c576040517f08c379a0000000000000000000000000000000000000000000000000000000008152600401611d6390613cae565b60405180910390fd5b61271060078054905010611db5576040517f08c379a0000000000000000000000000000000000000000000000000000000008152600401611dac906139b5565b60405180910390fd5b6007339080600181540180825580915050600190039060005260206000200160009091909190916101000a81548173ffffffffffffffffffffffffffffffffffffffff021916908373ffffffffffffffffffffffffffffffffffffffff160217905550670de0b6b3a7640000600660003373ffffffffffffffffffffffffffffffffffffffff1673ffffffffffffffffffffffffffffffffffffffff16815260200190815260200160002060000181905550806002811115611e7a57611e79613080565b5b600660003373ffffffffffffffffffffffffffffffffffffffff1673ffffffffffffffffffffffffffffffffffffffff16815260200190815260200160002060020160006101000a81548160ff02191690836002811115611ede57611edd613080565b5b021790555060016003811115611ef757611ef6613080565b5b600660003373ffffffffffffffffffffffffffffffffffffffff1673ffffffffffffffffffffffffffffffffffffffff16815260200190815260200160002060020160016101000a81548160ff02191690836003811115611f5b57611f5a613080565b5b0217905550670de0b6b3a7640000600854611f76919061378c565b6008819055507f53a2d159a5c443ff6dcbefb0ff3d6bf55ad19ba8ed20c64052f01b85460f0acc336007805490506008546000604051611fb99493929190613a67565b60405180910390a150565b60085481565b6000600260008473ffffffffffffffffffffffffffffffffffffffff1673ffffffffffffffffffffffffffffffffffffffff16815260200190815260200160002060008373ffffffffffffffffffffffffffffffffffffffff1673ffffffffffffffffffffffffffffffffffffffff16815260200190815260200160002054905092915050565b61205961233c565b73ffffffffffffffffffffffffffffffffffffffff166120776119f5565b73ffffffffffffffffffffffffffffffffffffffff16146120cd576040517f08c379a00000000000000000000000000000000000000000000000000000000081526004016120c490613648565b60405180910390fd5b600073ffffffffffffffffffffffffffffffffffffffff168173ffffffffffffffffffffffffffffffffffffffff160361213c576040517f08c379a000000000000000000000000000000000000000000000000000000000815260040161213390613d40565b60405180910390fd5b61214581612c0d565b50565b606060078054806020026020016040519081016040528092919081815260200182805480156121cc57602002820191906000526020600020905b8160009054906101000a900473ffffffffffffffffffffffffffffffffffffffff1673ffffffffffffffffffffffffffffffffffffffff1681526020019060010190808311612182575b5050505050905090565b60095481565b600073ffffffffffffffffffffffffffffffffffffffff168273ffffffffffffffffffffffffffffffffffffffff160361224b576040517f08c379a000000000000000000000000000000000000000000000000000000000815260040161224290613dac565b60405180910390fd5b61225760008383612cd1565b8060036000828254612269919061378c565b9250508190555080600160008473ffffffffffffffffffffffffffffffffffffffff1673ffffffffffffffffffffffffffffffffffffffff16815260200190815260200160002060008282546122bf919061378c565b925050819055508173ffffffffffffffffffffffffffffffffffffffff16600073ffffffffffffffffffffffffffffffffffffffff167fddf252ad1be2c89b69c2b068fc378daa952ba7f163c4a11628f55a4df523b3ef836040516123249190612f3e565b60405180910390a361233860008383612cd6565b5050565b600033905090565b600073ffffffffffffffffffffffffffffffffffffffff168373ffffffffffffffffffffffffffffffffffffffff16036123b3576040517f08c379a00000000000000000000000000000000000000000000000000000000081526004016123aa90613e3e565b60405180910390fd5b600073ffffffffffffffffffffffffffffffffffffffff168273ffffffffffffffffffffffffffffffffffffffff1603612422576040517f08c379a000000000000000000000000000000000000000000000000000000000815260040161241990613ed0565b60405180910390fd5b80600260008573ffffffffffffffffffffffffffffffffffffffff1673ffffffffffffffffffffffffffffffffffffffff16815260200190815260200160002060008473ffffffffffffffffffffffffffffffffffffffff1673ffffffffffffffffffffffffffffffffffffffff168152602001908152602001600020819055508173ffffffffffffffffffffffffffffffffffffffff168373ffffffffffffffffffffffffffffffffffffffff167f8c5be1e5ebec7d5bd14f71427d1e84f3dd0314c0f7b2291e5b200ac8c7c3b925836040516125009190612f3e565b60405180910390a3505050565b600660008273ffffffffffffffffffffffffffffffffffffffff1673ffffffffffffffffffffffffffffffffffffffff16815260200190815260200160002060000160009055600660008273ffffffffffffffffffffffffffffffffffffffff1673ffffffffffffffffffffffffffffffffffffffff16815260200190815260200160002060020160006101000a81549060ff0219169055600660008273ffffffffffffffffffffffffffffffffffffffff1673ffffffffffffffffffffffffffffffffffffffff16815260200190815260200160002060010160009055600660008273ffffffffffffffffffffffffffffffffffffffff1673ffffffffffffffffffffffffffffffffffffffff16815260200190815260200160002060020160016101000a81549060ff0219169055600660008273ffffffffffffffffffffffffffffffffffffffff1673ffffffffffffffffffffffffffffffffffffffff16815260200190815260200160002060020160026101000a81549060ff021916905550565b600073ffffffffffffffffffffffffffffffffffffffff168373ffffffffffffffffffffffffffffffffffffffff1603612701576040517f08c379a00000000000000000000000000000000000000000000000000000000081526004016126f890613f62565b60405180910390fd5b600073ffffffffffffffffffffffffffffffffffffffff168273ffffffffffffffffffffffffffffffffffffffff1603612770576040517f08c379a000000000000000000000000000000000000000000000000000000000815260040161276790613ff4565b60405180910390fd5b61277b838383612cd1565b6000600160008573ffffffffffffffffffffffffffffffffffffffff1673ffffffffffffffffffffffffffffffffffffffff16815260200190815260200160002054905081811015612802576040517f08c379a00000000000000000000000000000000000000000000000000000000081526004016127f990614086565b60405180910390fd5b818103600160008673ffffffffffffffffffffffffffffffffffffffff1673ffffffffffffffffffffffffffffffffffffffff1681526020019081526020016000208190555081600160008573ffffffffffffffffffffffffffffffffffffffff1673ffffffffffffffffffffffffffffffffffffffff1681526020019081526020016000206000828254612897919061378c565b925050819055508273ffffffffffffffffffffffffffffffffffffffff168473ffffffffffffffffffffffffffffffffffffffff167fddf252ad1be2c89b69c2b068fc378daa952ba7f163c4a11628f55a4df523b3ef846040516128fb9190612f3e565b60405180910390a361290e848484612cd6565b50505050565b6000600a5482131561293a5760028081111561293357612932613080565b5b9050612951565b6001600281111561294e5761294d613080565b5b90505b919050565b60005b600780549050811015612c085760038081111561297957612978613080565b5b600381111561298b5761298a613080565b5b60066000600784815481106129a3576129a26137c0565b5b9060005260206000200160009054906101000a900473ffffffffffffffffffffffffffffffffffffffff1673ffffffffffffffffffffffffffffffffffffffff1673ffffffffffffffffffffffffffffffffffffffff16815260200190815260200160002060020160019054906101000a900460ff166003811115612a2b57612a2a613080565b5b03612bf457600115156006600060078481548110612a4c57612a4b6137c0565b5b9060005260206000200160009054906101000a900473ffffffffffffffffffffffffffffffffffffffff1673ffffffffffffffffffffffffffffffffffffffff1673ffffffffffffffffffffffffffffffffffffffff16815260200190815260200160002060020160029054906101000a900460ff16151503612b605781600954612ad791906134f3565b6006600060078481548110612aef57612aee6137c0565b5b9060005260206000200160009054906101000a900473ffffffffffffffffffffffffffffffffffffffff1673ffffffffffffffffffffffffffffffffffffffff1673ffffffffffffffffffffffffffffffffffffffff16815260200190815260200160002060010181905550612bf3565b82600854612b6e91906134f3565b6006600060078481548110612b8657612b856137c0565b5b9060005260206000200160009054906101000a900473ffffffffffffffffffffffffffffffffffffffff1673ffffffffffffffffffffffffffffffffffffffff1673ffffffffffffffffffffffffffffffffffffffff168152602001908152602001600020600101819055505b5b600181612c01919061378c565b9050612959565b505050565b60008060009054906101000a900473ffffffffffffffffffffffffffffffffffffffff169050816000806101000a81548173ffffffffffffffffffffffffffffffffffffffff021916908373ffffffffffffffffffffffffffffffffffffffff1602179055508173ffffffffffffffffffffffffffffffffffffffff168173ffffffffffffffffffffffffffffffffffffffff167f8be0079c531659141344cd1fd0a4f28419497f9722a3daafe3b4186f6b6457e060405160405180910390a35050565b505050565b505050565b6040518060a00160405280600081526020016000815260200160006002811115612d0857612d07613080565b5b815260200160006003811115612d2157612d20613080565b5b81526020016000151581525090565b5080546000825590600052602060002090810190612d4e9190612d51565b50565b5b80821115612d6a576000816000905550600101612d52565b5090565b600081519050919050565b600082825260208201905092915050565b60005b83811015612da8578082015181840152602081019050612d8d565b60008484015250505050565b6000601f19601f8301169050919050565b6000612dd082612d6e565b612dda8185612d79565b9350612dea818560208601612d8a565b612df381612db4565b840191505092915050565b60006020820190508181036000830152612e188184612dc5565b905092915050565b600080fd5b600073ffffffffffffffffffffffffffffffffffffffff82169050919050565b6000612e5082612e25565b9050919050565b612e6081612e45565b8114612e6b57600080fd5b50565b600081359050612e7d81612e57565b92915050565b6000819050919050565b612e9681612e83565b8114612ea157600080fd5b50565b600081359050612eb381612e8d565b92915050565b60008060408385031215612ed057612ecf612e20565b5b6000612ede85828601612e6e565b9250506020612eef85828601612ea4565b9150509250929050565b60008115159050919050565b612f0e81612ef9565b82525050565b6000602082019050612f296000830184612f05565b92915050565b612f3881612e83565b82525050565b6000602082019050612f536000830184612f2f565b92915050565b600060208284031215612f6f57612f6e612e20565b5b6000612f7d84828501612ea4565b91505092915050565b600080600060608486031215612f9f57612f9e612e20565b5b6000612fad86828701612e6e565b9350506020612fbe86828701612e6e565b9250506040612fcf86828701612ea4565b9150509250925092565b6000819050919050565b612fec81612fd9565b82525050565b60006020820190506130076000830184612fe3565b92915050565b600060ff82169050919050565b6130238161300d565b82525050565b600060208201905061303e600083018461301a565b92915050565b60006020828403121561305a57613059612e20565b5b600061306884828501612e6e565b91505092915050565b61307a81612e83565b82525050565b7f4e487b7100000000000000000000000000000000000000000000000000000000600052602160045260246000fd5b600381106130c0576130bf613080565b5b50565b60008190506130d1826130af565b919050565b60006130e1826130c3565b9050919050565b6130f1816130d6565b82525050565b6004811061310857613107613080565b5b50565b6000819050613119826130f7565b919050565b60006131298261310b565b9050919050565b6131398161311e565b82525050565b61314881612ef9565b82525050565b60a0820160008201516131646000850182613071565b5060208201516131776020850182613071565b50604082015161318a60408501826130e8565b50606082015161319d6060850182613130565b5060808201516131b0608085018261313f565b50505050565b600060a0820190506131cb600083018461314e565b92915050565b6131da81612e45565b82525050565b60006020820190506131f560008301846131d1565b92915050565b6000806040838503121561321257613211612e20565b5b600061322085828601612e6e565b925050602061323185828601612e6e565b9150509250929050565b600081519050919050565b600082825260208201905092915050565b6000819050602082019050919050565b61327081612e45565b82525050565b60006132828383613267565b60208301905092915050565b6000602082019050919050565b60006132a68261323b565b6132b08185613246565b93506132bb83613257565b8060005b838110156132ec5781516132d38882613276565b97506132de8361328e565b9250506001810190506132bf565b5085935050505092915050565b60006020820190508181036000830152613313818461329b565b905092915050565b7f796f75206861766520746f6f206d756368204544465400000000000000000000600082015250565b6000613351601683612d79565b915061335c8261331b565b602082019050919050565b6000602082019050818103600083015261338081613344565b9050919050565b7f4e487b7100000000000000000000000000000000000000000000000000000000600052602260045260246000fd5b600060028204905060018216806133ce57607f821691505b6020821081036133e1576133e0613387565b5b50919050565b7f776169742074696c6c20796f757220626574206861732066696e697368656400600082015250565b600061341d601f83612d79565b9150613428826133e7565b602082019050919050565b6000602082019050818103600083015261344c81613410565b9050919050565b7f4e487b7100000000000000000000000000000000000000000000000000000000600052601160045260246000fd5b600061348d82612e83565b915061349883612e83565b92508282026134a681612e83565b915082820484148315176134bd576134bc613453565b5b5092915050565b7f4e487b7100000000000000000000000000000000000000000000000000000000600052601260045260246000fd5b60006134fe82612e83565b915061350983612e83565b925082613519576135186134c4565b5b828204905092915050565b600081905092915050565b50565b600061353f600083613524565b915061354a8261352f565b600082019050919050565b600061356082613532565b9150819050919050565b7f526577617264207472616e73666572206661696c65642c20706c65617365207260008201527f6574727900000000000000000000000000000000000000000000000000000000602082015250565b60006135c6602483612d79565b91506135d18261356a565b604082019050919050565b600060208201905081810360008301526135f5816135b9565b9050919050565b7f4f776e61626c653a2063616c6c6572206973206e6f7420746865206f776e6572600082015250565b6000613632602083612d79565b915061363d826135fc565b602082019050919050565b6000602082019050818103600083015261366181613625565b9050919050565b7f647261696e207472616e73666572206661696c65642c20706c6561736520726560008201527f7472790000000000000000000000000000000000000000000000000000000000602082015250565b60006136c4602383612d79565b91506136cf82613668565b604082019050919050565b600060208201905081810360008301526136f3816136b7565b9050919050565b7f45524332303a207472616e7366657220616d6f756e742065786365656473206160008201527f6c6c6f77616e6365000000000000000000000000000000000000000000000000602082015250565b6000613756602883612d79565b9150613761826136fa565b604082019050919050565b6000602082019050818103600083015261378581613749565b9050919050565b600061379782612e83565b91506137a283612e83565b92508282019050808211156137ba576137b9613453565b5b92915050565b7f4e487b7100000000000000000000000000000000000000000000000000000000600052603260045260246000fd5b600060408201905061380460008301856131d1565b6138116020830184612f05565b9392505050565b600060a08201905061382d6000830188612f2f565b61383a6020830187612f2f565b6138476040830186612f2f565b6138546060830185612f2f565b6138616080830184612fe3565b9695505050505050565b7f6d757374206e6f742062657474696e6720746f2065786563757465207468697360008201527f2066756e6374696f6e0000000000000000000000000000000000000000000000602082015250565b60006138c7602983612d79565b91506138d28261386b565b604082019050919050565b600060208201905081810360008301526138f6816138ba565b9050919050565b7f6e6f7420656e6f75676820454446540000000000000000000000000000000000600082015250565b6000613933600f83612d79565b915061393e826138fd565b602082019050919050565b6000602082019050818103600083015261396281613926565b9050919050565b7f62657420706f6f6c2069732066756c6c00000000000000000000000000000000600082015250565b600061399f601083612d79565b91506139aa82613969565b602082019050919050565b600060208201905081810360008301526139ce81613992565b9050919050565b7f7472616e73666572206572633230206661696c65642c20706c6561736520726560008201527f7472790000000000000000000000000000000000000000000000000000000000602082015250565b6000613a31602383612d79565b9150613a3c826139d5565b604082019050919050565b60006020820190508181036000830152613a6081613a24565b9050919050565b6000608082019050613a7c60008301876131d1565b613a896020830186612f2f565b613a966040830185612f2f565b613aa36060830184612f05565b95945050505050565b600069ffffffffffffffffffff82169050919050565b613acb81613aac565b8114613ad657600080fd5b50565b600081519050613ae881613ac2565b92915050565b613af781612fd9565b8114613b0257600080fd5b50565b600081519050613b1481613aee565b92915050565b600081519050613b2981612e8d565b92915050565b600080600080600060a08688031215613b4b57613b4a612e20565b5b6000613b5988828901613ad9565b9550506020613b6a88828901613b05565b9450506040613b7b88828901613b1a565b9350506060613b8c88828901613b1a565b9250506080613b9d88828901613ad9565b9150509295509295909350565b7f45524332303a2064656372656173656420616c6c6f77616e63652062656c6f7760008201527f207a65726f000000000000000000000000000000000000000000000000000000602082015250565b6000613c06602583612d79565b9150613c1182613baa565b604082019050919050565b60006020820190508181036000830152613c3581613bf9565b9050919050565b7f796f75206d7573742073656e642065786163746c79207468652062657420766160008201527f6c75650000000000000000000000000000000000000000000000000000000000602082015250565b6000613c98602383612d79565b9150613ca382613c3c565b604082019050919050565b60006020820190508181036000830152613cc781613c8b565b9050919050565b7f4f776e61626c653a206e6577206f776e657220697320746865207a65726f206160008201527f6464726573730000000000000000000000000000000000000000000000000000602082015250565b6000613d2a602683612d79565b9150613d3582613cce565b604082019050919050565b60006020820190508181036000830152613d5981613d1d565b9050919050565b7f45524332303a206d696e7420746f20746865207a65726f206164647265737300600082015250565b6000613d96601f83612d79565b9150613da182613d60565b602082019050919050565b60006020820190508181036000830152613dc581613d89565b9050919050565b7f45524332303a20617070726f76652066726f6d20746865207a65726f2061646460008201527f7265737300000000000000000000000000000000000000000000000000000000602082015250565b6000613e28602483612d79565b9150613e3382613dcc565b604082019050919050565b60006020820190508181036000830152613e5781613e1b565b9050919050565b7f45524332303a20617070726f766520746f20746865207a65726f20616464726560008201527f7373000000000000000000000000000000000000000000000000000000000000602082015250565b6000613eba602283612d79565b9150613ec582613e5e565b604082019050919050565b60006020820190508181036000830152613ee981613ead565b9050919050565b7f45524332303a207472616e736665722066726f6d20746865207a65726f20616460008201527f6472657373000000000000000000000000000000000000000000000000000000602082015250565b6000613f4c602583612d79565b9150613f5782613ef0565b604082019050919050565b60006020820190508181036000830152613f7b81613f3f565b9050919050565b7f45524332303a207472616e7366657220746f20746865207a65726f206164647260008201527f6573730000000000000000000000000000000000000000000000000000000000602082015250565b6000613fde602383612d79565b9150613fe982613f82565b604082019050919050565b6000602082019050818103600083015261400d81613fd1565b9050919050565b7f45524332303a207472616e7366657220616d6f756e742065786365656473206260008201527f616c616e63650000000000000000000000000000000000000000000000000000602082015250565b6000614070602683612d79565b915061407b82614014565b604082019050919050565b6000602082019050818103600083015261409f81614063565b905091905056fea264697066735822122070d7f172ad7daf43ff6180763c90abb8d49f776c43b5f8fd9574c3d59c3b4fc964736f6c63430008120033",
  "linkReferences": {},
  "deployedLinkReferences": {}
}